:020000040800F2
:10000000C00A0020C9000008E51E0008151A0008F3
:1000100000000000000000000000000000000000E0
:10002000000000000000000000000000F9210008AE
:100030000000000000000000E71E0008FB2100088F
:10004000DB00000800000000DB000008DB00000807
:10005000DB000008DB000008DB000008DB00000814
:1000600000000000DB000008DB000008DB000008E7
:10007000DB000008DB000008DB00000800000000D7
:10008000DB0000080000000000000000DB000008AA
:1000900000000000DB000008DB000008DB000008B7
:1000A00000000000DB000008000000001D26000822
:1000B0000448854600F096F800480047952B000854
:1000C000C046C046C00A0020044880470448004794
:1000D000FEE7FEE7FEE7FEE7FEE7FEE7892200080F
:1000E000B100000830B50B46014600202022012453
:1000F00009E00D46D5409D4205D31D469540491B5C
:100100002546954040191546521E002DF1DC30BDA4
:10011000F0B51FB40646002082B005464024019188
:1001200000901BE0019922460F46304600F020F86F
:10013000049A059B801A994110D31046194622460D
:1001400000F040F8361A8F41019722460120002125
:10015000009F00F037F838184D4100902046641E8B
:100160000028DFDC019B00982946324607B0F0BD2D
:1001700010B5202A04DB0846203AD040002110BDEB
:100180000B46D340D0402024A21A91400843194680
:1001900010BDD2B201E00270401C491EFBD2704774
:1001A0000022F6E710B513460A4604461946FFF743
:1001B000F0FF204610BD421C0178401C0029FBD1F5
:1001C000801A704710B5202A04DB0146203A91407E
:1001D000002010BD914020239C1A0346E3401943A0
:1001E000904010BD064C0125064E05E0E36807CCA3
:1001F0002B430C3C98471034B442F7D3FFF75CFF15
:10020000E43B0008043C000872B6FEE700B500229B
:1002100000F002F800BD000030B50E4B05465C7AD8
:100220000120012C15D8587A00241C54587A8000DB
:10023000C01845605D7A184608302A54587A421C26
:100240005A72303008703A2048702F208870CC7075
:10025000002030BDB406002030B5014620314B7877
:100260000022022B04D0042383630A70012030BDD6
:1002700003681C680E25AC431C6003681C68640896
:1002800064001C600123056C1C46C06BAC404460DC
:100290004B700A70002030BD70B50024014620313B
:1002A0004A78022A03D004218163012416E00268FF
:1002B00013680E25AB431360026813685B085B008C
:1002C00013600122056C1346AB40C56B6B604A702E
:1002D00000220A70416B002900D08847204670BD7B
:1002E00070B5044600F0E6F80546601C02D00448EC
:1002F0000078241800F0DEF8401BA042FAD370BD4D
:1003000020000020F8B5002303240125BAE02E4682
:100310009E40B44632407CD00E79B607B60F012E0F
:1003200001D0022E17D186682746B6465E00B74038
:1003300000967646BE43B646CF68009EB7407646E6
:100340003743876046686746BE430F79FF06FF0F55
:100350009F40374347600E79F643B6070ED0C66814
:100360002746B4465E00B646B7406646BE43B4462E
:100370008F687646B74066463743C7600E79B60742
:10038000B60F022E14D1DE08B60036180096366A73
:100390005F07B446FE0E0F27B646B7406646BE431B
:1003A000B4460F697646B74066463743009E3762CB
:1003B00006682746B4465E00B646B7406646BE436A
:1003C0000F79B446BF07BF0F7646B740664637433E
:1003D00007604E68B603B60F53D02D4FBE692E434B
:1003E000BE61BE699F08F607F60F2A4EBF00BE1910
:1003F0000096B6680F27B4469E07360FB646B7403C
:100400006646BE430927FF06B446B84202D100271C
:1004100010E036E0204FB84201D101270AE01F4F1B
:10042000B84201D1022705E01D4FB84201D1032790
:1004300000E005277646B74066463743009EB76022
:10044000184E36684F689643FF0300D51643154F84
:100450003E607E684F689643BF0300D51643114F38
:100460007E60BE684F689643FF0200D516430D4F6D
:10047000BE60FE684F689643BF0200D51643094A26
:10048000D6605B1C0A681646DE4000D03FE7F8BD28
:10049000001002400000014000040048000800482D
:1004A000000C004800040140002A01D0816170471F
:1004B000816270470148806870470000200000207A
:1004C00070B5024640325378202B1CD11378012B93
:1004D00019D00123137024245470046825689D43A7
:1004E0002560046825681E03B543256004682568F7
:1004F0000D43256000680168194301602020507099
:100500000020107070BD022070BD70B502464032F0
:100510005378202B1BD11378012B18D00124147091
:100520002423537003681D68A5431D6005682B686C
:100530000F263602B3430902194329600068016897
:1005400021430160202050700020107070BD0220F7
:1005500070BD000070B5040006D0254640356878AF
:100560000026002802D005E0012070BD2E70204634
:1005700000F09AF924206870206801684908490051
:1005800001600F21606809068843216808612168BD
:100590008A680120C00382438A60E1680129A1685A
:1005A00008D021229202114322689160E168022959
:1005B00002D005E00143F7E701212268C90251603A
:1005C00021684A680F4B1A434A602168CA6882430F
:1005D000CA60616920690843A1690902084321686A
:1005E000C860216AE06908432168086020680168E2
:1005F0000122114301606664202068702663AE709A
:10060000002070BD00800002FFB50546044640355D
:10061000687883B0202875D10C98002814D00D98E4
:10062000002811D0287801286CD001202870FFF70D
:1006300041FF0746012200901923D103204601F013
:10064000B3FA002874D103E00120400260646FE037
:10065000222068704020A870002666640C986062B2
:100660000D98608566630E980090019704A90EC9E5
:10067000204601F025FA002801D02E7058E0618D47
:100680003448FF2905D9FF22228501231B0600904B
:1006900006E0618D21850090208D0123C2B25B06AA
:1006A0002046049901F06CFA0097002204212046AC
:1006B0000E9B01F079FA00283AD12068406A616AFD
:1006C0000870606A401C6062208D401E81B22185E6
:1006D000608D401E6085608D00281FD000291DD1CF
:1006E00000970022802120460E9B01F05DFA002831
:1006F0001ED1608DFF2806D9FF22228501231B060B
:10070000009607E024E0608D20850096208D01236F
:10071000C2B25B062046049901F032FA608D0028CF
:10072000C2D13A4620460E9901F065FA002802D05F
:10073000012007B0F0BD20682021C1612068426817
:10074000054B1A4042606970AE702E700020F0E7D1
:100750000220EEE70024008000E800FEFFB5054619
:1007600004464035687883B0202872D10C98002860
:1007700014D00D98002811D02878012869D00120C4
:100780002870FFF797FE0746012200901923D10336
:10079000204601F009FA002871D103E0012040024F
:1007A00060646CE0212068704020A87000266664B8
:1007B0000C9860620D98608566630E9800900197B2
:1007C00004A90EC9204601F0ABF9002801D02E7013
:1007D00055E0608DFF2805D9FF22228501231B06E5
:1007E000009606E0608D20850096208D0123C2B220
:1007F0005B062046049901F0C3F93A4620460E995B
:1008000001F01FFA00283AD1606A216800788862F6
:10081000606A401C6062608D401E6085208D401EB5
:1008200080B22085618D00291FD000281DD100973E
:100830000022802120460E9B01F0B6F900281ED12F
:10084000608DFF2806D9FF22228501231B06009612
:1008500007E024E0608D20850096208D0123C2B240
:100860005B062046049901F08BF9608D0028C4D105
:100870003A4620460E9901F0BEF9002802D0012028
:1008800007B0F0BD20682021C16120684268054B97
:100890001A4042606970AE702E700020F0E70220AE
:1008A000EEE7000000E800FE10B586B00446142113
:1008B0006846FFF775FC13492068884220D1124C26
:1008C00061690120400401436161616901400320C5
:1008D0000591400200901220019001200290032017
:1008E00003900420049009206946C006FFF70AFD22
:1008F000E169012040050143E161E16901400591A1
:1009000006B010BD0054004000100240024881684B
:1009100002788918816070472000002010B50648D1
:100920000168102211430160002000F007F800F078
:1009300027F8002010BD00000020024070B50446DA
:100940000D4D7D202978C000FFF7CCFB01460B48F8
:100950000068FFF7C7FB00F025FE002809D1042C32
:1009600007D200222146401E00F02AF800206C60C9
:1009700070BD012070BD0000200000202C00002070
:1009800008B50848816901221143816181691140DC
:100990000091C26901040A43C261C0690840009025
:1009A00008BD000000100240002805DBC106C90E8A
:1009B00001208840014908607047000000E100E024
:1009C00010B501F075FE10BDF8B505460068354C50
:1009D000C00352D5E0690026C00007D4E1692004B5
:1009E0000143E161E1690140012600912E4801685F
:1009F000C90510D40168821511430160FFF75AFD43
:100A0000074604E0FFF756FDC01B642824D826489B
:100A10000068C005F6D5206A03273F02384020D081
:100A20006968394081421CD0206A226AB84301219A
:100A300009040A432262226A8A4322622062C007B2
:100A40000FD0FFF737FD009008E0FFF733FD009966
:100A5000411A1648814201D90320F8BD206A800757
:100A6000F3D5206A6968B84308432062002E04D099
:100A7000E169012000078143E1612878C00705D0C2
:100A8000206BA968800880000843206328788006CE
:100A900005D5206B10218843E968084320630020B6
:100AA000F8BD0000001002400070004088130000F4
:100AB000F8B50F46060059D03A4D2868C007C00F58
:100AC000B84209D2286840084000384328602868A6
:100AD000C007C00FB84249D13068334C81070CD5EC
:100AE000400704D560680721090208436060606818
:100AF000F0218843B168084360603078C00726D091
:100B0000706801280ED0216802280ED089070029BC
:100B10002CDA61688908890001436160FFF7CAFC2B
:100B200000900DE021688903F1E78901EFE7FFF705
:100B3000C1FC0099411A1D48814201D90320F8BD2A
:100B400060680C210840716889008842EFD12868EC
:100B5000C007C00FB8420BD928684008400038438E
:100B600028602868C007C00FB84201D00120F8BD36
:100B70003078400706D56068072109028843F1688C
:100B80000843606000F028F86168094A0906090F07
:100B9000515CC840074908600020FFF7CFFE0020E5
:100BA000F8BD000000200240001002408813000041
:100BB000CC3B00082C000020044805490068496827
:100BC000044A4905490F515CC84070472C00002079
:100BD00000100240DC3B000810B514A30FCB88B016
:100BE0006C460FC415A30FCB0FC4184A51680C20D4
:100BF0000B4603401648042B16D0082B14D18B0249
:100C00001B0F6C46E45CD26A04AB1207120F9A5CAD
:100C1000C90305D500231946FFF77AFA214601E0FA
:100C200020460C4901F02CFD08B010BD020304055C
:100C3000060708090A0B0C0D0E0F10100102030421
:100C400005060708090A0B0C0D0E0F1000100240D4
:100C500000127A0000093D00FEB5040070D0207833
:100C6000DC4DC0074AD068680007800F012807D014
:100C700068680007800F022809D16868C00306D59C
:100C8000286880033AD560680028E7D036E06168BC
:100C9000012914D001208004002901D0052914D095
:100CA0002A68012109048A432A602968814329604E
:100CB0006068002816D0FFF7FDFB06460EE02868A6
:100CC0000121090408432860F2E7296801432960EB
:100CD000F5E7FFF7EFFB801B64286ED828688003D8
:100CE000F7D50BE0FFF7E6FB064604E0FFF7E2FB73
:100CF000801B6428F1D828688003F7D42078012667
:100D0000800700283CDA68680007800F07D0686811
:100D10000007800F022809D16868C00306D428683C
:100D2000800716D5E06801280AD112E0E0680028A3
:100D3000286816D030432860FFF7BCFB074605E063
:100D400043E1FFF7B7FBC01B0228C6D8286880071D
:100D5000F7D52868F82188432169C900084328602D
:100D60000EE0400840002860FFF7A4FB074604E0BF
:100D7000FFF7A0FBC01B0228AFD828688007F7D474
:100D80002078000722D5E0690028686A0ED0304339
:100D90006862FFF78FFB074604E0FFF78BFBC01B81
:100DA00002289AD8686A8007F7D50FE0400840000B
:100DB0006862FFF77FFB074605E09DE0FFF77AFBDF
:100DC000C01B022889D8686A8007F7D420780427D6
:100DD0004007002860DA00200190E869C00008D4CC
:100DE000E969B8060143E961E96901400120009120
:100DF000019079480168C90511D401688215114331
:100E00000160FFF757FB009005E0FFF753FB0099E7
:100E1000401A642870D870480068C005F5D5A068ED
:100E200001280AD0002801D0052810D0286A4008DF
:100E300040002862286AB84301E0286A30432862EB
:100E4000A068002812D0FFF735FB00900AE0286A5E
:100E500038432862F1E7FFF72DFB0099411A5F48FC
:100E6000814249D8286A8007F5D50DE0FFF722FBBB
:100E7000009006E0FFF71EFB0099411A5748814297
:100E80003AD8286A8007F5D40198002804D0E96987
:100E9000012000078143E9612078C00635D56069EB
:100EA00001280CD0401D686B23D038436863686B01
:100EB000400840006863FFF7FDFA064622E0686BD1
:100EC00038436863686B30436863FFF7F3FA06469C
:100ED00004E0FFF7EFFA801B02285BD8686B8007FD
:100EE000F7D5686BF8218843A169C9000843686396
:100EF0000BE0B8436863F4E74CE0FFF7DBFA801BD4
:100F0000022847D8686B8007F7D4206A00285ED093
:100F100069680907890F022942D00126360602288E
:100F2000286805D0B0432860FFF7C4FA044633E0D0
:100F3000B0432860FFF7BEFA074604E0FFF7BAFAAD
:100F4000C01B022826D828688001F7D4E86AE16A25
:100F5000000900010843E862616AA06A0843696801
:100F60003D2212049143084368602868304328609A
:100F7000FFF7A0FA044604E0FFF79CFA001B0228E2
:100F800008D828688001F7D521E0FFF793FA001B05
:100F9000022801D90320FEBD28688001F5D416E09F
:100FA0000128F8D06868E96A01221204636A0240E5
:100FB0009A420AD10907E26A090F914205D10F212D
:100FC00089040840A16A884201D00120FEBD0020AA
:100FD000FEBD0000001002400070004088130000B9
:100FE00010B500680B464068C021C94301400002AB
:100FF000000ECC04D870E40E5C708C06A40E0904BC
:10100000490F9C701970002A0AD100F06DFFD8704A
:10101000587800F069FF5870987800F065FF987074
:10102000002010BD30B50B460168896A596001681F
:1010300009694904490C9960006804680F48214611
:10104000014088024D04800E18706D0E49065D70D7
:10105000490E99706102490E40242140D970002A3E
:101060000AD100F041FF1870587800F03DFF587029
:10107000987800F039FF9870002030BD7F7F7F00A6
:1010800070B5040003D0607F002802D006E0012084
:1010900070BD00202077204600F04CF802206077D9
:1010A0002168CA204862216853204862204600F027
:1010B0002EFFFF250426002824D1206881681C4AC1
:1010C0001140816021688868626863691043226901
:1010D0001A43104388602168E0680861206801694C
:1010E00022891204114301612068C1688022914362
:1010F000C16020688068800608D4204600F098F817
:10110000002803D0206845626677C0E72068016C3C
:1011100001229204914301642068016CA269114389
:1011200001642068456201206077002070BD0000E6
:10113000BFFF8FFF00680549884205D10448016A56
:101140000122D203114301627047000000280040D1
:1011500000100240F8B50446007F0D46012821D05A
:101160000120207702206077206800278068002A0D
:101170001AD0400600D4EF702878AE7800040643F9
:101180006878E97800020904084306432168CA2008
:101190004862216853204862204600F0B8FE0028CB
:1011A00034D114E00220F8BD400600D4EF70287856
:1011B00000F0A2FE0604687800F09EFE00020643DE
:1011C000A87800F099FE0643E8780004DDE71748A8
:1011D00006402068066020688168012292049143DD
:1011E00081602969E868084321688A68104388603B
:1011F0002068C16880229143C160206880688006B1
:101200000CD4204600F014F8002807D02168FF20F5
:1012100048620420607727770120F8BD2168FF200D
:1012200048620120607727770020F8BD7F7F7F002C
:1012300070B504460068C168A0229143C160FFF701
:1012400039F97D260546F60006E0FFF733F9401B25
:10125000B04201D9032070BD2068C0688006F4D573
:10126000002070BDF8B504000CD0606A002500288D
:101270000AD02561656126464036A562707F002848
:1012800008D00BE00120F8BD6168C81FFD38F2D01E
:10129000E561F0E73577204600F05CF802227277CE
:1012A000206801684023994301600723E1681B021D
:1012B000994201D9002001E0012000030F273F02DD
:1012C000B94202D0994200D0A562FF23616805337C
:1012D00019402127A368BF023B40194323691340EB
:1012E000227D1943D207D20F11430123A2695B0269
:1012F0001A401143E26938231A401143226A8023BD
:101300001A401143A26A9B011A40114322681160DE
:10131000A1690422090C1140626A10231A4011438A
:10132000626B08231A4011430F23E2681B021A4024
:1013300011430122120310400143206841602068DC
:10134000C16952109143C161256601207077002068
:10135000F8BD000010B586B0044614216846FEF7BB
:101360001FFF1149206888421CD1104882698114EE
:101370000A43826182690A400592426949010A432F
:101380004261406908400590E020009002200190F1
:101390000021032003900291049109206946C006B0
:1013A000FEF7B0FF06B010BD003001400010024053
:1013B000FFB5044683B0012001900020254640354A
:1013C0000090287F0C9F1E4601280FD0012028770F
:1013D000FFF770F80290687F616801280DD0CA1F7E
:1013E000FD3A08D1A168002905D102E0022007B02A
:1013F000F0BD042801D00220D1E00498002820D0BC
:10140000059800281DD0002E1BD0687F042801D02D
:10141000052068770020206605992164EE80AE8063
:101420000499A163E687A687E0642065072101206F
:10143000E268090200038A422268536803D98343A1
:1014400002E00120ABE003435360206802685206CB
:1014500003D4026840231A430260E068884260684F
:1014600044D9002801D0012E39D1A06B2168008811
:10147000C860A06B801CA063E08F401EE0872EE058
:1014800020688168890710D5E18F00290DD0019966
:1014900001290AD1A16B0988C160A06B801CA063DF
:1014A000E08F401EE0870020019020688168C90716
:1014B0000DD0E98800290AD0C068216C0880206C12
:1014C000801C2064E888401EE88001200190FEF71F
:1014D000F1FF0299401AB84201D3781C5ED1E08F27
:1014E0000028CDD1E8880028CAD146E0002801D0E4
:1014F000012E3CD1A06B216800780873A06B401CC2
:10150000A063E08F401EE08731E020688168890792
:1015100010D5E18F00290DD0019901290AD1A16BC5
:1015200009780173A06B401CA063E08F401EE08728
:101530000020019020688168C9070DD0E988002942
:101540000AD0007B216C0870206C401C2064E88865
:10155000401EE88001200190FEF7ACFF0299401A7E
:10156000B84202D3781C02D018E0002F16D0E08FCA
:101570000028CAD1E8880028C7D139462046029AF7
:1015800000F02BFD002803D00120009020202066D1
:101590000120687700202877009828E70320009032
:1015A000F6E70000094910B5401E884201D9012024
:1015B00010BD074C60610321081F01F079F800207D
:1015C000A06107202061002010BD0000FFFFFF0088
:1015D00000E000E070477047F8B502680446D06943
:1015E000116896689C4B05461D402023002D75D040
:1015F000F7079A4DFF0FBC460D402F436DD025468F
:10160000C7078035002F06D0CF0504D50127176204
:101610002A683A432A60820708D5F20706D027686D
:1016200002223A622A6804273A432A60420708D510
:10163000F20706D02668042232622A680226324364
:101640002A6002070AD50A461A406646324305D088
:101650002668082232622E6816432E60020508D5DD
:101660004A0106D501222668D20232622A681A434C
:101670002A602A68002A39D0800606D5880604D553
:10168000616E002901D02046884728682168896852
:10169000490602D4282108422DD0204600F096FEAB
:1016A00021688868400622D5EFF31080012282F37A
:1016B00010888B68402293438B6080F31088206FE2
:1016C000002814D066494163206FFEF7E5FD00282D
:1016D0000CD0206F416B08E000E012E0850610D5C9
:1016E0008D060ED5616E9DE020468847F8BD2046E8
:1016F000FFF771FFF8BD2046FFF76DFF002028605F
:10170000F8BD256E012D7DD1C5067BD5CD0679D5D9
:10171000102616622268906825464006403500284B
:1017200045DA216F086840680004000CE8D02F8B70
:101730008742E5D968838869202833D0EFF3108089
:10174000012181F3108811683701B943116080F3DA
:101750001088EFF31080012181F3108821688A68D6
:10176000520852008A6080F31088EFF31080012144
:1017700081F3108821688A684027BA438A6080F321
:101780001088E36700202066EFF31080012181F3C9
:10179000108821680A68B2430A6080F31088206FBD
:1017A000FEF75AFD288B698B401A81B231E0288BF5
:1017B000698B401A81B2688B0028A1D000299FD084
:1017C000EFF31080012585F310881568FF27213776
:1017D000BD43156080F31088EFF31080012282F37F
:1017E0001088226895686D086D00956080F31088F8
:1017F000E367002020666066EFF31080012282F329
:10180000108800E009E022681368B343136080F396
:1018100010882046FFF7DEFEF8BD050606D50D064A
:1018200004D5A16E002900D05EE7F8BD4006FCD5C6
:101830004806FAD52046EFF31081012484F310887E
:1018400014684025AC43146081F31088836700213D
:10185000816600F0DEF8F8BD0F08000020010004EA
:10186000B923000810B5040003D0A06F002802D0EF
:1018700007E0012010BD002174200155204600F032
:1018800027F82420A0672068016849084900016002
:10189000204600F0CBFD0128ECD0606A002802D081
:1018A000204600F0F2FC206841680122D2029143F8
:1018B0004160206881680822914381602068016846
:1018C000012211430160204600F044FD10BD0000DC
:1018D00010B586B0044614216846FEF761FC16492F
:1018E0002068884226D115488269012189030A436C
:1018F000826182690A4005924269C9000A434261D5
:101900004069084005900C200090022001900020C2
:101910000290032003900120049009206946C0062C
:10192000FEF7F0FC002211461B20FFF749F81B20B0
:10193000FFF73AF806B010BD003801400010024031
:10194000FFB50446806F83B017460D4620285ED150
:10195000002D0AD0002F08D0A168C001814207D114
:101960002069002804D1E80702D0012007B0F0BDAB
:10197000204660300090007D012848D00098012169
:1019800001750020802108512120A067FEF792FDFB
:10199000264640360190378277820120A1680003F5
:1019A000814202D12069002805D02F4600250099E8
:1019B0000020087511E00027F9E700228021204669
:1019C00000F0C2FD002815D1002F15D0216838780D
:1019D00008857F1C708A401E7082708A019B0028D7
:1019E00006980090E9D100224021204600F0ACFD8D
:1019F000002808D00320B9E728882168C005C00D59
:101A00000885AD1CE6E72020A0670020AEE7022095
:101A1000ACE77047FEE701688A69D243920701D4B8
:101A200000228A6200688169C943C90703D08169BD
:101A30000122114381617047F7B5044600680F46E3
:101A40008169C943C90636D44168890104D4416813
:101A5000012292031143416000262546403520684B
:101A60008069C043800612D5781CF8D0FEF722FDAD
:101A70000299401AB84201D8002FF0D1616C2020A1
:101A8000014361646870AE702E700120FEBD216854
:101A90001020C86120682027C7612046FFF7BBFFE0
:101AA00020684168054A11404160606C0421084388
:101AB00060646F70E7E70020FEBD000000E800FEF4
:101AC000F8B50446164615481D46DAB20090079F41
:101AD0000023204600F054F83A462046069900F0CC
:101AE000B0F8002818D12846F5B2012809D021689D
:101AF000300A88623A462046069900F0A2F800288B
:101B00000AD1206885620097002240212046069B6A
:101B100000F04AF8002800D00120F8BD0020008025
:101B2000F8B50446164615481D46DAB2C3020090C1
:101B3000079F204600F024F83A462046069900F018
:101B400080F8002818D12846F5B2012809D021686C
:101B5000300A88623A462046069900F072F800285A
:101B60000AD1206885620097002280212046069BCA
:101B700000F01AF8002800D00120F8BD00200080F5
:101B8000F0B50668059C7568064F600D38438543BF
:101B90008805800D110408431843204305437560F0
:101BA000F0BD0000FF63FF03F8B51D4617460E4663
:101BB000044609E0681C07D0FEF77CFC0699401A31
:101BC000A8420BD8002D09D020688169304688438F
:101BD0000FD00020B842EDD00020F8BD616C20206D
:101BE00001436164403460700020A07020700120C7
:101BF000F8BD0120EEE770B516460D4604460FE02D
:101C0000324629462046FFF717FF002801D0012061
:101C100070BDFEF74FFC801BA84208D8002D06D0EF
:101C200020688069C0438006EAD4002070BD616CE2
:101C3000202001436164403460700020A070207057
:101C4000E5E770B516460D46044611E032462946D2
:101C50002046FFF7F1FE002801D0012070BD681C6E
:101C600006D0FEF727FC801BA84208D8002D06D01E
:101C700020688069C0438007E8D4002070BD616C93
:101C8000202001436164403460700020A070207007
:101C9000E3E7F1B586B0012504A86424019500901E
:101CA0002B467522D02102940698FEF7ADFC6846BB
:101CB000007C682802D0012007B0F0BD00276846EC
:101CC000077303AE019501236B22D0210096029485
:101CD0000698FEF743FD072168460173019501232D
:101CE0001922D021009602940698FEF737FD684627
:101CF0000773019501231C22D021009602940698B7
:101D0000FEF72CFD68460773019501231B22D021A5
:101D1000009602940698FEF721FD0020CCE710B54E
:101D200088B00C4664230E2203A90293019200910D
:101D300001233B22D021FEF767FC6846808940BA28
:101D400020806846C08940BA60806846008A40BAF0
:101D5000A0806846808A40BA20846846C08A40BA1B
:101D600060846846008B40BAA08408B010BD0000B3
:101D700010B504490448FEF749FA0249491E0870A3
:101D800010BD0000490000203400002010B586B0CE
:101D900014216846FEF704FA0D48426901214904FE
:101DA0000A43426140690022084012218C060590D6
:101DB0002046FEF779FB12200121009000200191BE
:101DC0000391029069462046FEF79CFA06B010BDCA
:101DD0000010024010B513481149016012494160DA
:101DE000002181600161416181610122C161C260A4
:101DF0000162FEF7AFFB002801D0FEF705FA0021D3
:101E00000848FEF75DFB002801D0FEF7FDF9002130
:101E10000448FEF77AFB002801D0FEF7F5F910BD63
:101E200000540040600500200B02000010B50B4874
:101E3000094901607F22826000214160FF22016127
:101E40005F324161C2608161FFF71AF9002801D059
:101E5000FEF7DAF910BD000000280040AC050020B4
:101E600010B511480F490160FF2105314160002183
:101E70000322816012020161C260012241615202AB
:101E8000826101624162082281620723C261C362EA
:101E900042630163FFF7E6F9002801D0FEF7B4F9C9
:101EA00010BD000000300140CC05002010B50C48EA
:101EB0000A490160E1214902416000218160C1605D
:101EC00001618161C1610C22016242614162FFF7DF
:101ED000C9FC002801D0FEF797F910BD0038014079
:101EE00030060020FEE7704701090A22000751432F
:101EF000000F4018C0B27047002102E00A38C0B29B
:101F0000491C0A28FAD20907090E0843704770B520
:101F100004460068C168490613D40021C943C16062
:101F2000FEF7C8FA7D260546F60006E0FEF7C2FA7F
:101F3000401BB04201D9032070BD2068C068400634
:101F4000F4D5002070BD10B53220FEF7C9F910BDE0
:101F500070B504460D46000607D56406640E0021E0
:101F60007720FFF7F5FF012836D80926F60601226B
:101F700002213046FEF798FAFF2000F021F90022F6
:101F800002213046FEF790FAFF2000F019F92046B2
:101F900000F016F9280E00F013F92802000E00F0E8
:101FA0000FF92804000E00F00BF9E8B200F008F970
:101FB0000120402C02D0482C02D002E0952000E005
:101FC000872000F0FDF80A2400F02DF8010603D563
:101FD000641E2406240EF7D170BDF8B50F460B46DB
:101FE00015460092032104460022C90200F020F8A1
:101FF0002026002812D13B46002280212046009551
:1020000000F082F8002809D103213B460022490252
:102010002046009500F00CF8002803D0206E3043D5
:1020200020660320F8BD10B5FF2000F0C9F810BDF0
:10203000FFB585B00E460446002069460E9D174642
:102040000871FEF737FA411B0898451AFEF732FA75
:102050000390206823210C3002902A4800684843EE
:10206000000D684346E003204002864206D1002F5F
:1020700004D1029801786846017100790898401CE3
:1020800039D0FEF717FA0399401AA84205D2002D5D
:1020900003D0009800282BD02BE020684168E02274
:1020A000914341606068C11FFD390CD10121A068D6
:1020B000C903884202D04911884204D120680168CE
:1020C0004022914301600120A16A4003814207D16F
:1020D00021680A6882430A6021680A6802430A602C
:1020E00001204034607700202077032009B0F0BD44
:1020F0000025401E0090206880683040B842B2D170
:102100000020F3E72C000020FFB581B01E460446F6
:102110000A9DFEF7CFF9401B351AFEF7CBF90746AB
:10212000264800684001000D684339E0701C38D033
:10213000FEF7C0F9C01BA84205D2002D03D00098BD
:1021400000282BD02BE020684168E02291434160B9
:102150006068C11FFD390CD10121A068C903884204
:1021600002D04911884204D120680168402291437D
:1021700001600120A16A4003814207D121680A68F9
:1021800082430A6021680A6802430A6001204034E1
:10219000607700202077032005B0F0BD0025401EA9
:1021A0000090206881680298884305D00021039838
:1021B0008142BBD10020EFE70121F8E72C0000208D
:1021C00001B582B00020694608710120000300902B
:1021D000012301AA02A90748FFF7EAF8002805D061
:1021E000092000221021C006FEF75EF9684600793A
:1021F0000EBD0000CC050020704710B5FEF786FB31
:1022000010BD000030B595B030216846FDF7C8FF1D
:1022100000240F940A2000900D9401200C94129435
:102220001194039007900E9405201394C004109409
:102230001021022509940A90089504910B94684690
:10224000FEF70AFD002801D072B6FEE707200C90C9
:102250000E9401210D950F940CA8FEF729FC00287F
:1022600001D072B6FEE707481090C0111190129489
:10227000139410A8FEF7A8FB002801D072B6FEE761
:1022800015B030BD21000100704710B5818CC90721
:1022900007D001684A6801235B049A43836A1A43A2
:1022A0004A60818C890707D501684A6801231B04AD
:1022B0009A43C36A1A434A60818C490707D501686B
:1022C0004A6801239B049A43036B1A434A60818C3A
:1022D000090707D501684A680123DB039A43436B6A
:1022E0001A434A60818CC90607D5026891680123A8
:1022F0001B039943836B19439160818C890607D531
:1023000001688A6801235B039A43C36B1A438A609E
:10231000818C490612D503685A6801210905046CAD
:102320008A4322435A60026C8A4207D1026851688C
:1023300003235B059943436C19435160818C090663
:1023400007D501684A680123DB04806C9A43024385
:102350004A6010BDF8B50446002680300660FEF7DE
:10236000A9F8054620680068124F000709D5012129
:102370002B46002249052046009700F0E5F800288A
:102380000DD12068006840070BD501212B460022A3
:1023900089052046009700F0D7F8002801D00320D7
:1023A000F8BD2020A067E06726666034267500200F
:1023B000F8BD0000FFFFFF0110B5406A0022014692
:1023C00040314A834A82FFF706F910BD10B5EFF39A
:1023D0001081012282F3108802681368FF242134DF
:1023E000A343136081F31088EFF31081012282F37D
:1023F0001088026893685B085B00936081F3108823
:10240000016E01290BD1EFF31081012282F31088B4
:10241000026813681024A343136081F310882021FD
:10242000C16700210166416610BD000070B5044619
:1024300080682169E2690843616900251143084306
:1024400021680A683C4B1A4002430A6021684868C8
:10245000032212039043E26810434860A169206A96
:10246000084321688A680B231B029A4302438A604F
:102470003248006B8007800F16D0012818D0022840
:1024800018D0032812D010210120E369C0032C4A80
:102490002C4E83422BD100290ED002290FD00429C3
:1024A0000FD008293FD110E00021EDE70221EBE732
:1024B0000421E9E70821E7E7FEF77EFB03E0104689
:1024C00003E0FEF789FB002831D0616840004A082C
:1024D0008018FDF707FE80B201461039B14222D8BC
:1024E0001849491C01400007400F08431DE000291E
:1024F00006D0022907D0042907D0082913D108E003
:10250000FEF75AFB03E0104603E0FEF765FB0028E8
:102510000DD061684A081018FDF7E4FD80B201464D
:102520001039B14201D9012501E02168C8600020BD
:102530006066A066284670BDF369FFFF0010024088
:1025400000127A00EFFF0000FFB581B00546174684
:10255000044660350A9E55E0701C53D0FDF7AAFF73
:102560000499401AB04230D8002E2ED0206801685D
:10257000490747D5C069C043000543D401202168FD
:10258000C0020862EFF31080012181F310882168F6
:102590000B68FF22A13293430B6080F31088EFF3A6
:1025A0001080012181F3108821688A685208520046
:1025B0008A6080F310882020A067E0678034206064
:1025C00000202875032005B0F0BDEFF31080012135
:1025D00081F3108821680B68FF22A13293430B60BE
:1025E00080F31088EFF31080012181F310882168B7
:1025F0008A68520852008A6080F310882020A06701
:10260000E067DDE72068C1690298884304D00020B4
:10261000B842A1D00020D6E70120F9E710B5024862
:10262000FEF7DAFF10BD000030060020024801214D
:1026300001700078704700003000002001207047D2
:1026400000207047024801210170007870470000A7
:1026500030000020002070470FB410B504A9074BCC
:1026600002AA039800F056F8044602A9002000F0E0
:102670008BFA204610BC08BC04B01847892B000810
:10268000F8B5040C8BB2264682B25E430D0C1046A0
:10269000370C5843360480190021794116466E43A1
:1026A000370C36048019794126466E438919F8BDE6
:1026B0008307FF22DB0E9A408907090E9940002804
:1026C00008DB830809489B001B18186890430843DF
:1026D000186070470007000F0838830804489B0003
:1026E0001B18D86990430843D861704700E400E0A4
:1026F00000ED00E002E008C8121F08C1002AFAD16C
:1027000070477047002001E001C1121F002AFBD171
:1027100070470000FFB591B00F460546002606E061
:1027200025280AD0149A139990476D1C761C287896
:102730000028F5D1304615B0F0BD002400940121E9
:10274000F34A029400E004436D1C2B780846203BBA
:1027500098401042F7D128782A280ED002222878F3
:1027600001463039092915D800990A2359433039CF
:10277000401814436D1C0090F1E701CF0090002831
:1027800005DA0120400304430098404200900220F3
:1027900004436D1C28782E2815D104200443687842
:1027A0006D1C2A280AD101CF6D1C02900BE0029902
:1027B0000A225143303940186D1C02902878014696
:1027C00030390929F3D928786C2810D006DC4C2838
:1027D0001AD068280ED06A2817D104E0742813D0C4
:1027E0007A2812D110E00120400504430CE00121B9
:1027F000090501E0032109050C436978814203D1F1
:102800000120000524186D1C6D1C28786E281ED030
:102810000CDC632831D004DC00288BD0582811D17F
:10282000B2E064287BD069280CD178E073282DD0E1
:1028300004DC6F2870D0702804D1A7E075286CD014
:1028400078286BD0149A13999047761C62E0600246
:10285000400F022807D003280AD0042838680AD07D
:1028600006603F1D56E03868F11706604160F8E7E2
:1028700038680680F5E70670F3E73878694608742B
:102880000020487404A80390012003E038680390F6
:102890000020C0433F1D61070FD5002101E00199D1
:1028A000491C029A0191914213DA8142F7DB019AA5
:1028B0000399895C0029F2D10BE0002101E0019924
:1028C000491C01918142FADB019A0399895C002934
:1028D000F5D101990098139A401A00902146149B53
:1028E00000F03CF901998019461807E00398039914
:1028F0000078491C0391149A139990470198401E3F
:102900000190401CF2D12146149B139A009800F0CC
:1029100015F986196D1C0AE741E033E034E00A201E
:102920000021049005916002410F022905D001CFDA
:10293000C2179446032905D007E0FF1DFF08FF00DA
:1029400003CF06E000B2C2179446042902D140B278
:10295000C1178C4600226146944506DA0A460021DA
:10296000404291418C462D2102E0210504D52B21C6
:102970006A461176012103E0E10701D02021F7E743
:10298000019155E00A200BE0102009E0102004908E
:1029900000210420044308200591029003E0082050
:1029A0000021059104906002410F022905D001CF5A
:1029B00000229446032906D006E0FF1DFF08FF0011
:1029C00003CF8C4603E080B2042900D1C0B20021BD
:1029D000019121072CD529780391702906D0049AFA
:1029E0001021059B4A401A4305D00EE040216A465B
:1029F0001176012108E06146014306D030216A4684
:102A000011760399517602210191049A0821059BC0
:102A10004A401A430CD16146014301D1610707D5F1
:102A200030216A461176012101910299491E0291D5
:102A30002978582904D037A103910FA90F910DE0EF
:102A400039A1F9E76146059B049AFDF761FB039BF9
:102A50008C469B5C0F9A521E0F9213706146014385
:102A6000F0D10F9807A9081A20300390600704D509
:102A7000012000048443029801E0012002900399A0
:102A8000884201DD401A00E00020411802900198C0
:102A900009180098401A0090E00306D42146149BC0
:102AA000139A009800F05AF886190020049008E064
:102AB00006A9085C149A139990470498401C761C48
:102AC000049001998842F3DBE0030CD52146149B66
:102AD000139A009800F042F8861904E0149A302006
:102AE00013999047761C0299481E02900029F5DC44
:102AF00008E00F980F990078491C0F91149A1399C8
:102B00009047761C0399481E03900029F1DCFAE6F1
:102B100009280100303132333435363738396162B3
:102B20006364656600000000303132333435363777
:102B3000383941424344454600000000F8B5044698
:102B400000251E461746880404D405E03946202097
:102B5000B0476D1C641EF9D52846F8BDFFB5044684
:102B6000002581B01E46C80301D5302700E020278C
:102B7000880404D505E038460399B0476D1C641EEF
:102B8000F9D5284605B0F0BD0A68531C0B601070DB
:102B900070470000FDF7C2FEFFF734FBFFF7F6F8C1
:102BA000FFF718F9FFF742F9FFF780F9FFF758F937
:102BB000FFF7DEF8FFF7C7F900F042F800F0E0F8A1
:102BC0001948172101702F2141702321817001467E
:102BD00000221648FEF7BEFA1548022181700B212B
:102BE00041701521C1701348FFF753F80128FAD03E
:102BF000114801210160114AC906116001682C22A7
:102C0000114301600924E406102500F0DDF90649AE
:102C100008487831FFF783F86069684060610B20ED
:102C2000FDF75EFBF1E7000090040020AC050020FA
:102C300019000020600500200038014000E100E09C
:102C4000FEB50927FF06012210213846FDF72CFCAE
:102C5000294900200870294D3020EE69E861284696
:102C6000FEF700FB012202213846FDF71DFC00247F
:102C7000FF20FFF7A5FA641CE4B20A2CF8D31F4822
:102C8000EE61FEF7EFFA002202213846FDF70CFC58
:102C900000214020FFF75CF9012801D00120FEBD92
:102CA000FF20FFF78DFAFF21AB314820FFF750F9E5
:102CB00001281ED1002402ADFFF7B5F92855641C88
:102CC000E4B2042CF8D36846C17A807A019100906E
:102CD0006846437A027A0AA11248FFF7BDFC114800
:102CE000FDF769FA82B201231B030E490E48FEF775
:102CF00027FE0020FEBD000018000020CC050020AB
:102D00004F43523A203078253032582030782530E1
:102D100032582030782530325820307825303258DB
:102D2000726E0000500400203006002030B580286C
:102D30000ED240290CD24D0701236D0FAB40C908BC
:102D4000054CC9010818215C012A02D0994321547D
:102D500030BD1943FBE700005000002010B50021F2
:102D6000064B01229202002805D0FF245C54491C26
:102D70009142F8D310BD0024F8E700005000002075
:102D800010B56420FDF7ACFA002000F06DF82020AB
:102D900000F0E0F8002000F0DDF8B02000F0DAF8F4
:102DA000C82000F0D7F8002000F0D4F8102000F080
:102DB000D1F8402000F0CEF8FF2000F045F8A12027
:102DC00000F0C8F8A62000F0C5F8A82000F0C2F86E
:102DD0003F2000F0BFF8A42000F0BCF8D32000F0A2
:102DE000B9F8002000F0B6F8D52000F0B3F8F020D4
:102DF00000F0B0F8D92000F0ADF8222000F0AAF8D9
:102E0000DA2000F0A7F8122000F0A4F8DB2000F090
:102E1000A1F8202000F09EF88D2000F09BF81420EF
:102E200000F098F8012000F01FF80020FFF796FF4F
:102E300000F02AF80348002101804180012101713E
:102E400010BD00000000002010B50446812000F0F5
:102E500081F8204600F07EF810BD0000014A108085
:102E6000518070470000002010B50649002802D0AC
:102E7000AF20012201E0AE2000224A7100F06AF882
:102E800010BD00000000002070B50B4D002420464E
:102E9000B030C0B200F05EF8002000F05BF8102007
:102EA00000F058F8E0014019802100F067F8641C38
:102EB000E4B2082CEBD370BD50000020FFB582B007
:102EC0000298203801905F280BD221486A46018879
:102ED000177BC919802904D84088567B801940285F
:102EE00002D9002006B0F0BD002526E00198049923
:102EF000704340194000085A002400901AE00098DE
:102F0000A040000408D51248059A81780078491934
:102F10000019C9B2C0B20AE00598002815D00022F5
:102F20000B488178007849190019C9B2C0B2FFF77F
:102F3000FDFE641CA742E2D86D1CAE42D6D8044800
:102F40000188C91901800298CCE70122E8E7000056
:102F50000000002001B584B000220121D24304A862
:102F60000B46029201910090002278210248FDF761
:102F7000F5FB05B000BD0000600500200EB5002285
:102F8000D24389B20292019100900123402278211C
:102F90000148FDF7E3FB0EBD60050020F0B51D46BE
:102FA0000E46174604460AE02B463A463146FFF7DE
:102FB00085FF2178884201D0C8B2F0BD641C20781A
:102FC0000028F1D1C0B2F0BD08B500221B491C4851
:102FD000FEF728F800221B491948FEF701F80020E7
:102FE000FFF7BCFE1548817800914378027816A15E
:102FF0001430FFF731FB25210020FFF72FFF164883
:10300000012306C80D481430FFF7C8FF0D48C178EA
:10301000009143788278094810A11430FFF71CFB17
:103020000A210020FFF71AFF1148012306C80348B0
:103030001430FFF7B3FFFFF727FF08BD900400200F
:10304000AC05002019000020253032643A253032CA
:10305000643A2530326400001000002025303264CC
:103060002E253032642E32302530326400000000CC
:103070000800002000000000000000000000000028
:103080000000000000000000000000000000000040
:1030900000000000000000000000000C000C000C0C
:1030A000000C000C000C000C000C000C000C000CC0
:1030B0000000000C000C0000000000000000001BDD
:1030C000001B001B001B001B000000000000000094
:1030D00000000000000000000000000000000000F0
:1030E00000008019801980198019C07FC07F801965
:1030F0000033C07FC07F0033003300330033000053
:10310000000000000000001E003F80758065007414
:10311000003C001E00078005806580658075003FCB
:10312000001E0004000400000000007000D840D819
:10313000C0D880D900730006000C801BC036C06662
:10314000C046C00680030000000000000000001E12
:10315000003F003300330033001E000CC03CC0664B
:10316000806380618063C03E801C0000000000001E
:103170000000000C000C000C000C000C0000000013
:10318000000000000000000000000000000000003F
:10319000000000008000000100030006000600049B
:1031A000000C000C000C000C000C000C00040006CD
:1031B0000006000300018000002000100018000C31
:1031C000000C0004000600060006000600060006CB
:1031D0000004000C000C0018001000200000000C7F
:1031E000002D003F001E0033000000000000000022
:1031F00000000000000000000000000000000000CF
:10320000000000000000000C000C000C000CC0FFCF
:10321000C0FF000C000C000C000C000000000000BF
:10322000000000000000000000000000000000009E
:103230000000000000000000000000000000000C82
:10324000000C000400040008000000000000000062
:1032500000000000000000000000001E001E000032
:10326000000000000000000000000000000000005E
:10327000000000000000000000000000000000004E
:10328000000000000000000C000C00000000000026
:10329000000000030003000300060006000600060D
:1032A000000C000C000C000C0018001800180000A6
:1032B000000000000000001E003F003380618061BC
:1032C0008061806D806D8061806180610033003F2E
:1032D000001E00000000000000000006000E001E9E
:1032E000003600260006000600060006000600065E
:1032F0000006000600060000000000000000001E9E
:10330000003F807380618061800100030006000C33
:10331000001800300060807F807F00000000000007
:103320000000001C003E006300630003000E000E5E
:1033300000038001800180618073003F001E000057
:103340000000000000000006000E000E001E001E1F
:103350000016003600360066807F807F000600067B
:1033600000060000000000000000007F007F0060F9
:1033700000600060006E007F8063800180018061DA
:103380008073003F001E0000000000000000001ECF
:10339000003F803380610060006E007F8073806139
:1033A000806180618033003F001E0000000000004B
:1033B0000000807F807F800100030003000600067C
:1033C000000C000C000C0008001800180018000089
:1033D000000000000000001E003F806380618061EB
:1033E0000021001E003F8061806180618061003F9C
:1033F000001E0000000000000000001E003F0073DF
:103400008061806180618073803F801D8001806168
:103410000073003F001E00000000000000000000DC
:10342000000000000000000C000C00000000000084
:10343000000000000000000C000C00000000000074
:10344000000000000000000000000000000C000C64
:1034500000000000000000000000000C000C000450
:10346000000400080000000000000000800080034D
:10347000000E003800600038000E8003800000005D
:10348000000000000000000000000000000000003C
:103490000000807F807F00000000807F807F000030
:1034A000000000000000000000000000000000001C
:1034B0000000000000400070001C000780010007B1
:1034C000001C007000400000000000000000000030
:1034D0000000001F803FC071C060C000C0018003B9
:1034E0000007000E000C000C0000000C000C000097
:1034F000000000000000001E003F803180718063EA
:10350000806F806D806D806F806700600032003E4C
:10351000001C00000000000000000000000000008F
:10352000000000000000000000000000000000009B
:10353000000000000000000000000000000000008B
:10354000000000000000000000000000E003E003B5
:10355000E003E003E003E003E003E003C003C00393
:10356000C001C001C001C001C00100000000000096
:10357000E003E003E00300000000000000000000A2
:103580003C1E3C1E3C1E3C1E3C1E3C1E3C1E0000C5
:10359000000000000000000000000000000000002B
:1035A000000000000000000000000000000000001B
:1035B00000000000CE01CE03DE039E039C039C07A7
:1035C000FF3FFF7F3807380F780F780F780EFFFF27
:1035D000FFFFF01EF01CE01CE03CE03DE039000085
:1035E0000000000000000000FC03FE0FEE1FE01EC4
:1035F000E01EE01EE01EE01FE00FE007F003FC010C
:10360000FE01FE01FE01FE01FE01FE01FE3DFC3F4A
:10361000F00FE001E001000000000000033E07F7AA
:103620008FE78EE79EE3BCE3B8E7F8E7F0F7E03F0B
:10363000C001FF03FF07F307F30FF31EF33CF3385A
:10364000F3787FF03FE00000000000000000000081
:10365000E007F80F780F781F781F781F780FF00FAA
:10366000E00F801FC37FC3FBE7F3F7F1F7F0FFF034
:103670007FF03EF87F7CFF3FEF1F0000000000005E
:1036800000000000E003E003E003E003E003C00308
:10369000C001000000000000000000000000000069
:1036A000000000000000000000000000000000001A
:1036B00000000000000000003F007C00F001E0017D
:1036C000C003C00780078007800F000F000F000FA6
:1036D000000F000F000F800F80078007C007C00396
:1036E000E001F0017C003F000F000000007E001FA1
:1036F000C007C003E001F001F000F000F80078001E
:1037000078007800780078007800F800F000F00089
:10371000F001E001C003C007001F007E0078000038
:10372000E003C003C001CE39FF3F7F3F2003700399
:10373000F807780F3C1F380600000000000000006A
:103740000000000000000000000000000000000079
:103750000000000000000000000000000000000069
:10376000C001C001C001C001C001C001C001FFFF14
:10377000FFFFC001C001C001C001C001C0010000C5
:103780000000000000000000000000000000000039
:103790000000000000000000000000000000000029
:1037A00000000000000000000000E003E003E00370
:1037B000E003E001E001E001C0018003000000003F
:1037C00000000000000000000000000000000000F9
:1037D0000000FE3FFE3F000000000000000000006F
:1037E00000000000000000000000000000000000D9
:1037F00000000000000000000000000000000000C9
:1038000000000000000000000000000000000000B8
:103810000000E003E003E003E0030000000000001C
:10382000000000000F000F001E001E003C003C00C6
:1038300078007800F000F000E001E001C003C00370
:1038400080078007000F000F001E001E003C003C98
:103850000078007800F00000F007F80F7C1F3E3E73
:103860001E3C1F7C1F7C0F780F780F780F780F7825
:103870000F780F781F7C1F7C1E3C3E3E7C1FF80F8C
:10388000F00700000000000000000000F000F0075A
:10389000F03FF03FF001F001F001F001F001F00124
:1038A000F001F001F001F001F001F001F001F00190
:1038B000F001FF3FFF3F000000000000000000009B
:1038C000E00FF83F7C3C3C003E003E003E003C00E8
:1038D0003C007C00F800F001E003C0078007000F07
:1038E000001E003E003CFE3FFE3F000000000000C6
:1038F00000000000F00FF81F7C1C3E003E003E0060
:103900003C003C00F800F00FF80F7C003E001E0069
:103910001E001E001E003E007C1CF81FE01F000061
:1039200000000000000000007800F800F800F80136
:10393000F803F807F807780F781E781E783C787837
:103940007878FFFFFFFF7800780078007800780033
:10395000780000000000000000000000FC1FFC1FB9
:10396000FC1F001E001E001E001E001EE01FF81F90
:10397000FC007C003E003E001E003E003E003C007D
:103980007C1CF81FE01F0000000000000000000089
:10399000FC01FE078E0F001F001E003E003C003C95
:1039A000F83DFC3F3E7F1F7E0F3C0F3C0F3C0F3C21
:1039B0000F3E1F1E3E1FFC0FF00300000000000022
:1039C00000000000FF3FFF3FFF3F0F001E001E00F2
:1039D0003C0038007800F000F000E001E001C00396
:1039E000C0038007800F800F000F001F001F000022
:1039F0000000000000000000F807FC0F3E1F1E1E24
:103A00001E3E1E3E1E1E3C1FF80FF007F80FFC1E48
:103A10003E3E1F3C1F7C0F7C0F7C1F3C3E3FFC1F2B
:103A2000F00700000000000000000000F007F80FA1
:103A30007C1E3E3C1E3C1F7C1F7C1F7C1F7C1F3C51
:103A40003F3EFF1FEF071F001E001E003E003C0010
:103A5000F838F03FE01F0000000000000000000008
:103A6000000000000000000000000000E003E00390
:103A7000E003E00300000000000000000000000080
:103A80000000E003E003E003E003000000000000AA
:103A90000000000000000000000000000000000026
:103AA000E003E003E003E00300000000000000008A
:103AB000000000000000E003E003E003E003E00199
:103AC000E001E001C00380030000000000000000EE
:103AD0000000000003000F003F00FC00F003C00FD7
:103AE000003F00FE003FC00FF003FC003F000F004E
:103AF00003000000000000000000000000000000C3
:103B000000000000000000000000000000000000B5
:103B1000FFFFFFFF000000000000FFFFFFFF0000AD
:103B20000000000000000000000000000000000095
:103B300000000000000000000000000000E000F8AD
:103B4000007E801FE007F8017E001F007E00F80164
:103B5000E007801F007E00F800E000000000000089
:103B600000000000F01FFC3F3E381F381F381E00C9
:103B70001E003C007800F000E001C003C003C00755
:103B8000C007000000000000C007C007C007000019
:103B90000000000000000000F803FE0F1E1F0F3E93
:103BA0007F3CFF78EF79C773C7F38FF38FF38FF301
:103BB0009FF39FF3FF73FF7BF779003C1C1FFC0F03
:103BC000F8030000000000000000000000000000FA
:103BD00000000000010203040607080900000000BD
:103BE00001020304043C0008000000205000000013
:103BF000F4260008543C000850000020700A000021
:103C00000427000800000000000000000B12000064
:103C100074300008101A0000183500080000000079
:103C2000000000000100000004000000000000008F
:103C300000127A00010000002D2600084526000829
:103C400041260008552600083D2600080000000017
:043C50000000000070
:04000005080000B13E
:00000001FF
