:020000040800F2
:10000000503B00204102000833310008B9290008A4
:10001000313100081F0A0008ED3C00080000000014
:10002000000000000000000000000000A90100081E
:10003000210A000800000000ED01000891370008C7
:100040005B0200085B0200085B0200085B0200081C
:100050005B0200085B0200085B0200085B0200080C
:100060005B0200085B0200085B0200085B020008FC
:100070005B0200085B0200085B0200085B020008EC
:100080005B0200085B0200085B0200085B020008DC
:100090005B0200085B0200085B0200085B020008CC
:1000A0005B020008413800085B0200085B020008A0
:1000B0004D3800085B0200085B0200085B02000884
:1000C0005B0200085B0200085B0200085B0200089C
:1000D0005B020008413B00085B0200085B0200086D
:1000E0005B0200085B0200085B02000800F002F8F7
:1000F00000F04BF80AA090E8000C82448344AAF177
:100100000107DA4501D100F040F8AFF2090EBAE874
:100110000F0013F0010F18BFFB1A43F0010318473B
:10012000EC5A00000C5B0000103A24BF78C878C17C
:10013000FAD8520724BF30C830C144BF04680C60ED
:10014000704700000023002400250026103A28BF35
:1001500078C1FBD8520728BF30C148BF0B60704739
:10016000642900F0F180732900F039830020704782
:100170001FB500F0F1FB04000020002104F0AEFFE9
:10018000401C60601FBD10B510BD00F0C0FB1146E3
:10019000FFF7EEFF03F053FF00F0F0FB03B4FFF7AF
:1001A000F2FF03BC00F034FC224B19680868B0E889
:1001B000F00F80F30988BFF36F8F4FF0000080F3DA
:1001C00011884EF00D0E70470000000006480068D0
:1001D000006880F3088862B661B6BFF34F8FBFF343
:1001E0006F8F00DF00BF00BF08ED00E0EFF3098074
:1001F000BFF36F8F0F4B1A6820E9F00F106008B53E
:100200004FF0500080F31188BFF34F8FBFF36F8F13
:1002100004F0C4FD4FF0000080F31188BDE80840F1
:1002200019680868B0E8F00F80F30988BFF36F8F92
:10023000704700BF58000020EFF3058070470000B2
:100240000948804709480047FEE7FEE7FEE7FEE76A
:10025000FEE7FEE7FEE7FEE7FEE7FEE704480549A6
:10026000054A064B704700003D380008ED000008C5
:1002700050350020503B00205037002050370020E0
:100280000FB41CB5074B06AA7B446946009005983D
:1002900000F07BFA0020694600F08AFA1CBC5DF889
:1002A00014FB00002505000070B504468569006850
:1002B000C10601D5302600E02026C00707D070BD5A
:1002C000D4E9012130469047206A401C20626D1E0F
:1002D000F6D570BD70B5044685690078C00707D1B2
:1002E00070BDD4E9012120209047206A401C206283
:1002F0006D1EF6D570BD70B50C460546012A05D0B9
:100300002878800600D5EA69002302E0012305E091
:100310005B1C934202D2E05C0028F9D1A869E61880
:10032000C01AA861286A184428622846FFF7BCFF53
:1003300004E0D5E9012114F8010B9047B442F8D349
:100340002846FFF7C7FF70BD2DE9F041064600249F
:1003500010687529314616A510D0AFF3008000282B
:1003600002DA404213A507E031688A0701D512A5D9
:1003700002E0490704D511A5012401E0AFF3008094
:1003800000210A2206F1240709E0B0FBF2FCB0FBD1
:10039000F2F302FB1C00303078541846491C002848
:1003A000F3D123462A463046BDE8F04100F08EB92D
:1003B000000000002D0000002B00000020000000C5
:1003C0002DE9F05F894604464FF0000ADFF824B1BA
:1003D000FB44C0F820A02046E168884700287DD073
:1003E000252806D0D4E901219047206A401C2062CC
:1003F000F1E700255F462046E16888472028064649
:1004000007DB312E05D2B81910F8200C08B10543CE
:10041000F1E7A80701D525F00405C4F81CA00027C2
:10042000C4F818A02A2E09D0304603F070FC38B367
:1004300004EB8708303EC8F8186019E059F8041B2F
:10044000204604EB87029161E1688847012F064648
:1004500018D1E069002820DA25F020051DE0D8F841
:10046000180000EB800006EB40003038C8F8180098
:100470002046E1688847064603F049FC0028EED193
:10048000012F0AD02E2E08D12046E16888477F1C14
:100490000646022F45F02005C4DBA069002803DAD8
:1004A000404245F00105A061E80701D025F01005A4
:1004B000A6B1A6F14100192802D8203645F40065FE
:1004C0004A463146204625604D46FFF749FE60B159
:1004D000012807D0ED1D25F0070000E007E000F13E
:1004E000080978E705F1040975E730467AE7206ADC
:1004F000BDE8F09F9857000070B5064600F0E2F89E
:100500000468054630460A22002100F06CF92C6090
:1005100070BD10B5431C02E010F8011B71B18107DA
:10052000FAD14FF0013202C88C1A8C4314EAC2117E
:10053000F9D0C01A0A0603D0C01E10BDC01A10BDE3
:100540000A0401D0801E10BD0902FCD0401E10BD5F
:1005500010B5203AC0F00B80B1E81850203AA0E85E
:100560001850B1E81850A0E81850BFF4F5AF5FEA92
:10057000027C24BFB1E81850A0E8185044BF18C945
:1005800018C0BDE810405FEA827C24BF51F8043BEC
:1005900040F8043B08BF7047D20728BF31F8023B40
:1005A00048BF11F8012B28BF20F8023B48BF00F8D4
:1005B000012B70474FF0000200B513469446964653
:1005C000203922BFA0E80C50A0E80C50B1F1200166
:1005D000BFF4F7AF090728BFA0E80C5048BF0CC014
:1005E0005DF804EB890028BF40F8042B08BF704772
:1005F00048BF20F8022B11F0804F18BF00F8012BE4
:100600007047000070B50C46016800204A1C3ED0BF
:100610003C22B1FBF2F302FB1313B1FBF2F12360B6
:10062000B1FBF2F302FB1313B1FBF2F1182263608A
:10063000B1FBF2F302FB1313B1FBF2F146F2E0322D
:100640000A440721A360B2FBF1F301FB132140F23E
:10065000B553B2FBF3F5A161B2FBF3F103FB152235
:100660008900B2F5B77F08D39B10521EB2FBF3F599
:100670002944B2FBF3F503FB15220F4BE2616161E4
:1006800089077B440CD03B2A0AD3521C08E02C215A
:100690002046FFF78FFF0120E0600AE0521A401C5D
:1006A000195C9142FAD9521CC4E903204FF0FF3083
:1006B0002062204670BD0000F7540000704770476C
:1006C0007047000000487047F03400202DE9F047E3
:1006D0000D4699469246044600F1240801688806B2
:1006E00004D5E06921F01001216000E00120A8425A
:1006F00001DD471B00E00027A1697A1902EB090020
:10070000081AA0612078C00602D42046FFF7CCFD6D
:10071000002608E0D4E901211AF806009047206A73
:10072000401C761C20624E45F4DB2078C0060AD5BA
:100730002046FFF7B9FD06E0D4E9012130209047BB
:10074000206A401C2062381EA7F10107F4DC07E094
:10075000D4E9012118F805009047206A401C206266
:10076000281EA5F10105F3DC2046FFF7B3FD207834
:10077000000602D50220BDE8F0870120FBE700005B
:1007800001694A1C02610878704700B58FB0CDE955
:1007900001310021059105497944CDE90310114645
:1007A0006846FFF70DFE0FB000BD0000E5FFFFFF3C
:1007B0000A6802F8010B0A60704710B5436913B16B
:1007C000AFF3008001E0FFF796FD012010BD127825
:1007D00000F124010A7000224A700122EDE711683D
:1007E0004FF0FF32E9E72DE9F04791460F4680468A
:1007F0000446002614F8015B2DB100F031F80068C2
:10080000405DC007F6D12B2D02D02D2D18D0641ECF
:100810004A463946204600F02BF827B13968A142F4
:1008200001D1C7F800804FF0020471050BD540429A
:10083000002803DDFFF746FF0460A007BDE8F0874E
:1008400046F48066E4E70028F8DAFFF73BFF04602F
:100850006FF00040F2E7000000487047F0340020DD
:1008600010B500F079F8001D10BD00BF7148000000
:100870002DE9F05F824615468B4600270AF10104F8
:10088000B9460078302801D09DB113E014F8010B6F
:100890000127782803D0582801D045B10AE00DB1CE
:1008A000102D07D1002714F8010B102502E00825B0
:1008B00000E00A250026B0460EE005FB080005FB17
:1008C00006F101271FFA80F801EB1046B6F5803FCC
:1008D00000D3B94614F8010B294600F041F800286E
:1008E000EBDABBF1000F05D00FB1641E00E05446F7
:1008F000CBF80040B9F1000F06D0FFF7E3FE02216C
:100900000160C81EBDE8F09F48EA0640FAE7754658
:10091000FFF7A2FFAE4605006946534620F00700E8
:10092000854618B020B5FFF799FCBDE820404FF090
:1009300000064FF000074FF000084FF0000B21F0C9
:100940000701AC46ACE8C009ACE8C009ACE8C00996
:10095000ACE8C0098D46704700487047103500204C
:100960003A2800D2303820F02002412A01D3A2F1E7
:100970003700884201D34FF0FF30704710B504466E
:10098000AFF300802046BDE81040FFF707BC000031
:100990004FF0013C50F8042B51F8043B9A4221D10E
:1009A000A2EB0C03934313EACC1317D150F8042B9A
:1009B00051F8043B9A4215D1A2EB0C03934313EA7E
:1009C000CC130BD150F8042B51F8043B9A4209D1B7
:1009D000A2EB0C03934313EACC13DBD04FF00000DF
:1009E000704700BFD01A01BAB1FA81F101F01801C5
:1009F00022FA01F0CB40C1F12001DBB2C0B2C01A33
:100A00002CFA01F3D11A914311EAC311E6D17047D0
:100A100001491820ABBEFEE7260002007047FEE742
:100A2000704772B6FEE710B590F821100022022937
:100A300005D00421816380F82020012010BD0168C9
:100A40000B6823F00E030B6001680B6823F00103B1
:100A50000B6090F84030C46B012101FA03F363602E
:100A600080F8211080F82020104610BD10B590F8B5
:100A700021100024022903D00421816301243DE0D8
:100A800001680A6822F00E020A6001680A6822F012
:100A900001020A601A4A0168914201D1012121E054
:100AA000174A1432914201D110211BE0144A283216
:100AB000914201D1891515E0114A3C32914201D190
:100AC00089140FE00E4A5032914202D14FF4803126
:100AD00008E00B4A6432914202D14FF4801101E0E8
:100AE0004FF08071064A083A5160012180F82110C8
:100AF000002180F82010416B01B18847204610BDCD
:100B00000800024070B5044600F004F90546601C78
:100B100002D004480078044400F0FCF8401BA042D6
:100B2000FAD370BD480000202DE9F84FDFF8B891E6
:100B3000002409F1040A0AF1040B23460F270BF1E4
:100B4000040EC9E00125A5402A40AA427DD1674E86
:100B5000D1F804C0ACEB0608B44532D014DCBCF1CB
:100B6000030F3AD009DCBCF1000F2AD0BCF1010F11
:100B70001CD0BCF1020F31D11DE0BCF1110F17D018
:100B8000BCF1120F2AD119E0B8F5881F19D006DC84
:100B9000B8F5803F15D0B8F5801F1FD111E0B8F52A
:100BA000001F0ED0B8F5041F18D10AE0CB6815E07D
:100BB000CB681B1D12E0CB6808330FE0CB680C3309
:100BC0000CE08B682BB1012B4FF0080303D045617B
:100BD00004E0042302E0056100E00023FF2A01D8BD
:100BE000064601E000F104064FEA840501D9A5F1AB
:100BF0002005D6F8008007FA05FC28EA0C0803FA5D
:100C000005F548EA0508C6F800804D68ED0062D594
:100C1000374DAE6946F00106AE61AD6924F00306BA
:100C200005F001050095334D06EB050CDCF8085086
:100C3000A607360F07FA06F825EA0805DFF8B88098
:100C4000404503D14FF0000817E044E0DFF8AC80E6
:100C5000404502D14FF001080FE0DFF8A480404585
:100C600002D14FF0020808E0DFF89880404502D139
:100C70004FF0030801E04FF0040808FA06F848EACC
:100C80000508CCF808804D68D9F80060ED034D46A2
:100C900001D5164300E096432E604D68DAF80060F7
:100CA000AD03554601D5164300E096432E604D68CE
:100CB000DBF80060ED025D4601D5164300E0964387
:100CC0002E604D68DEF80060AD02754601D5164312
:100CD00000E096432E60641C0D682A46E5407FF4D0
:100CE00031AFBDE8F88F0000000401400000111092
:100CF000001002400000014000080140000C0140CB
:100D000000100140001401400AB10161704709045C
:100D1000FBE70000014880687047000048000020A1
:100D200070B5040025D094F83D00002520B984F862
:100D30003C50204600F078FA242084F83D002068DA
:100D4000016821F0010101602068016841F400415F
:100D500001602068016821F40041016000F0E0FCBE
:100D60004D4A6168914201D84C4900E04C498842A3
:100D700001D2012070BD4B492368B0FBF1F15E68E0
:100D800026F03F060E435E606368934206D94FF437
:100D9000967359434FF47A73B1FBF3F12368491CFE
:100DA0001E6A26F03F06314319626168914210D8ED
:100DB0004900401EB0FBF1F2521CC2F30B02042AA0
:100DC00001D2042022E0B0FBF1F0401CC0F30B0084
:100DD0001CE0A268F2B301EBC10303EB0116431E52
:100DE000B3FBF6F35B1C43F480431B0549D092B37D
:100DF00001EBC10202EB0111401EB0FBF1F0401CFF
:100E0000C0F30B0040F4804040F400402168CA6900
:100E10004CF6FF739A431043C861D4E907100143AD
:100E20002068026822F0C00211430160D4E9030186
:100E300001432068826848F2FF339A43114381607E
:100E4000D4E9050108432168CA6822F0FF02104373
:100E5000C86001E00EE016E02068016841F0010181
:100E600001602564202084F83D00256384F83E500D
:100E7000002070BD01EB4106431EB3FBF6F35B1C83
:100E8000B3E70120C2E701EB4101401EB0FBF1F0E6
:100E9000401CC0F30B00B7E7A086010080841E0051
:100EA00000093D0040420F002DE9FF4F83B00025AF
:100EB000DDE910799A4693460446DDF848800095AE
:100EC000FFF728FF064694F83D0020287CD119231F
:100ED000012285492046009601F07EFE0028F5D1CA
:100EE00094F83C0001286FD0012084F83C00206871
:100EF0000168C90703D1016841F001010160206860
:100F0000016821F400610160222084F83D00402046
:100F100084F83E0025646762A4F82A90608D2085DD
:100F20007248E062CDE9008653465A46204604994D
:100F300001F05AFD00287DD1208DDFF8B4912027E3
:100F400068B1012814D00228206801681ED041F43D
:100F5000806101602068416980690090B6E0206886
:100F6000416981690091016841F400710160ADE05F
:100F70002068016821F48061016072B620684169CF
:100F800081690091016841F400710AE041F4006157
:100F9000016072B62068416981690091016821F49D
:100FA0008061016062B691E0032868D801280CD006
:100FB000022843464FF000024946204600960FD0D3
:100FC00001F00AFEB0BB10E08BE0324641462046FD
:100FD00001F081FE70BB20680069616A08706CE0F6
:100FE00001F0FAFD30BB72B634E02068016821F4EC
:100FF0008061016072B620680069616A0870606A89
:10100000401C6062208D401E2085608D401E6085E2
:10101000384846F2A8110068B0FBF1F0C0EBC00000
:1010200000EB80000090401E009008D020684069CE
:10103000C04300E029E040070CD50098F3E744F8EE
:10104000305F6773A573206940F02000206162B6AD
:1010500025731AE02068016841F40071016020687E
:101060000069616A0870606A401C6062218D491ED7
:101070002185618D491E618562B621681BE032467B
:101080004146204601F027FE18B1012007B0BDE817
:10109000F08F20680069616A0870606A401C6062B5
:1010A000218D491E2185618D491E618521684A690E
:1010B000D24352070AD409690170606A401C606219
:1010C000208D401E2085608D401E6085208D00286B
:1010D0007FF46AAF84F83D7084F83E5084F83C5049
:1010E000D4E70220D2E70000020010000000FFFF5A
:1010F00004000100540000202DE9FF4F83B09A4600
:10110000DDE9119793460446DDF84080FFF702FEC3
:10111000054694F83D0020287FD11923012240493B
:101120002046009501F058FD002876D194F83C0047
:10113000012872D0012084F83C0020680168C907AA
:1011400003D1016841F0010101602068016821F4C8
:1011500000610160212084F83D00402084F83E00B9
:1011600000262664C4F82480A4F82A90608D208587
:101170002C48E062CDE9007553465A462046049952
:1011800001F0B0FC70B930E02A463946204601F043
:10119000D5FD58B1206C042804D12068016841F4C1
:1011A00000710160012007B0BDE8F08F606A21681E
:1011B00000780861606A401C6062218D491E89B216
:1011C0002185628D521E628522685369DB435B076D
:1011D0000BD469B100781061606A401C6062208D98
:1011E000401E2085608D401E6085208D0028CBD15B
:1011F0002A463946204601F0C9FC0028CAD154F8D5
:101200003D0B016841F400710160202004F81E09C3
:10121000E67766770020C6E7FFE70220C3E7000015
:10122000020010000000FFFF10B586B00021009101
:1012300001910291039100680F4988421AD10F4C25
:10124000A06940F00800A061A069694600F00800AC
:101250000490C020009012200190032003900848C1
:10126000FFF762FCE06940F40010E061E06900F41F
:101270000010049006B010BD005400400010024061
:10128000000C014002488168027811448160704777
:1012900048000020074810B5016841F010010160C6
:1012A000032000F095F80F2000F006F800F03EF85B
:1012B000002010BD0020024000B5014687B000228A
:1012C000192000F065F8192000F054F813488169DE
:1012D00041F400618161806905A900F40060069015
:1012E000684600F0FDF900F02BFA0D490D4AB0FBFD
:1012F000F1F10D48491E0260416040F2E7320021E1
:10130000C0E90321816000F07DFF10B1012007B02A
:1013100000BD054800F0C0FFF9E7000000100240E2
:1013200040420F00002C0140502300200F4808B518
:10133000816941F001018161816901F00101009140
:10134000C16941F08051C161C069002200F0805044
:1013500000900F21901E00F01BF80548416821F015
:10136000E06141F00071416008BD000000100240E2
:1013700000000140002809DB00F01F02012191401C
:101380004009800000F1E020C0F800117047000023
:10139000F0B40E4B1B680C46C3F30223C3F10705E0
:1013A000042D00D90425191D072901D2002300E0CE
:1013B000DB1E012606FA05F1491E214099409E4098
:1013C000761E16403143F0BC02F091BC0CED00E0FB
:1013D000064900F0070208684FF6FF03184040EA8C
:1013E0000220034A10430860704700000CED00E043
:1013F0000000FA05014901200862704700000E4212
:1014000010B529A401461DCC86B08DE81D002AA088
:101410002A4C006804900020012923D002293AD0E8
:1014200010291DD161682268D20119D5C1F3834208
:10143000C9031DF8020009D5616804AAC1F340413F
:10144000515C1F4AB2FBF1F1484301E01D4948439A
:101450006168490204D440005FF00301B0FBF1F081
:1014600006B010BD226AC2F30121012903D19207FF
:1014700001D5C803F4E7022905D1626A920702D5B3
:1014800049F64040ECE70329EAD121688903E7D512
:101490004FF22440E4E700F053F96168C1F3813171
:1014A000491C4900DAE700000203040506070809A1
:1014B0000A0B0C0D0E0F101001020000001002406C
:1014C00000127A0000093D002DE9F8430546007836
:1014D000354CC00754D0E0690026C00008D4E0694C
:1014E00040F08050E061E069012600F080500090FB
:1014F0002E480168C90512D40168804641F4807104
:101500000160FFF707FC074605E000BFFFF702FC9C
:10151000C01B642823D8D8F80000C005F6D5206A7F
:1015200010F4407021D0A98801F4407181421CD090
:10153000206A1F49012220F440700A6000220A60DC
:101540002062C00711D0FFF7E5FB074641F288385B
:1015500008E000BFFFF7DEFBC11B414502D90320B5
:10156000BDE8F883206A8007F4D5206A696820F412
:101570004070084320621EB1E06920F08050E061B5
:101580002878800705D56068A96820F440400843A2
:1015900060602878C00605D56068E96820F480009E
:1015A000084360600020DBE700100240007000404C
:1015B000400442422DE9F0470F46050061D0434EFA
:1015C000306800F00700B84209D2306820F0070008
:1015D00038433060306800F00700B84251D12868C5
:1015E0003B4C810712D5400703D5606840F4E060AA
:1015F00060602878000703D5606840F46050606040
:101600006068A96820F0F000084360602878C0078F
:1016100028D06868012810D02168022810D08907D6
:1016200000292EDA616821F0030101436160FFF7B0
:1016300071FB804641F288390DE021688903EFE7AC
:101640008901EDE7FFF766FBA0EB0801494502D9E8
:101650000320BDE8F0876068696800F00C00B0EB1B
:10166000810FEFD1306800F00700B8420BD9306825
:1016700020F0070038433060306800F00700B842BF
:1016800001D00120E5E72878400705D56068E968C2
:1016900020F4E060084360602878000706D56068A1
:1016A000296920F4605040EAC100606000F058F8F9
:1016B0006168084AC1F30311515CC84006490860DB
:1016C00006480068FFF7F8FD0020C2E7002002404E
:1016D00000100240545B0008540000204C00002021
:1016E0000F2202600C4A536803F0030343605368FF
:1016F00003F0F0038360536803F4E063C36052684F
:101700004FF4E06303EAD20202610448006800F08B
:1017100007000860704700000010024000200240EF
:101720000448054900684968044AC1F30221515C34
:10173000C84070475400002000100240645B00085D
:101740000448054900684968044AC1F3C221515C54
:10175000C84070475400002000100240645B00083D
:1017600012A185B00FC98DE80F0014A0144A0068BB
:1017700004905168134801F00C03042B10D0082B7F
:101780000ED1C1F38343C9031DF803000AD5516884
:1017900004AAC1F34041515C0A4A5043B0FBF1F046
:1017A00005B0704708494843FAE700000203040502
:1017B000060708090A0B0C0D0E0F1010010200009D
:1017C0000010024000127A0000093D002DE9F84F98
:1017D000040070D02078C04DC00749D06868C0F3BD
:1017E0008100012807D06868C0F38100022809D170
:1017F0006868C00306D52868800339D5606800286A
:10180000E7D035E06068B0F5803F0BD010B1B0F59F
:10181000A02F11D0286820F480302860286820F498
:10182000802002E0286840F480302860606890B131
:10183000FFF770FA06460AE0286840F48020286026
:10184000F0E700BFFFF766FA801B642873D82868AA
:101850008003F7D50CE0FFF75DFA064605E000BF10
:10186000FFF758FA801B6428F0D828688003F7D463
:1018700020789A4E80074FF001094FF0000839D5C3
:10188000686810F00C0F07D06868C0F38100022868
:1018900009D16868C00306D42868800714D5206978
:1018A000012808D110E02069B0B1C6F80090FFF718
:1018B00031FA074605E00AE1FFF72CFAC01B0228BF
:1018C000C4D828688007F7D52868616920F0F80037
:1018D00040EAC10028600DE0C6F80080FFF71AFA60
:1018E000074604E0FFF716FAC01B022823D8286831
:1018F0008007F7D4207800072CD57948A169D9B1A1
:10190000C0F80090FFF706FA074604E0FFF702FA76
:10191000C01B02280FD8686A8007F7D571484FF4BA
:10192000FA510068B0FBF1F0009000BF0098411E32
:101930000091FAD20EE080E0C0F80080FFF7EAF9EB
:10194000074604E0FFF7E6F9C01B022875D8686A6D
:101950008007F7D42078400760D5E8690027C000E9
:1019600008D4E86940F08050E861E869012700F098
:10197000805000905C480168C90513D40168834613
:1019800041F480710160FFF7C5F9824606E000BFAF
:10199000FFF7C0F9A0EB0A0064284ED8DBF800007E
:1019A000C005F5D5E06801280AD008B1052813D094
:1019B000286A20F001002862286A20F0040002E072
:1019C000286A40F001002862E06841F2883B98B143
:1019D000FFF7A0F982460BE0286A40F00400286275
:1019E000EEE700BFFFF796F9A0EB0A0159455AD878
:1019F000286A8007F6D50CE0FFF78CF9824605E0EF
:101A0000FFF788F9A0EB0A0159454CD8286A8007EE
:101A1000F6D41FB1E86920F08050E861E06988B32E
:101A20006968C1F38101022944D00228C6F86080A8
:101A300004D0FFF76FF9044638E034E0FFF76AF9A5
:101A4000074604E0FFF766F9C01B02282BD8286878
:101A50008001F7D4206AB0F5803F05D16868A1689D
:101A600020F4003008436860D4E90801084369683D
:101A700021F4741108436860C6F86090FFF74AF9D2
:101A8000044606E025E000BFFFF744F9001B0228EA
:101A900009D828688001F7D51BE000BFFFF73AF9A5
:101AA000001B022802D90320BDE8F88F28688001B6
:101AB000F4D40EE00128F7D06868226A00F480317F
:101AC000914204D1616A00F47010884201D0012073
:101AD000EAE70020E8E70000001002400000424270
:101AE000800442425400002000700040F8B5050018
:101AF0004FF0000016460C46009006D02CB1002294
:101B00006946284600F019F808B10120F8BD287B85
:101B10002070E87BE070697B6170A97BA17056B191
:101B200001F011FBE070607801F00DFB6070A078AF
:101B300001F009FBA0700020F8BD2DE9F0479146A7
:101B40000C465FEA00084AD084B3D8F80000406829
:101B5000400744D4404601F095FB4FF461620546CE
:101B6000B0FBF2F1B0FBF2F302FB13503C23B0FBED
:101B7000F3F0B5FBF2F6607002FB1650B0FBF3F227
:101B800003FB1200A070182931D31820B1FBF0F725
:101B9000B1FBF0F200FB12102070404601F06BFB2D
:101BA000411C04D0A84202D9461B02E017E04FF0C6
:101BB000FF36A7EB071000EB4000C0EB001005EB71
:101BC000C0152946404601F0ACFB40B9701C01D05D
:101BD000711900E03146404601F08FFB10B1012041
:101BE000BDE8F0873946404601F0B8FA00E02170C0
:101BF000B9F1000F0BD0207801F0A5FA20706078C1
:101C000001F0A1FA6070A07801F09DFAA0700020A8
:101C1000E6E7000070B5040003D0607C002610B138
:101C200005E0012070BD2674204600F043F8022034
:101C30006074204600F010F9042578BB204601F0BE
:101C4000E4FA58BB2068416821F007014160A068B0
:101C500020B11748016821F0010101601448001FFC
:101C60000168A26821F46071114301606068411C41
:101C700004D10120FFF7C4FB80B1401E21688A68AF
:101C800022F00F0242EA10428A602168CA6860F3BB
:101C90000F02CA60204601F0D3FA08B16574C0E7AC
:101CA000E67301206073A0736074002070BD0000B3
:101CB000306C004008B50068084988420DD1FFF734
:101CC00099FB0748C16941F00061C161C0690549DC
:101CD00000F0006000900120086008BD002800406E
:101CE000001002403C0442422DE9F0410D46040040
:101CF0003BD0C5B3207C01283AD04FF0010884F8CE
:101D0000108002206074E87872B301F013FAE07377
:101D1000687801F00FFA6073A87801F00BFAA073ED
:101D2000C2B2617BE07B01F0BDFA207328702046CF
:101D300001F0A8FA4FF46161B0FBF1F10025182918
:101D40002DD91822B1FBF2F1A1EB011101EB4101F8
:101D5000C1EB011100EBC1163146204601F0E1FA5A
:101D60000427C8B90BE000E004E00120BDE8F081E1
:101D70000220FBE7E07368786073A878CFE720461D
:101D800001F079FA411C0AD0B04208D20649014458
:101D9000204601F0B2FA10B167742574E5E784F8C3
:101DA000118025740020E1E7805101002DE9F04108
:101DB0000D46040024D01DB3207C012823D04FF011
:101DC000010884F81080022060742878EAB101F0DC
:101DD000B1F94FF4616100FB01F6687801F0AAF9EE
:101DE000C0EB001006EB8006A87801F0A3F93518C7
:101DF0002946204601F095FA0026042710BB0FE083
:101E00000120BDE8F0810220FBE74FF46161484307
:101E10006978C1EB011100EB8100A9784518E7E76B
:101E20002068416821F005014160204601F023FA55
:101E3000411C0AD0A84208D206490144204601F0BC
:101E40005CFA10B167742674DAE784F8118026749E
:101E50000020D6E78051010070B504000AD0206848
:101E6000416821F008014160FEF754FF05464FF438
:101E70007A7608E0012070BDFEF74CFF401BB042AF
:101E800001D9032070BD206840680007F4D5002008
:101E900070BD70B5040009D0606A002540B12561AD
:101EA0006561A56294F8510040B10CE0012070BD5D
:101EB0006068B0F5827FF4D0E561F2E784F85050B5
:101EC000204600F03FF8022084F8510020680168A5
:101ED00021F040010160A088218900F4827001F4A2
:101EE00004410843A18901F400610843217C01F009
:101EF00002010843217D01F001010843218B01F417
:101F000000710843217F01F03801084394F8201044
:101F100001F080010843218D01F40051084321683C
:101F20000860A069042101EA104021684860206827
:101F3000C16921F40061C1616565012084F8510027
:101F4000002070BD30B585B0002400940194029447
:101F5000039400681449884224D11448816941F4EB
:101F600080518161816901F480510491816941F05E
:101F70000401816180690E4D00F004000490A020EE
:101F80000090022001900320039069462846FEF746
:101F9000CBFD4020CDE9000401200290694628468F
:101FA000FEF7C2FD05B030BD003001400010024018
:101FB000000801402DE9F84F044690F85000002732
:101FC0000A9E1D4692468B464FF0010901280ED00D
:101FD000012084F85000FEF79DFE804694F85100E1
:101FE000616801280CD0B1F5827F07D102E00220A0
:101FF000BDE8F88FA16809B9042801D00227C2E022
:10200000BBF1000F27D0BAF1000F24D01DB394F814
:102010005100042802D0052084F85100002060659A
:10202000C4F838A0E587A587C4F830B0E586A58652
:102030002064606420680168490603D4016841F0A7
:1020400040010160E068B0F5006F606805D0E8B35A
:10205000012D46D07FE0012795E008B1012D39D14F
:10206000206B21680088C860206B801C2063E08E94
:10207000401EE0862EE02068816889070FD5E18E3A
:1020800069B1B9F1010F0AD1216B0988C160206BD8
:10209000801C2063E08E401EE0864FF0000920681F
:1020A0008168C9070CD0E18F51B1C068A16B08806D
:1020B000A06B801CA063E08F401EE0874FF00109F9
:1020C000FEF728FEA0EB0800B04200E009E001D3D3
:1020D000701C50D1E08E0028CDD1E08F0028CAD1ED
:1020E0003FE0206B216800780873206B401C206360
:1020F000E08E401EE0862EE02068816889070FD5BB
:10210000E18E69B1B9F1010F0AD1216B0978017330
:10211000206B401C2063E08E401EE0864FF00009DB
:1021200020688168C9070CD0E18F51B1C068A16BEC
:102130000870A06B401CA063E08F401EE0874FF04A
:102140000109FEF7E7FDA0EB0800B04202D3701CC6
:1021500001D010E07EB1E08E0028CDD1E08F0028C4
:10216000CAD142463146204601F072FA28B1012711
:102170002020606507E0032705E0A06818B9206803
:10218000C16880680090012084F85100002084F824
:10219000500038462CE770477047000070B590F843
:1021A0003C20012A26D0012480F83C40022280F8FD
:1021B0003D2003685A689D6822F070060A68324321
:1021C0005A600D4B02689A4208D0B2F1804F05D098
:1021D0000A4B9A4202D00A4B9A4204D1496825F030
:1021E00080031943916080F83D40002180F83C1045
:1021F000084670BD022070BD002C01400004004064
:102200000008004010B5040003D094F83D0010B160
:1022100007E0012010BD002084F83C00204600F0BB
:102220001FF8022084F83D00211D206801F014FBF6
:10223000012084F8460084F83E0084F83F0084F8CA
:10224000400084F8410084F8420084F8430084F898
:10225000440084F8450084F83D00002010BD0000D3
:1022600008B50068B0F1804F12D10A48C16941F049
:102270000101C161C069002200F001000090052148
:102280001C20FFF785F8BDE808401C20FFF772B856
:1022900008BD00000010024090F83D10012901D057
:1022A00001207047022180F83D100168CA6842F0A1
:1022B0000102CA6000680B49884208D0B0F1804F23
:1022C00005D00949884202D00849884204D1816872
:1022D00001F00701062903D0016841F00101016006
:1022E00000207047002C014000040040000800401E
:1022F00070B5044690F83C00012817D0012584F8F9
:102300003C50022084F83D002068826822F0770269
:1023100022F47F4282600868502830D00DDC2028EB
:102320004DD005DC98B310283BD148E0022070BDA9
:10233000302844D0402834D139E0602828D0702893
:1023400006D0B0F5805F2CD0B0F5005F29D10AE04F
:10235000CB68D1E90121206801F0B4FA20688168D6
:1023600041F0770109E0CB68D1E90121206801F053
:10237000A9FA2068816841F48041816011E0CA684F
:102380004968206801F0B0FA5021206807E016E0A3
:10239000CA684968206801F0B8FA6021206801F035
:1023A0009BFA84F83D50002084F83C0070BDCA6858
:1023B0004968206801F098FA40212068EFE7226818
:1023C00001461046EBE7704770B5044600680169A6
:1023D0004FF00005C943890715D4C168C94389076F
:1023E00011D4E91E016101202077206880698007EF
:1023F000204602D0FFF7E7FF04E000F098F82046FF
:1024000000F096F8257720680169C943490717D479
:10241000C168C943490713D46FF004010161022068
:1024200020772068806910F4407F204602D0FFF7B3
:10243000CAFF04E000F07BF8204600F079F8257729
:1024400020680169C943090716D4C168C94309074F
:1024500012D46FF008010161042020772068C06960
:102460008007204602D0FFF7AEFF04E000F05FF8DF
:10247000204600F05DF8257720680169C943C90648
:1024800017D4C168C943C90613D46FF010010161A4
:10249000082020772068C06910F4407F204602D0D1
:1024A000FFF791FF04E000F042F8204600F040F80A
:1024B000257720680169C943C90708D1C168C943A4
:1024C000C90704D1891E0161204600F033F8206855
:1024D0000169C943090609D4C168C943090605D47D
:1024E0006FF0800101612046FFF755FE2068016909
:1024F000C943490609D4C168C943490605D46FF0E8
:1025000040010161204600F01FF820680169C943BD
:1025100089060BD4C168C943890607D46FF020012E
:1025200001612046BDE87040FFF736BE70BD7047C0
:102530007047000000680349884201D1FEF7A2BE3F
:1025400070470000002C0140704770477047000042
:10255000F8B5026804461068D168536910F00F0F8F
:102560004FF0000553D003F0010601F49077374394
:102570005FD0C20705D0CA0503D5226C42F0010224
:102580002264420705D5DA0703D0226C42F002022A
:102590002264820705D5DA0703D0226C42F00402D8
:1025A0002264020707D501F02002324303D0226CD7
:1025B00042F008022264226C002A34D0800604D53E
:1025C000880602D5204601F0D2F920684069216CC6
:1025D000C0F38010090700D430B3204601F0AFF9F2
:1025E0002068416949061BD5416921F040014161DC
:1025F000A06BA8B158494163A06BFEF737FA0028D9
:1026000011D0A06B416B01B0BDE8F04008478306D4
:102610000FD58B060DD52046BDE8F84001F0A7B9CF
:102620002046FFF793FFF8BD2046FFF78FFF256494
:10263000F8BD266B2023012E52D1C60650D5CE06FA
:102640004ED5106850680090506940062AD5A16B9D
:10265000086840680004000CEAD0A68D8642E7D9DD
:10266000E0858869202818D0D06820F48070D06078
:102670002068416921F0010141612068416921F030
:102680004001416184F83E3025632068C16821F033
:102690001001C160A06BFEF7C6F9A08DE18D401A54
:1026A00081B219E0A08DE18D401A81B2E08D002841
:1026B000BED00029BCD0D06820F49070D0602068D3
:1026C000426922F00102426184F83E3025632068AD
:1026D000C26822F01002C2602046FFF736FFF8BD44
:1026E00005062BD50D0629D594F83D002128F6D1F5
:1026F000A068B0F5805F01D12069B0B1206A411CAB
:102700002162216800784860E08C401E0004000CC3
:10271000E084E4D12068C16821F08001C1602068B4
:10272000C16841F04001C160F8BD206A0088C0F373
:1027300008005060206A801C2062E5E74006F3D55F
:102740004806F1D5D168204621F04001D16084F8D7
:102750003D3000F030F9F8BD2F39000870B50400A5
:1027600004D094F83D00002510B106E0012070BDB2
:1027700084F83C50204600F023F8242084F83D00E3
:102780002068C16821F40051C160204601F04AF977
:102790002068016921F4904101612068416921F0BC
:1027A0002A0141612068C16841F40051C16025647B
:1027B000202084F83D0084F83E00002070BD000019
:1027C00030B585B00024009401940294039400680D
:1027D000184988422CD11848816941F480418161AF
:1027E000816901F480410491816941F004018161B2
:1027F0008069124D00F0040004904FF400700090C6
:10280000022001900320039069462846FEF78CF9C8
:102810002815CDE90004694628460294FEF784F99C
:10282000002205212520FEF7B3FD2520FEF7A2FD9D
:1028300005B030BD003801400010024000080140E2
:102840002DE9F84F044690F83E009A4616460D468C
:10285000202853D1FDB1F6B194F83C0001284DD0A9
:10286000012084F83C0000272764222084F83E00E1
:102870002763FEF74FFAA6858146E685A0684FF4E8
:102880008058404501D1206940B12E465FF00005D7
:1028900084F83C7027E00120BDE8F88F0026F7E7B8
:1028A0004B46002220212046CDF800A001F016F969
:1028B00008B10320F0E726B1A06840451BD038B12D
:1028C00008E020684068C0F3080025F8020B07E024
:1028D000206980B12068406800F07F0006F8010B95
:1028E000E08D401EE085E08D0028D9D1202084F8BD
:1028F0003E000020D0E720684068EFE70220CBE7E9
:10290000704700002DE9F843044690F83D001F464B
:1029100016460D4620284CD1C5B1BEB194F83C00F6
:10292000012846D0012084F83C004FF00008C4F88C
:102930004080212084F83D00FEF7ECF9A684814612
:10294000E684A068B0F5805F03D004E00120BDE814
:10295000F883206928B12E465FF0000584F83C809A
:102960000EE00026FAE78021204601F0B7F8A0B972
:10297000AEB116F8010B21684860E08C401EE0847F
:10298000E08C4B464FF0000200970028EBD14FF04F
:102990004001204601F0A2F830B10320D7E735F816
:1029A000020BC0F30800E6E7202084F83D00002079
:1029B000CDE70220CBE77047FEE701684A69D243C2
:1029C00052050FD46FF480624A61002140F8301F35
:1029D000202242738173026942F004020261017392
:1029E00001207047002070472DE9F84F0446006829
:1029F00089460B9D01689846174641F48061016045
:102A00002068016841F48071016000954FF0011B5E
:102A10000022594620460A9B00F0DEF84FF4007A67
:102A200040B120680068C00501D5C4F840A003206B
:102A3000BDE8F88F216809F0FE0008612B4628499F
:102A400020460A9A00F0FCF8F0BB206841698069D2
:102A500000902A4620460A9900F070F940B1206C97
:102A600004283AD12068016841F40071016034E023
:102A7000FEB2B8F1010F09D02168380A08612A4670
:102A800020460A9900F05AF90028E8D1206806612A
:102A90002A4620460A9900F051F90028DFD1206823
:102AA000016841F48071016000950022594620467A
:102AB0000A9B00F091F80028B3D1216809F0FF00CB
:102AC00040F00100086100E007E02B460449204681
:102AD0000A9A00F0B5F80028AAD00120A8E7000063
:102AE000020001002DE9F843044600680D46DDE9C7
:102AF000089701689846164641F4807101604B467C
:102B000000224FF001112046009700F065F848B10F
:102B100020680068C00502D54FF4007020640320CF
:102B2000BDE8F883216805F0FE0008613B464A468F
:102B30001549204600F084F888B920684169806909
:102B400000903A464946204600F0F8F848B1206C1B
:102B5000042804D12068016841F40071016001205B
:102B6000DEE7F5B2B8F1010F09D02168300A08613B
:102B70003A464946204600F0E1F80028E7D12068AF
:102B800005610020CCE700000200010070B5164688
:102B90000D4604460DE02046FFF70FFF08B1012067
:102BA00070BD681C05D0FEF7B5F8801BA84207D899
:102BB00035B120684069C0434007ECD4002070BDA7
:102BC000002044F8300F20216173A073216941F087
:102BD000200121612073E2E72DE9F0471E4690466F
:102BE0000D460446C1F30747DDF8209008E0701C4D
:102BF00006D0FEF78FF8A0EB0900B0420FD876B1EF
:102C00002068012F18D0806925EA00000004000C1C
:102C100014D000214145EAD00020BDE8F087002013
:102C200044F8300F20216173A073216941F0200125
:102C3000216120730120F0E74069E5E70121E9E720
:102C40002DE9F0479A4691460E46044600254FF07E
:102C50002008C1F3074725E020684069C0434005CC
:102C600014D42068016841F40071016021686FF498
:102C700080604861256384F83D8084F83E50206C74
:102C800040F00400206484F83C501FE0B9F1FF3F9D
:102C900008D0FEF73FF8A0EB0A0149450CD8B9F17E
:102CA000000F09D02068012F13D0806926EA0000A8
:102CB0000004000C0BD0CFE744F8305F84F80D809F
:102CC000A573206940F02000206125730120BDE834
:102CD000F0874069EAE72DE9F041002590460E466D
:102CE0000446202717E04069C043C0060CD454F8BE
:102CF000301B6FF01000486144F810596777A577D2
:102D0000206A2062257717E0FEF704F8A0EB0800A0
:102D1000B04208D83EB120684169C9434906E2D4AF
:102D20000020BDE8F08144F8305F6773A573206927
:102D300040F02000206125730120F2E770B51646AF
:102D40000D4604460DE02046FFF737FE08B101208E
:102D500070BD681C05D0FDF7DDFF801BA84207D8B9
:102D600035B120684069C0430006ECD4002070BD36
:102D7000002044F8300F20216173A073216941F0D5
:102D8000200121612073E2E72DE9F04186B0804601
:102D9000012504A8CDE9000564242B467522D02125
:102DA00002944046FEF780F89DF81000682803D092
:102DB000012006B0BDE8F081002703AE8DF80C704D
:102DC0000096CDE9015401236B22D0214046FEF745
:102DD00093F907208DF80C000096CDE901540123EA
:102DE0001922D0214046FEF787F98DF80C70009625
:102DF000CDE9015401231C22D0214046FEF77CF985
:102E00008DF80C700096CDE9015401231B22D021CE
:102E10004046FEF771F90020CBE710B586B00C46AE
:102E20006423062203A98DE80E0001233B22D02152
:102E3000FEF73AF8BDF80C0040BA2080BDF80E004D
:102E400040BA6080BDF8100040BAA08006B010BD46
:102E500010B5A4B01C221C496846FDF779FB00217F
:102E6000684601F03FF9194C17491C2260601C317B
:102E700007A8FDF76DFB002107A801F033F91249FF
:102E8000A0601C2238310EA8FDF762FB00210EA8BD
:102E900001F028F90C49E0601C22543115A8FDF717
:102EA00057FB002115A801F01DF9074920611C22DC
:102EB00070311CA8FDF74CFB00211CA801F012F991
:102EC000606124B010BD0000C85A00082C0000202A
:102ED0002DE9F04385B000242E480094019402941B
:102EE0000394816941F020018161816901F0200131
:102EF0000491816941F004018161816901F004015B
:102F00000491816941F0080181618069DFF888805E
:102F100000F008000490002241F610014046FDF741
:102F2000F3FEDFF878904FF40077002239464846E8
:102F3000FDF7EAFE01251020CDE90005694640466F
:102F4000CDE90245FDF7F0FD28028DE83100694624
:102F50004046FDF7E9FDE802009001AA1120022693
:102F600082E8510069464046FDF7DEFD2803CDE9C1
:102F70000005CDE9024669464046FDF7D5FD0097BC
:102F80000396CDE9015469464846FDF7CDFD05B0ED
:102F9000BDE8F0830010024000080140000C014031
:102FA0000D4810B50B4901600C49416000214FF4F8
:102FB00080428160C0E9031241618161C1610162A7
:102FC000FDF7AEFE002803D0BDE81040FDF729BD97
:102FD00010BD0000005400403C210020801A060073
:102FE0001CB5002418480194164900940160611E24
:102FF00041604FF440718160FEF70CFE08B1FDF7AF
:1030000010FD8DF804408DF805408DF80640012232
:1030100001A90D48FEF7CAFE08B1FDF702FD012027
:103020008DF800008DF801008DF8020002468DF841
:10303000034069460448FEF757FE002801D0FDF71B
:10304000F0FC1CBD0028004090210020104810B565
:103050000E4901604FF48271416000218160C160BE
:103060004FF400720161C0E905120822C0E907218E
:10307000416281620A21C162FEF70BFF002803D082
:10308000BDE81040FDF7CDBC10BD00000030014090
:10309000A421002010B586B00024164800940194A5
:1030A0000294039404944FF080410594016041F62A
:1030B0001F41C0E90114C721C0E903148461FFF76F
:1030C000A1F808B1FDF7ADFC4FF4805000906946BF
:1030D0000848FFF70DF908B1FDF7A3FC049404A913
:1030E00004480594FFF75AF8002801D0FDF799FC31
:1030F00006B010BDFC2100200C4810B50A49016043
:103100004FF416414160002181600C22C160C0E98A
:1031100004128161C161FFF721FB002803D0BDE8E3
:103120001040FDF77EBC10BD003801404422002055
:10313000FEE7FEE7010901EB810100F00F0000EB63
:103140004100C0B27047002102E00A38C0B2491CF9
:103150000A28FAD2090740EA116070472DE9F041C8
:1031600004460025C07B627BA37B42E0012A16D087
:10317000032A14D0052A12D0072A10D0082A0ED00C
:103180000A2A0CD00C2A0AD0042A10D0062A0ED003
:10319000092A0CD00B2A0AD0022A0DD028E01F2BB6
:1031A0000CD30C2A05D101221346401C20E01E2B13
:1031B00004D30123521C1BE01C2B02D203F1010398
:1031C00016E011D183B29E0710D16426B3FBF6F747
:1031D00006FB173636B94FF4C876B3FBF6F706FB95
:1031E00017331BB91D2303E01D2B01D1032201233B
:1031F0006D1C8D42BAD3D1B2E0736173DAB2A2739F
:1032000000F050F82073BDE8F08170B50446FDF77A
:1032100081FD05464FF47A7606E0FDF77BFD401B05
:10322000B04201D9032070BD206840688006F4D503
:103230002068416841F010014160002070BD00002D
:1032400070B504460068416821F010014160FDF747
:1032500061FD05464FF47A7607E000BFFDF75AFDA1
:10326000401BB04201D9032070BD20684068800631
:10327000F4D5002070BD0168086A496A89B241EA44
:1032800000407047006881698AB2C1698BB2816968
:1032900089B28A4203D0C06961F31F40704743EA94
:1032A00002407047F0B56424C1EBC1030927A500B3
:1032B000072603EB01130329B3FBF7F100F5FA60CE
:1032C000114401440AD2401EB0FBF4F201EB90011C
:1032D000B0FBF5F0891A0844001D08E0B0FBF4F2D9
:1032E00001EB9001B0FBF5F0891A0844801CB0FB9B
:1032F000F6F106FB1100C0B2F0BD70B50D460646F2
:103300000024FFF782FF48B93168280C0862316851
:10331000A8B248623046FFF793FF00B1012420466F
:1033200070BD70B50D4606460024FFF76EFF48B924
:103330003168280C88613168A8B2C8613046FFF74F
:103340007FFF00B10124204670BD2DE9F041064603
:103350001546512000F05EF878B9FF2000F0E8F93A
:1033600000244FF6FF7700F083F9641CA4B2FE2816
:1033700001D0BC42F7D3BC4202D30520BDE8F081A6
:1033800000244FF4007700F073F9AC4201D82146D5
:1033900000E02946641CA4B27054BC42F3D3FF2061
:1033A00000F0C6F9FF2000F0C3F90020E6E770B591
:1033B00006461546582000F02DF830BBFF2000F0DF
:1033C000B7F9FE2000F0B4F9002404E0305D00F00D
:1033D000AFF9641CA4B2AC42F8D3FF2000F0A8F906
:1033E000FF2000F0A5F900F043F9052181430CD13D
:1033F00000244FF6FF7500F03BF9641CA4B2FF28CF
:1034000001D0AC42F7D3AC4201D3062070BD0020FE
:1034100070BD000070B504460D46000607D504F0E7
:103420007F0400217720FFF7F5FF012836D81C4ED6
:10343000012210213046FDF767FCFF2000F078F9EB
:10344000002210213046FDF75FFCFF2000F070F9EC
:10345000204600F06DF9280E00F06AF9C5F3074028
:1034600000F066F9C5F3072000F062F9E8B200F059
:103470005FF90120402C02D0482C02D002E09520B8
:1034800000E0872000F054F95FF00A0400F0F0F843
:10349000010603D5641E14F0FF04F7D170BD0000CF
:1034A00000080140642000F011FEFBE75B4DDFF8EF
:1034B00070814FF0010A4FF4007B4FF0000959482A
:1034C00001780029FBD080F8009040785C4680F0BD
:1034D0000106002005F80090401C80B2A042F9D3FC
:1034E000514F4E4957F8360001F0F6F807EBC60089
:1034F000062180882871000A687101204B4A40F239
:10350000F7235E4302EB860700EB400207EB420322
:10351000401C33F8062D6A54160A6A18891D567025
:103520005E889670360AD6709B8813711B0AC0B2EB
:10353000537189B25528E7D33D4EA34622463168E0
:103540003648491C3160FFF732FFD8F80000C0054B
:103550000ED5BAF1000F0BD06423042235A13748F1
:10356000FFF7D0F964235A462C493448FFF7CAF9CB
:103570005420002100F155041AE000BF00EB400385
:1035800037F813206A544FEA122C6A18891D82F802
:1035900001C007EB430C89B2BCF8023093701B0AE0
:1035A000D370BCF8043013711B0A401C537180B2F5
:1035B000A042E3D331685A46491C18483160FFF7EE
:1035C000F6FED8F80000C00508D5BAF1000F05D006
:1035D00064235A4611491948FFF794F9A0B2B0F58F
:1035E000D47FC6D916493068884202D94846C6F801
:1035F000009001461348006801F04EF8D8F800002A
:10360000C0057FF55CAFBAF1000F3FF458AF6423FB
:1036100004220DA10948FFF775F950E7801C00202E
:10362000080801402C000020801E0020C804002053
:1036300028000020414141410000000044220020B8
:1036400000EFE700240000205A5A5A5A00000000F8
:1036500038B50B46009204460022802100F00CF899
:10366000002804D0606D40F020006065032038BD64
:10367000FF2000F05DB800002DE9F8431E4691469A
:1036800088460446089DFDF745FB401B351AFDF7AB
:1036900041FB074625480068C0F3CB30684338E05B
:1036A000701C37D0FDF736FBC01BA84203D215B102
:1036B000009860B32CE02068416821F0E00141608F
:1036C0006068B0F5827F0BD1A068B0F5004F02D0E2
:1036D000B0F5806F04D12068016821F040010160DD
:1036E000A06AB0F5005F09D12068016821F400519B
:1036F00001602068016841F400510160012084F8F4
:103700005100002084F850000320BDE8F883002514
:10371000401E00902068816838EA010004D0002132
:103720004945BDD10020F0E70121F9E75400002010
:1037300001B582B000208DF804004FF48050009055
:10374000012301AA02A90648FEF734FC28B1002291
:103750004FF480710348FDF7D7FA9DF804000EBDC1
:10376000A4210020000C0140074D084C2868C0052A
:10377000206802D540F4007001E020F40070206061
:10378000012000F0A3FCF1E7080801400C0C014007
:1037900010B5502080F31188BFF34F8FBFF36F8FA8
:1037A00001F0D6FB18B104494FF0805008600020AA
:1037B00080F3118810BD000004ED00E070B594B0F6
:1037C00028216846FCF7F6FE14210AA8FCF7F2FE51
:1037D00000250F9509200124109500901195129550
:1037E0004FF4803004940694CDE901050226CDE91A
:1037F00007604FF4E01009906846FDF7E7FF08B155
:1038000072B6FEE70F20CDE90A064FF48060CDE9DD
:103810000C5002210AA80E95FDF7CCFE08B172B635
:10382000FEE74FF40070CDE90F400FA8FDF74CFE06
:10383000002801D072B6FEE714B070BD70470000DA
:103840000148FEF7C1BD0000502300200148FEF7EB
:10385000BBBD0000FC210020F0B50268164B174CE0
:10386000174D4FF08047984205D0B84203D0A04290
:1038700001D0A84203D122F070064A683243984230
:1038800005D0B84203D0A04201D0A84203D122F40F
:103890004074CA6822434C6922F0800222430260CD
:1038A0008A68C2620A688262984201D1096901632A
:1038B00001214161F0BD0000002C014000040040E6
:1038C0000008004010B5846842EA032224F47F44D3
:1038D0000A432243826010BD826822F070020A43CC
:1038E00042F007018160704710B5036A046A24F052
:1038F00001040462846924F0F00444EA021423F011
:103900000A020A438461026210BD10B5036A23F003
:10391000100303628369046A23F4704343EA0232AA
:1039200024F0A00343EA01118261016210BD10B5C9
:10393000406A0021C185C184FEF708FE10BD016800
:10394000CA6822F49072CA6001684A6922F00102D2
:103950004A61016B012904D10168CA6822F0100292
:10396000CA60202180F83E1000210163704708B52D
:1039700090F83E10222901D0022008BD82684FF441
:1039800080539A4201D1016921B1816A9A421BD0C8
:103990004AB10AE00268816A5268C2F308020A80EA
:1039A000816A891C08E0026972B10268526802F0FB
:1039B0007F020A70816A491C8162C18D491E090417
:1039C000090CC18503D019E002685268F1E701686B
:1039D000CA6822F02002CA600168CA6822F48072B4
:1039E000CA6001684A6922F001024A61202180F818
:1039F0003E10016B012903D0FEF782FF002008BDB5
:103A0000002101630168CA6822F01002CA600168DF
:103A10000A68D20602D50A6849680091818DFEF7CE
:103A200094FDEBE770B5044600680169E26821F493
:103A30004051114301612169A0680843616908434D
:103A40002168CA6841F20C639A430243CA60206845
:103A50004169A26921F44071114341611E49206806
:103A6000884202D1FDF76CFE01E0FDF759FE00EB44
:103A7000C00101EB0012606864218000B2FBF0F32A
:103A8000B3FBF1F36FF018067343B2FBF0F5B2FB32
:103A9000F0F605EB8305322303EB0515B5FBF1F5D5
:103AA000B6FBF1F605F0F00505EB0615B2FBF0F6F6
:103AB000B2FBF0F0B0FBF1F06FF01802504306EBF0
:103AC000800003EB0010B0FBF1F0216800F00F0064
:103AD0002844886070BD0000003801402DE9F041A5
:103AE000984617460E460446069D1DE0681C1BD0EE
:103AF0002DB1FDF70FF9A0EB0800A84214D92068FA
:103B0000C16821F4D071C1602068416921F00101D0
:103B10004161202084F83D0084F83E00002084F8B4
:103B20003C000320BDE8F0812068006836EA000010
:103B300004D00020B842D9D00020F3E70120F9E7F3
:103B400070B586B06348FEF703FD62480068C1683F
:103B500041F02001C16060480068800674D55E486D
:103B6000001D00685E4C5D4DC2B221780026182908
:103B70006A5418D3681810F8183C742B13D110F835
:103B8000173C692B0FD110F8163C6D2B0BD110F898
:103B9000153C652B07D110F8143C3D2B03D110F8D0
:103BA000023C3B2B06D0022903D9412A4DD05A2A88
:103BB00059D085E0A0F11605E81CFCF79DFC8DF8B6
:103BC0001600A81DFCF798FC8DF8150005F10900FA
:103BD000FCF792FC8DF8170005F10C00FCF78CFC4B
:103BE0008DF8100005F10F00FCF786FC8DF8110030
:103BF00005F11500FCF780FC8DF81200002205A9E4
:103C00003848FEF771F8002204A93648FEF7CEF8CE
:103C10009DF817009DF812309DF811209DF81010A6
:103C20008DE80F009DF815309DF816202E492B4881
:103C3000FCF726FB2948FCF76CFC82B26423274979
:103C40002448FEF75FFE3AE041E0681810F8011CD6
:103C5000412935D110F8021C412931D110F8030C4B
:103C600041282CD02CE0681810F8012C5A2A27D1B2
:103C700010F8022C5A2A23D110F8030C5A281FD10D
:103C800008291CD12B79EA78A978687800F0C8F95E
:103C90006A4601A900F03CFF1048FCF73AFC82B2EA
:103CA00064230E490B48FEF72DFE002201A90D48A2
:103CB000FEF71AF8002269460A48FEF777F82670E0
:103CC0002078401CC0B22070962800D9267006B01B
:103CD00070BD0000442200200038014088220020EE
:103CE0004400002090210020B45B0008FEE7090793
:103CF000090E002804DB00F1E02080F80014704772
:103D000000F00F0000F1E02080F8141D70473038FB
:103D10000A2801D201207047002070471CB50027F7
:103D2000DFF8B480DFF8B4902D4E2E4C3D464FF4B2
:103D3000FD7A00222C492D48FDF7D8FE00222849A3
:103D40002A48FDF7FAFE1A35B078ADB2B84201D074
:103D50000746002520492648FFF75FF8627840F2C1
:103D6000F7214A43618809EB820201EB4103B8F86D
:103D700000C022F813C002EB4302B8F802C0A2F858
:103D800002C0B8F804009080491C88B26080504599
:103D90001DD300206080B1787078CDE90001124811
:103DA0003378C2784178807802F5FA6200F0F8F84A
:103DB000094A6178103A42F8310002EBC10085806F
:103DC00081F001000B496070012008702070142000
:103DD00000F07CF9ADE70000901E0020C804002030
:103DE000030000202C00002006000020902100206D
:103DF0003C210020020000202DE9F04FA3B048A094
:103E000000F03AF9782247496846FCF7A1FB464C96
:103E1000206820F400602060206840F4805020601A
:103E20004FF4FA7B5846FCF76DFE206840F40060C2
:103E300020600025DFF8F4806F464FF4967AA9469B
:103E4000C5EB051007EB40063046FCF762FB82B27B
:103E5000314664233648FEF755FD14211EA8FCF7B1
:103E6000A9FB534614221EA93148FEF7E9FC31A0F4
:103E700000F002F99DF878004F2803D19DF87900F1
:103E80004B2806D0D8F8001021F40071C8F80010B3
:103E9000D6E78DF878908DF87990D8F800004646EE
:103EA00040F40070C8F800006420FCF72BFE306876
:103EB00020F4007030606D1CEDB2042DC0D320687A
:103EC00020F400602060206820F480502060584674
:103ED000FCF718FE206840F4006020601448164982
:103EE0004C4601604FF4E131C0E901190C21C0F8E2
:103EF0000C90C0E90491C0F81890C0F81C90FEF72F
:103F00002DFC0E492020C1F800010B480C3001683F
:103F100041F02001016023B02046BDE8F08F000091
:103F200032000000505A00080C0801400C0C0140FF
:103F3000442200202E0000000038014004E000E090
:103F40007FB500250095019502950F222946684608
:103F50000395FFF7FAF99DF80000104C522806D09F
:103F6000284665600146A56000F096FB7FBD9DF880
:103F700001309DF802209DF803109DF8040000F028
:103F80004FF860609DF805309DF806209DF80710F9
:103F90009DF8080000F044F8A0607FBD20000020DC
:103FA000F0B5C1F10E040C2794FBF7F4E4B2121B38
:103FB00004EB440401EB8401C91E89B201EB011139
:103FC00001EBC1010524891CB1FBF4F102F5965205
:103FD000014492B240F26D1000FB02106421B2FB6A
:103FE000F1F100EB9200401A4FF4C871B2FBF1F10D
:103FF0000844A0F53A40B938084980B24843DDE9A1
:104000000556C3EB4311C1EB032100EB0110C5EBD7
:10401000051100EB81003044F0BD0000805101002B
:10402000000640EA014040EA0220184370474FF47E
:10403000C87400F0A7FC204600F048F8F9E7FDF747
:1040400029F9FFF7BBFBFEF743FFFEF7FFFFFFF782
:1040500053F8FEF7A5FFFEF7C3FFFFF71BF800F0CC
:10406000F7FCFEF7F5FE00F038F8FEE70146002009
:10407000842900D0C81C704770B50646007800251A
:10408000104C2E2805D0002000F048FB25700A2097
:1040900060706178207800F0BFFB0B480123D0E905
:1040A0000012304600F058FC00F0C8FB20780B30BE
:1040B000C0B22070792803D3257060781230607008
:1040C00070BD0000200000201000002010B500B9D5
:1040D000012000F0FFFD002010BD10B500F020FE13
:1040E000002010BD7FB50D4604464169B0F90800B7
:1040F00081B1A16971B1FFF7B9FFD4E905128DE86B
:104100000700D4E900102B46226900F0F6FE039068
:1041100004B070BDFFF7AAFF03A9CDE90001208A12
:104120002B4682B2D4E9001000F0BAFE012801D07B
:104130000020EDE70398EBE72DE9F041184C0F461E
:10414000054666692068001D00F000FD38B920684A
:1041500090F82C1001208840A1698143A161681C5E
:1041600007D137B12168BDE8F0410E48091D00F0C4
:1041700031BD20683544B5424560216805D2A0684C
:10418000BDE8F041091D00F00DBD6068091D00F09B
:1041900009FD206B854200D22563BDE8F081000057
:1041A00058000020742400202DE9F041054600F05D
:1041B0001DFD2E4C2069401C206120682C4F10B141
:1041C000E06940B32DE025602069012829D100264F
:1041D00006EB860007EB800000F0D6FC761C072E6D
:1041E000F6D323488C3000F0CFFC2148A03000F0FB
:1041F000CBFC1F48B43000F0C7FC1D48C83000F0AD
:10420000C3FC1B48DC3000F0BFFC19488C306060F8
:104210001430A06005E02068E96AC06A884200D8CE
:104220002560E06A401CE062E96A0120A2698840DA
:104230001043A06101EB810007EB8000291D00F015
:10424000C9FC00F0F3FCE06900280CD02068E96AA2
:10425000C06A884207D207494FF080500860BFF318
:104260004F8FBFF36F8FBDE8F08100005800002032
:104270009823002004ED00E010B5044690F85100AA
:1042800058B101280CD002280FD0502080F311889B
:10429000BFF34F8FBFF36F8FFEE7206B00F0DAFCA8
:1042A0002046BDE8104000F0D5BC10BD0F4841F2DB
:1042B0006801420705D0C01D0C4A20F00700821A91
:1042C000891A0B4A00230144C2E900030839103A55
:1042D00021F0070111604B600B600B1AC0E900135D
:1042E00093604FF000405360D060704788240020F6
:1042F000A4000020144E154CA6F1C8074FF08058BA
:10430000DFF84C9012E000BF00F070FCF068C56868
:10431000281D00F01BFC2069401E2061E068401E43
:10432000E06000F083FC2846FFF7A6FFE068002865
:10433000EAD138680128F9D9C9F80080BFF34F8F56
:10434000BFF36F8FF2E700006024002058000020C8
:1043500004ED00E02DE9F0479A46DDE90984814645
:104360006FF00303206B03EB82021044089D20F0E2
:104370000706700707D0502080F31188BFF34F8FD6
:10438000BFF36F8FFEE723180A5C83F834200A5CC2
:1043900012B1401C1028F6D3002784F84370072D73
:1043A00000D30625E562C4E91157201D00F0F7FB94
:1043B00004F1180000F0F3FB2461C5F1070064620A
:1043C000A061E76484F8507052464946304600F0D8
:1043D000BFF82060B8F1000F01D0C8F80040BDE878
:1043E000F087000030B5114900E011460A688242AA
:1043F000FBD34B685C18844203D140681844486082
:10440000084643681C18944209D1084C103C2468A3
:10441000A24209D052681A4442600A6812680260D7
:10442000814200D0086030BD0460F9E7A40000209C
:1044300006484168096829B14168C968C96849687E
:10444000016370474FF0FF31FAE700005800002089
:1044500008484068401C4FF0500080F3118804D099
:10446000BFF34F8FBFF36F8FFEE7BFF34F8FBFF3E5
:104470006F8FFEE7AC0000202DE9F04105460027D4
:1044800000F084FC314E306808B9FFF70FFFF06888
:1044900005424BD1C5B3083568070ED005F00700BB
:1044A000C0F108000544680707D0502080F3118848
:1044B000BFF34F8FBFF36F8FFEE72DB37068854258
:1044C00034D82248103001460C6801E020460C46E2
:1044D0006168A94202D221680029F7D131688C4273
:1044E00024D007682168016060680837411B1029E3
:1044F0000FD96019420708D0502080F31188BFF30C
:104500004F8FBFF36F8FFEE710E041606560FFF7EC
:1045100069FF61687068401A7060B268904200D2AA
:10452000B060F06801430020C4E9000100F074FDB0
:10453000780707D0502080F31188BFF34F8FBFF367
:104540006F8FFEE73846BDE8F08100009400002040
:1045500010B5031F4FF080741C601B1F21F0010178
:104560001960191F024B0B60143940380A6010BDE6
:1045700051440008F8B56420FCF7C4FA0122110286
:104580004248FCF7C1FB424D00262E70414F0122EC
:1045900010213846FCF7B8FB0024FF20FFF7C8F8CD
:1045A000641CE4B20A2CF8D3002210213846FCF730
:1045B000ABFB00214020FEF72DFF012801D0012098
:1045C000F8BDFF20FFF7B4F84FF4D5714820FEF78F
:1045D00021FF012809D00021E920FEF71BFF012857
:1045E0003AD802202870E92739E000244FEA0D0666
:1045F000FFF73EF83055641CE4B2042CF8D39DF864
:10460000020001283FD19DF80300AA283BD142F6C1
:10461000E064470702E0641E24B2A4B33946E920EF
:10462000FEF7F8FE0028F6D16CB300217A20FEF7E1
:10463000F1FE40BB5FF00004FFF71AF83055641C30
:10464000E4B2042CF8D39DF80000400601D50C20FC
:1046500000E00420287016E001202870412746F26F
:10466000A81402E0641E24B264B100213846FEF7AB
:10467000D1FE0028F6D12CB14FF400715020FEF786
:10468000C9FE00B12E700020F8BD0000000C0140F2
:104690000000002000080140F0B5ADF5017D0E4698
:1046A00005464FF4007421466846FBF783FF52200D
:1046B0008DF800000DF101010F46284600F00CF8BE
:1046C000391D304600F008F8224600216846FEF702
:1046D0006EFE0DF5017DF0BD0022D30020FA03F33C
:1046E0008B54521C92B2042AF7D3704730B58028FD
:1046F0000ED240290CD2012401F00705AC40064B34
:10470000C90800EBC110012A195C02D0A143195459
:1047100030BD2143FBE70000C200002010B5064A6F
:1047200000214FF4806328B1FF245454491C99425E
:10473000F9D310BD0024F8E7C200002010B56420B2
:10474000FCF7E0F9002000F06DF8202000F0E2F81E
:10475000002000F0DFF8B02000F0DCF8C82000F006
:10476000D9F8002000F0D6F8102000F0D3F840204F
:1047700000F0D0F8FF2000F045F8A12000F0CAF8C2
:10478000A62000F0C7F8A82000F0C4F83F2000F0F1
:10479000C1F8A42000F0BEF8D32000F0BBF8002040
:1047A00000F0B8F8D52000F0B5F8F02000F0B2F82D
:1047B000D92000F0AFF8222000F0ACF8DA2000F0A9
:1047C000A9F8122000F0A6F8DB2000F0A3F82020C2
:1047D00000F0A0F88D2000F09DF8142000F09AF869
:1047E000012000F01FF80020FFF798FF00F026F8E6
:1047F00003480021018041800121017110BD0000AA
:104800000A00002010B50446812000F083F82046FD
:10481000BDE8104000F07EB8014A1080518070471A
:104820000A000020044910B1AF20012201E0AE20AF
:1048300000224A7100F06EB80A00002070B50C4DDD
:10484000002400BF04F1B000C0B200F063F8002003
:1048500000F060F8102000F05DF805EBC410802136
:1048600000F06AF8641CE4B2082CEBD370BD0000C1
:10487000C20000202DE9FF4F93460098A0F1200AC6
:10488000BAF15F0F0CD22248CEB202883244802A9D
:1048900006D881464088C1F307273844402803D909
:1048A000002004B0BDE8F08F002525E00AFB075189
:1048B00000243BF811801CE008FA04F0000409D53C
:1048C00099F8021099F8000029442044C9B2C0B2F6
:1048D000039A0BE00398C0B15FF0000299F8021050
:1048E00099F8000029442044C9B2C0B2FFF7FEFE87
:1048F000641CA642E0D86D1CAF42D7D8B9F80010AE
:104900003144A9F800100098CBE70122E6E7000047
:104910000A00002001B584B001214FF0FF3204A845
:104920008DE807000B46002278210248FCF7E4FBE3
:1049300005B000BD3C2100200EB54FF0FF3289B21A
:104940008DE807000123402278210248FCF7D4FBC0
:104950000EBD00003C210020F0B51D460E46174656
:1049600004460AE02B463A463146FFF783FF21789A
:10497000884201D0C8B2F0BD641C20780028F1D173
:10498000C0B2F0BD1CB5002221492248FDF7D5F880
:104990001F490022C91C1F48FDF7A8F80020FFF797
:1049A000BDFE1B4881780091437802781AA11E4809
:1049B000FBF766FC25210020FFF72EFF1B48012393
:1049C000D0E900121848FFF7C7FF114C641E207889
:1049D00001281BD016A20E48C01CC178CDE90012D8
:1049E0004378827813A11048FBF74AFC0A21002083
:1049F000FFF712FF14480123D0E900120A48FFF71D
:104A0000ABFFFFF71BFF002020701CBD0FA2E2E7E9
:104A10000300002090210020253032643A253032F6
:104A2000643A253032640000B800002018000020ED
:104A300000000000253032642E253032642E3230E2
:104A4000253032642573000010000020270000008C
:104A500010B5FFF773FE25A000E025A0FFF70CFBC3
:104A60002448FEF791F90128F7D0FFF7C5F922A0F5
:104A700000E01FA0FFF700FBFFF77CFD0028F8D146
:104A80001EA16FF02F03D1E90001A0F1300202EB6B
:104A9000820203EB420202EB1024000E3038194A66
:104AA00000EB800003EB4000147008445070080CC9
:104AB0000B0E303800EB8000D52101EB400018448C
:104AC000907000220F491048FDF770F90F4802213D
:104AD000002281700B2141701521C17001460A48E6
:104AE000FDF702F9BDE81040FFF72ABA31000000D7
:104AF0002E0000003C2100203300000030323A3408
:104B0000383A3532030000209021002006000020B2
:104B100030B58DB00D460B90144669460BA8FBF7D7
:104B200071FD0398A8700498401C68700598642172
:104B3000C0B2B0FBF1F201FB1200E87002982070E5
:104B4000019860700098A0700DB030BDD0E90132BE
:104B500001699A60D0E901235A604A68824201D112
:104B600082684A60002202610868401E0860086886
:104B700070470000034B036003F15400086080207D
:104B800010607047E81E002000F108014FF0FF326E
:104B9000C0E90112C160016100210160704700217C
:104BA0000161704730B50B685A1C02D000F1080251
:104BB00002E0026904E02246546825689D42FAD961
:104BC00053684B6099608A60516008610168491CB4
:104BD000016030BD42684A6093688B609368596099
:104BE000916008610168491C01607047502080F3A2
:104BF0001188BFF34F8FBFF36F8F0A494868401C7D
:104C0000486001280CD10848006810F0FF0F07D059
:104C1000502080F31188BFF34F8FBFF36F8FFEE7F3
:104C200070470000AC00002004ED00E0084948682F
:104C300028B1401E486001D180F311887047502090
:104C400080F31188BFF34F8FBFF36F8FFEE7000033
:104C5000AC00002070B5002827D0144DA0F1080446
:104C60006168E868014207D1502080F31188BFF3E2
:104C70004F8FBFF36F8FFEE722683AB1502080F369
:104C80001188BFF34F8FBFF36F8FFEE781436160E1
:104C900000F07CF860686968084468602046FFF7A7
:104CA000A1FBBDE8704000F0B7B970BD94000020D2
:104CB0004FF0E02000210161816105494FF47A72D3
:104CC0000968B1FBF2F1491E41610721016170479A
:104CD0005400002010B5020014D00F48806B38B18A
:104CE000502080F31188BFF34F8FBFF36F8FFEE723
:104CF00000F04CF800211046FFF71EFA00F08CF986
:104D0000002807D105494FF080500860BFF34F8F4E
:104D1000BFF36F8F10BD00005800002004ED00E0CD
:104D200010B586B00024039405AA04A903A804942E
:104D3000FFF720FFDDE903010094CDE90110002316
:104D40000EA11048059A00F0D8F80F4900284863D2
:104D500011D0502080F31188BFF34F8FBFF36F8FB6
:104D60004FF0FF3008630120C8614C6106B0BDE818
:104D7000104000F041B806B010BD000049444C4559
:104D800000000000F5420008580000200248816B36
:104D9000491C816370470000580000201448816B53
:104DA00011B1012141627047002141628169B1FA6C
:104DB00081F1C1F11F0101EB81020E4951F822304E
:104DC0006BB101EB820101F108034A6852684A6045
:104DD0009A4201D152684A60D16801607047502000
:104DE00080F31188BFF34F8FBFF36F8FFEE7000092
:104DF00058000020982300201CB52649087801900F
:104E0000FF20087008788DF800009DF800009DF8DC
:104E1000002000F0F000904207D0502080F311886D
:104E2000BFF34F8FBFF36F8FFEE79DF800001A4B63
:104E300000F0500018700720986005E09DF80020F1
:104E400052008DF80020401E9DF800201206F5D477
:104E50009860032807D0502080F31188BFF34F8F4C
:104E6000BFF36F8FFEE74FF44070986001980870B1
:104E70000A48016841F470010160016841F0704125
:104E80000160FFF715FF00205860FBF79FF9002035
:104E90001CBD000000E400E0AC00002020ED00E0BC
:104EA0002DE9FF5F8346DDE90E87994616468A465F
:104EB0009000FFF7E1FA05001CD05420FFF7DCFA60
:104EC000040014D00020256384F85100CDE902408D
:104ED000CDE900874B46324651465846FFF73AFA2D
:104EE0002046FFF761F9012004B0BDE8F09F284695
:104EF000FFF7B0FE4FF0FF30F6E7F0B585B0DDE923
:104F00000B640A9DA6B1DCB15427009726630226E4
:104F100084F85160002604AFCDE90246CDE9005780
:104F2000FFF718FA2046FFF73FF9049805B0F0BDE7
:104F3000502080F31188BFF34F8FBFF36F8FFEE7D0
:104F4000502080F31188BFF34F8FBFF36F8FFEE7C0
:104F50002DE9F0412E4C0027A06B40B1206A401C87
:104F60002062606A00B101273846BDE8F0816669B9
:104F7000761C666113D16068006838B1502080F3F8
:104F80001188BFF34F8FBFF36F8FFEE76068A16892
:104F90006160A060A06A401CA062FFF749FA206B24
:104FA000DFF87080864209D36068006880B160686D
:104FB000C068C568686886420DD220632068C06AF0
:104FC00000EB800158F821000128CAD90127C8E761
:104FD0004FF0FF30F1E7281DFFF7B8FDA86A18B1C0
:104FE00005F11800FFF7B2FDE86A0121A2698140CE
:104FF0001143A16100EB800108EB8100291DFFF73F
:10500000E9FDE86A2168C96A8842CDD30127CBE768
:1050100058000020982300202DE9F0472C4D002453
:105020002746A86B38B1FFF7E1FDA86B401EA863C7
:10503000A86B40B146E0502080F31188BFF34F8F3A
:10504000BFF36F8FFEE72969224E0120D1B3A6F18D
:10505000B40980463068E8B1F068C46804F118000B
:10506000FFF774FD201DFFF771FDE06AAA6908FAD9
:1050700000F11143A96100EB800109EB8100211DC2
:10508000FFF7A8FDE06A2968C96A8842E2D3C5F83B
:105090002480DFE70CB1FFF7CBF92C6A44B1464618
:1050A000FFF756FF00B16E62641EF9D1002028623E
:1050B000686A38B10849012738070860BFF34F8F85
:1050C000BFF36F8FFFF7B2FD3846BDE8F0870000F1
:1050D000580000204C24002004ED00E010B5002909
:1050E0000AD00878002807D005487844FBF750FC20
:1050F000002801D0002010BD0248784410BD0000F7
:10510000420B00003A0B000000000000000000000D
:10511000000000000000000000000000000000008F
:105120000000000000000000000000000000000C73
:10513000000C000C000C000C000C000C000C000C0F
:10514000000C000C0000000C000C0000000000002F
:105150000000001B001B001B001B001B00000000C8
:10516000000000000000000000000000000000003F
:105170000000000000008019801980198019C07F8C
:10518000C07F80190033C07FC07F003300330033FD
:1051900000330000000000000000001E003F80758A
:1051A00080650074003C001E0007800580658065F6
:1051B0008075003F001E0004000400000000007025
:1051C00000D840D8C0D880D900730006000C801BDE
:1051D000C036C066C046C006800300000000000064
:1051E0000000001E003F003300330033001E000C9F
:1051F000C03CC066806380618063C03E801C00004C
:10520000000000000000000C000C000C000C000C62
:10521000000000000000000000000000000000008E
:1052200000000000000000008000000100030006F4
:1052300000060004000C000C000C000C000C000C1C
:10524000000400060006000300018000002000109A
:105250000018000C000C0004000600060006000602
:10526000000600060004000C000C001800100020CE
:105270000000000C002D003F001E00330000000065
:10528000000000000000000000000000000000001E
:1052900000000000000000000000000C000C000CEA
:1052A000000CC0FFC0FF000C000C000C000C000044
:1052B00000000000000000000000000000000000EE
:1052C00000000000000000000000000000000000DE
:1052D0000000000C000C00040004000800000000A6
:1052E0000000000000000000000000000000001EA0
:1052F000001E000000000000000000000000000090
:10530000000000000000000000000000000000009D
:1053100000000000000000000000000C000C000075
:105320000000000000000003000300030006000668
:1053300000060006000C000C000C000C0018001801
:1053400000180000000000000000001E003F0033B5
:10535000806180618061806D806D8061806180612D
:105360000033003F001E00000000000000000006A7
:10537000000E001E0036002600060006000600068D
:1053800000060006000600060006000000000000FF
:105390000000001E003F8073806180618001000377
:1053A0000006000C001800300060807F807F000045
:1053B000000000000000001C003E006300630003CA
:1053C000000E000E00038001800180618073003FA9
:1053D000001E00000000000000000006000E000E8D
:1053E000001E001E0016003600360066807F807F9B
:1053F0000006000600060000000000000000007F1C
:10540000007F006000600060006E007F80638001AC
:10541000800180618073003F001E000000000000DA
:105420000000001E003F803380610060006E007F3E
:1054300080738061806180618033003F001E0000C6
:10544000000000000000807F807F800100030003D7
:1054500000060006000C000C000C000800180018E4
:1054600000180000000000000000001E003F8063E4
:10547000806180610021001E003F80618061806149
:105480008061003F001E0000000000000000001EC0
:10549000003F00738061806180618073803F801D68
:1054A000800180610073003F001E000000000000CA
:1054B00000000000000000000000000C000C0000D4
:1054C00000000000000000000000000C000C0000C4
:1054D00000000000000000000000000000000000CC
:1054E00000000000000000000000000000000000BC
:1054F00000000000000000000000000000000000AC
:105500000000000000000000E003E003E003E0030F
:10551000E003E003E003E003C003C003C001C001F7
:10552000C001C001C001000000000000E003E00372
:10553000E003000000000000000000003C1E3C1ED4
:105540003C1E3C1E3C1E3C1E3C1E00000000000099
:10555000000000000000000000000000000000004B
:10556000000000000000000000000000000000003B
:10557000CE01CE03DE039E039C039C07FF3FFF7F0B
:105580003807380F780F780F780EFFFFFFFFF01EF7
:10559000F01CE01CE03CE03DE039000000000000B1
:1055A00000000000FC03FE0FEE1FE01EE01EE01EE8
:1055B000E01EE01FE00FE007F003FC01FE01FE012A
:1055C000FE01FE01FE01FE01FE3DFC3FF00FE00189
:1055D000E001000000000000033E07F78FE78EE7C0
:1055E0009EE3BCE3B8E7F8E7F0F7E03FC001FF0354
:1055F000FF07F307F30FF31EF33CF338F3787FF064
:105600003FE000000000000000000000E007F80F8D
:10561000780F781F781F781F780FF00FE00F801F2A
:10562000C37FC3FBE7F3F7F1F7F0FFF07FF03EF83D
:105630007F7CFF3FEF1F0000000000000000000023
:10564000E003E003E003E003E003C003C001000067
:10565000000000000000000000000000000000004A
:10566000000000000000000000000000000000003A
:10567000000000003F007C00F001E001C003C00713
:1056800080078007800F000F000F000F000F000F32
:10569000000F800F80078007C007C003E001F00102
:1056A0007C003F000F000000007E001FC007C00309
:1056B000E001F001F000F000F800780078007800D8
:1056C000780078007800F800F000F000F001E001C8
:1056D000C003C007001F007E00780000E003C00385
:1056E000C001CE39FF3F7F3F20037003F807780FDA
:1056F0003C1F380600000000000000000000000011
:105700000000000000000000000000000000000099
:10571000000000000000000000000000C001C00107
:10572000C001C001C001C001C001FFFFFFFFC001F7
:10573000C001C001C001C001C001000000000000A4
:105740000000000000000000000000000000000059
:105750000000000000000000000000000000000049
:10576000000000000000E003E003E003E003E001CC
:10577000E001E001C0018003000000000000000023
:105780000000000000000000000000000000FE3FDC
:10579000FE3F0000000000000000000000000000CC
:1057A00000000000000000000000000000000000F9
:1057B00000000000000000000000000000000000E9
:1057C0000000000000000000000000000000E003F6
:1057D000E003E003E0030000000000000000000020
:1057E0000F000F001E001E003C003C0078007800F7
:1057F000F000F000E001E001C003C0038007800773
:10580000000F000F001E001E003C003C00780078D6
:1058100000F00000F007F80F7C1F3E3E1E3C1F7C8E
:105820001F7C0F780F780F780F780F780F780F782C
:105830001F7C1F7C1E3C3E3E7C1FF80FF0070000C3
:105840000000000000000000F000F007F03FF03F13
:10585000F001F001F001F001F001F001F001F001C0
:10586000F001F001F001F001F001F001F001FF3F63
:10587000FF3F00000000000000000000E00FF83FC4
:105880007C3C3C003E003E003E003C003C007C0076
:10589000F800F001E003C0078007000F001E003E83
:1058A000003CFE3FFE3F0000000000000000000042
:1058B000F00FF81F7C1C3E003E003E003C003C0008
:1058C000F800F00FF80F7C003E001E001E001E00C6
:1058D0001E003E007C1CF81FE01F000000000000BE
:1058E000000000007800F800F800F801F803F8075D
:1058F000F807780F781E781E783C78787878FFFF64
:10590000FFFF7800780078007800780078000000C9
:105910000000000000000000FC1FFC1FFC1F001E18
:10592000001E001E001E001EE01FF81FFC007C0071
:105930003E003E001E003E003E003C007C1CF81F66
:10594000E01F00000000000000000000FC01FE0756
:105950008E0F001F001E003E003C003CF83DFC3F47
:105960003E7F1F7E0F3C0F3C0F3C0F3C0F3E1F1E27
:105970003E1FFC0FF00300000000000000000000CC
:10598000FF3FFF3FFF3F0F001E001E003C0038009E
:105990007800F000F000E001E001C003C0038007E0
:1059A000800F800F000F001F001F0000000000008C
:1059B00000000000F807FC0F3E1F1E1E1E3E1E3E8C
:1059C0001E1E3C1FF80FF007F80FFC1E3E3E1F3C4A
:1059D0001F7C0F7C0F7C1F3C3E3FFC1FF00700002C
:1059E0000000000000000000F007F80F7C1E3E3CA5
:1059F0001E3C1F7C1F7C1F7C1F7C1F3C3F3EFF1FEB
:105A0000EF071F001E001E003E003C00F838F03F6C
:105A1000E01F000000000000000000000000000087
:105A20000000000000000000E003E003E003E003EA
:105A30000000000000000000000000000000E00383
:105A4000E003E003E00300000000000000000000AD
:105A500041540D0A0000000000000000000000009A
:105A600000000000000000000000000000004154A1
:105A70002B4E414D453D627261736C65745F3035EC
:105A80000D0A0000000000000000000041542B50EF
:105A90005357443D313233340D0A000000000000FA
:105AA0000000000000000000000041542B5541524E
:105AB000543D3131353230302C302C300D0A00005D
:105AC0000000000000000000985B00086937000833
:105AD0000000000000000000800000000000000046
