:020000040800F2
:10000000A04B00209D0100084F2700080D2000088C
:100010004D270008670300083D2D00080000000080
:1000200000000000000000000000000005010008C2
:100030006903000800000000490100088129000848
:10004000B7010008B7010008B7010008B7010008B0
:10005000B7010008B7010008B7010008B7010008A0
:10006000B7010008B7010008B7010008B701000890
:10007000B7010008B7010008B7010008B701000880
:10008000B7010008B7010008B7010008B701000870
:10009000B7010008B7010008B7010008B701000860
:1000A000B7010008312A0008B7010008B7010008AD
:1000B0003D2A0008B7010008B7010008B701000891
:1000C000B7010008B7010008B7010008B701000830
:1000D000B7010008312D0008B7010008B70100087A
:1000E000B7010008B7010008B7010008DFF810D019
:1000F00000F018F900480047FD320008AFF3008017
:10010000A04B0020224B19680868B0E8F00F80F37C
:100110000988BFF36F8F4FF0000080F311884EF015
:100120000D0E70470000000006480068006880F36C
:10013000088862B661B6BFF34F8FBFF36F8F00DFE1
:1001400000BF00BF08ED00E0EFF30980BFF36F8F41
:100150000F4B1A6820E9F00F106008B54FF05000FF
:1001600080F31188BFF34F8FBFF36F8F03F094FEBE
:100170004FF0000080F31188BDE808401968086856
:10018000B0E8F00F80F30988BFF36F8F704700BFAE
:1001900040000020EFF305807047000006488047CC
:1001A00006480047FEE7FEE7FEE7FEE7FEE7FEE75C
:1001B000FEE7FEE7FEE7FEE72D2A0008ED00000857
:1001C000202A04DB203A21FA02F00021704721FAAC
:1001D00002F3D040C2F12002914008431946704713
:1001E00010B500683C22B0FBF2F302FB1303B0FB36
:1001F000F2F00B60B0FBF2F302FB1303B0FBF2F082
:1002000018224B60B0FBF2F302FB1303B0FBF2F0D9
:10021000021D8B600723B2FBF3F403FB1422800062
:1002200040F2B55300F66C308A61B0FBF3F2B0FBDC
:10023000F3F403FB1400443280084A61C8613B2890
:1002400002D3920700D0401C0022074C13460A61DB
:10025000E25C824203D8801A5B1C0B61F8E7401C09
:10026000C860084610BD00002047000840EA0103AE
:100270009B0703D009E008C9121F08C0042AFAD25C
:1002800003E011F8013B00F8013B521EF9D2704720
:10029000D2B201E000F8012B491EFBD270470022C8
:1002A000F6E710B513460A4604461946FFF7F0FF75
:1002B000204610BD421C10F8011B0029FBD1801AFA
:1002C00070472DE9F05F0546002092469B46884620
:1002D0000646814640241BE02846414647462246C2
:1002E000FFF76EFF53465A46C01A914110D311468C
:1002F0001846224600F028F82D1A67EB01084F46F1
:1003000022460120002100F01FF817EB00094E41A2
:10031000201EA4F10104DFDC484631462A4643464C
:10032000BDE8F09F064C074D06E0E06840F0010391
:1003300094E8070098471034AC42F6D3FFF7DAFE92
:100340005447000874470008202A04DB203A00FACA
:1003500002F1002070479140C2F1200320FA03F31C
:10036000194390407047FEE7704772B6FEE710B53C
:1003700090F821100022022905D00421816380F821
:100380002020012010BD01680B6823F00E030B60D4
:1003900001680B6823F001030B6090F84030C46BD8
:1003A000012101FA03F3636080F8211080F8202016
:1003B000104610BD10B590F821100024022903D07A
:1003C0000421816301243DE001680A6822F00E02E5
:1003D0000A6001680A6822F001020A601A4A01688C
:1003E000914201D1012121E0174A1432914201D1F9
:1003F00010211BE0144A2832914201D1891515E0E1
:10040000114A3C32914201D189140FE00E4A503218
:10041000914202D14FF4803108E00B4A643291429C
:1004200002D14FF4801101E04FF08071064A083A82
:100430005160012180F82110002180F82010416BCB
:1004400001B18847204610BD0800024070B504463F
:1004500000F004F90546601C02D00448007804440A
:1004600000F0FCF8401BA042FAD370BD3000002021
:100470002DE9F84FDFF8B891002409F1040A0AF1D8
:10048000040B23460F270BF1040EC9E00125A540FC
:100490002A40AA427DD1674ED1F804C0ACEB0608D1
:1004A000B44532D014DCBCF1030F3AD009DCBCF106
:1004B000000F2AD0BCF1010F1CD0BCF1020F31D1CA
:1004C0001DE0BCF1110F17D0BCF1120F2AD119E0B9
:1004D000B8F5881F19D006DCB8F5803F15D0B8F5FF
:1004E000801F1FD111E0B8F5001F0ED0B8F5041F12
:1004F00018D10AE0CB6815E0CB681B1D12E0CB6871
:1005000008330FE0CB680C330CE08B682BB1012B68
:100510004FF0080303D0456104E0042302E00561C5
:1005200000E00023FF2A01D8064601E000F104069E
:100530004FEA840501D9A5F12005D6F8008007FA15
:1005400005FC28EA0C0803FA05F548EA0508C6F890
:1005500000804D68ED0062D5374DAE6946F001066A
:10056000AE61AD6924F0030605F001050095334D39
:1005700006EB050CDCF80850A607360F07FA06F85C
:1005800025EA0805DFF8B880404503D14FF00008A0
:1005900017E044E0DFF8AC80404502D14FF001089D
:1005A0000FE0DFF8A480404502D14FF0020808E0D8
:1005B000DFF89880404502D14FF0030801E04FF08A
:1005C000040808FA06F848EA0508CCF808804D68DF
:1005D000D9F80060ED034D4601D5164300E096437F
:1005E0002E604D68DAF80060AD03554601D516431C
:1005F00000E096432E604D68DBF80060ED025D463A
:1006000001D5164300E096432E604D68DEF8006089
:10061000AD02754601D5164300E096432E60641C7A
:100620000D682A46E5407FF431AFBDE8F88F000041
:1006300000040140000011100010024000000140C1
:1006400000080140000C014000100140001401406E
:100650000AB1016170470904FBE7000001488068A6
:10066000704700003000002070B5040025D094F8D9
:100670003D00002520B984F83C50204600F078FA6F
:10068000242084F83D002068016821F00101016008
:100690002068016841F4004101602068016821F48C
:1006A0000041016000F0E0FC4D4A6168914201D8D0
:1006B0004C4900E04C49884201D2012070BD4B49B1
:1006C0002368B0FBF1F15E6826F03F060E435E60E2
:1006D0006368934206D94FF4967359434FF47A7383
:1006E000B1FBF3F12368491C1E6A26F03F06314333
:1006F00019626168914210D84900401EB0FBF1F2C6
:10070000521CC2F30B02042A01D2042022E0B0FBE7
:10071000F1F0401CC0F30B001CE0A268F2B301EB47
:10072000C10303EB0116431EB3FBF6F35B1C43F45A
:1007300080431B0549D092B301EBC10202EB0111CA
:10074000401EB0FBF1F0401CC0F30B0040F48040B1
:1007500040F400402168CA694CF6FF739A43104385
:10076000C861D4E9071001432068026822F0C00282
:1007700011430160D4E9030101432068826848F213
:10078000FF339A4311438160D4E90501084321688E
:10079000CA6822F0FF021043C86001E00EE016E0D4
:1007A0002068016841F0010101602564202084F87F
:1007B0003D00256384F83E50002070BD01EB4106EA
:1007C000431EB3FBF6F35B1CB3E70120C2E701EB6A
:1007D0004101401EB0FBF1F0401CC0F30B00B7E735
:1007E000A086010080841E0000093D0040420F00E9
:1007F0002DE9FF4F83B00025DDE910799A46934635
:100800000446DDF848800095FFF728FF064694F877
:100810003D0020287CD119230122854920460096DD
:1008200001F004FD0028F5D194F83C0001286FD0B8
:10083000012084F83C0020680168C90703D10168E1
:1008400041F0010101602068016821F4006101604C
:10085000222084F83D00402084F83E002564676231
:10086000A4F82A90608D20857248E062CDE9008668
:1008700053465A462046049901F0E0FB00287DD1FA
:10088000208DDFF8B491202768B1012814D0022808
:10089000206801681ED041F48061016020684169D0
:1008A00080690090B6E02068416981690091016823
:1008B00041F400710160ADE02068016821F48061BD
:1008C000016072B62068416981690091016841F454
:1008D00000710AE041F40061016072B6206841696C
:1008E00081690091016821F48061016062B691E044
:1008F000032868D801280CD0022843464FF0000294
:100900004946204600960FD001F090FCB0BB10E0A5
:100910008BE032464146204601F007FD70BB20685F
:100920000069616A08706CE001F080FC30BB72B64F
:1009300034E02068016821F48061016072B62068AB
:100940000069616A0870606A401C6062208D401E08
:100950002085608D401E6085384846F2A8110068E9
:10096000B0FBF1F0C0EBC00000EB80000090401E37
:10097000009008D020684069C04300E029E04007AB
:100980000CD50098F3E744F8305F6773A5732069CE
:1009900040F02000206162B625731AE020680168EB
:1009A00041F40071016020680069616A0870606A42
:1009B000401C6062218D491E2185618D491E618523
:1009C00062B621681BE032464146204601F0ADFC8C
:1009D00018B1012007B0BDE8F08F20680069616A96
:1009E0000870606A401C6062218D491E2185618DFE
:1009F000491E618521684A69D24352070AD40969B0
:100A00000170606A401C6062208D401E2085608DF0
:100A1000401E6085208D00287FF46AAF84F83D7009
:100A200084F83E5084F83C50D4E70220D2E700001E
:100A3000020010000000FFFF040001003C00002045
:100A40002DE9FF4F83B09A46DDE91197934604469E
:100A5000DDF84080FFF702FE054694F83D002028AF
:100A60007FD11923012240492046009501F0DEFB89
:100A7000002876D194F83C00012872D0012084F837
:100A80003C0020680168C90703D1016841F00101F9
:100A900001602068016821F400610160212084F870
:100AA0003D00402084F83E0000262664C4F82480DF
:100AB000A4F82A90608D20852C48E062CDE900756D
:100AC00053465A462046049901F036FB70B930E08F
:100AD0002A463946204601F05BFC58B1206C0428B8
:100AE00004D12068016841F400710160012007B061
:100AF000BDE8F08F606A216800780861606A401C78
:100B00006062218D491E89B22185628D521E6285E7
:100B100022685369DB435B070BD469B1007810612D
:100B2000606A401C6062208D401E2085608D401EE2
:100B30006085208D0028CBD12A463946204601F019
:100B40004FFB0028CAD154F83D0B016841F40071F5
:100B50000160202004F81E09E67766770020C6E7CA
:100B6000FFE70220C3E70000020010000000FFFFC3
:100B700010B586B0002100910191029103910068A7
:100B80000F4988421AD10F4CA06940F00800A061BB
:100B9000A069694600F008000490C020009012206F
:100BA0000190032003900848FFF762FCE06940F4DD
:100BB0000010E061E06900F40010049006B010BD80
:100BC0000054004000100240000C014002488168BF
:100BD000027811448160704730000020074810B54A
:100BE000016841F010010160032000F095F8002039
:100BF00000F006F800F03EF8002010BD0020024092
:100C000000B5014687B00022192000F065F81920D0
:100C100000F054F81348816941F4006181618069F2
:100C200005A900F400600690684600F0FDF900F0A8
:100C30002BFA0D490D4AB0FBF1F10D48491E026037
:100C4000416040F2E7320021C0E90321816000F0F9
:100C500063FE10B1012007B000BD054800F0A6FEFC
:100C6000F9E700000010024040420F00002C014054
:100C7000B83800200F4808B5816941F00101816151
:100C8000816901F001010091C16941F08051C161A8
:100C9000C069002200F0805000900F21901E00F0EB
:100CA0001BF80548416821F0E06141F000714160A6
:100CB00008BD00000010024000000140002809DBD0
:100CC00000F01F02012191404009800000F1E02066
:100CD000C0F8001170470000F0B40E4B1B680C46C2
:100CE000C3F30223C3F10705042D00D90425191D00
:100CF000072901D2002300E0DB1E012606FA05F1D8
:100D0000491E214099409E40761E16403143F0BC5A
:100D100002F02AB80CED00E0064900F0070208686E
:100D20004FF6FF03184040EA0220034A10430860D0
:100D3000704700000CED00E00000FA0501490120B9
:100D40000862704700000E4210B529A401461DCC70
:100D500086B08DE81D002AA02A4C0068049000206F
:100D6000012923D002293AD010291DD161682268B7
:100D7000D20119D5C1F38342C9031DF8020009D578
:100D8000616804AAC1F34041515C1F4AB2FBF1F112
:100D9000484301E01D4948436168490204D44000CA
:100DA0005FF00301B0FBF1F006B010BD226AC2F3A0
:100DB0000121012903D1920701D5C803F4E70229D3
:100DC00005D1626A920702D549F64040ECE7032953
:100DD000EAD121688903E7D54FF22440E4E700F027
:100DE00053F96168C1F38131491C4900DAE7000019
:100DF00002030405060708090A0B0C0D0E0F10105C
:100E0000010200000010024000127A0000093D00BB
:100E10002DE9F84305460078354CC00754D0E06909
:100E20000026C00008D4E06940F08050E061E0692D
:100E3000012600F0805000902E480168C90512D4A8
:100E40000168804641F480710160FFF707FC0746A6
:100E500005E000BFFFF702FCC01B642823D8D8F8C8
:100E60000000C005F6D5206A10F4407021D0A98892
:100E700001F4407181421CD0206A1F49012220F4F4
:100E800040700A6000220A602062C00711D0FFF79C
:100E9000E5FB074641F2883808E000BFFFF7DEFBBC
:100EA000C11B414502D90320BDE8F883206A8007B1
:100EB000F4D5206A696820F44070084320621EB1AE
:100EC000E06920F08050E0612878800705D56068EF
:100ED000A96820F44040084360602878C00605D522
:100EE0006068E96820F48000084360600020DBE768
:100EF0000010024000700040400442422DE9F047DB
:100F00000F46050061D0434E306800F00700B8423C
:100F100009D2306820F0070038433060306800F0B4
:100F20000700B84251D128683B4C810712D54007D1
:100F300003D5606840F4E06060602878000703D55E
:100F4000606840F4605060606068A96820F0F0005C
:100F5000084360602878C00728D06868012810D04E
:100F60002168022810D0890700292EDA616821F053
:100F7000030101436160FFF771FB804641F288394C
:100F80000DE021688903EFE78901EDE7FFF766FBD4
:100F9000A0EB0801494502D90320BDE8F08760684D
:100FA000696800F00C00B0EB810FEFD1306800F001
:100FB0000700B8420BD9306820F007003843306092
:100FC000306800F00700B84201D00120E5E728783A
:100FD000400705D56068E96820F4E0600843606078
:100FE0002878000706D56068296920F4605040EA37
:100FF000C100606000F058F86168084AC1F303114D
:10100000515CC8400649086006480068FFF7F8FDD3
:101010000020C2E7002002400010024008470008FC
:101020003C000020340000200F2202600C4A53686C
:1010300003F003034360536803F0F00383605368D5
:1010400003F4E063C36052684FF4E06303EAD20242
:1010500002610448006800F0070008607047000063
:101060000010024000200240044805490068496819
:10107000044AC1F30221515CC84070473C00002083
:1010800000100240184700080448054900684968F4
:10109000044AC1F3C221515CC84070473C000020A3
:1010A000001002401847000812A185B00FC98DE852
:1010B0000F0014A0144A006804905168134801F00E
:1010C0000C03042B10D0082B0ED1C1F38343C903AA
:1010D0001DF803000AD5516804AAC1F34041515CD0
:1010E0000A4A5043B0FBF1F005B070470849484345
:1010F000FAE7000002030405060708090A0B0C0DB5
:101100000E0F1010010200000010024000127A00C1
:1011100000093D002DE9F84F040070D02078C04D43
:10112000C00749D06868C0F38100012807D068680B
:10113000C0F38100022809D16868C00306D5286879
:10114000800339D560680028E7D035E06068B0F5E5
:10115000803F0BD010B1B0F5A02F11D0286820F43B
:1011600080302860286820F4802002E0286840F45D
:1011700080302860606890B1FFF770FA06460AE098
:10118000286840F480202860F0E700BFFFF766FA87
:10119000801B642873D828688003F7D50CE0FFF71C
:1011A0005DFA064605E000BFFFF758FA801B642889
:1011B000F0D828688003F7D420789A4E80074FF043
:1011C00001094FF0000839D5686810F00C0F07D0FE
:1011D0006868C0F38100022809D16868C00306D49A
:1011E0002868800714D52069012808D110E02069FB
:1011F000B0B1C6F80090FFF731FA074605E00AE102
:10120000FFF72CFAC01B0228C4D828688007F7D53E
:101210002868616920F0F80040EAC10028600DE00C
:10122000C6F80080FFF71AFA074604E0FFF716FA3F
:10123000C01B022823D828688007F7D4207800072D
:101240002CD57948A169D9B1C0F80090FFF706FA0A
:10125000074604E0FFF702FAC01B02280FD8686AAD
:101260008007F7D571484FF4FA510068B0FBF1F0F0
:10127000009000BF0098411E0091FAD20EE080E07D
:10128000C0F80080FFF7EAF9074604E0FFF7E6F947
:10129000C01B022875D8686A8007F7D420784007F9
:1012A00060D5E8690027C00008D4E86940F08050A4
:1012B000E861E869012700F0805000905C4801680F
:1012C000C90513D40168834641F480710160FFF7BA
:1012D000C5F9824606E000BFFFF7C0F9A0EB0A009F
:1012E00064284ED8DBF80000C005F5D5E068012879
:1012F0000AD008B1052813D0286A20F0010028621E
:10130000286A20F0040002E0286A40F00100286208
:10131000E06841F2883B98B1FFF7A0F982460BE004
:10132000286A40F004002862EEE700BFFFF796F954
:10133000A0EB0A0159455AD8286A8007F6D50CE077
:10134000FFF78CF9824605E0FFF788F9A0EB0A0168
:1013500059454CD8286A8007F6D41FB1E86920F0B7
:101360008050E861E06988B36968C1F381010229AE
:1013700044D00228C6F8608004D0FFF76FF9044615
:1013800038E034E0FFF76AF9074604E0FFF766F952
:10139000C01B02282BD828688001F7D4206AB0F53A
:1013A000803F05D16868A16820F400300843686078
:1013B000D4E908010843696821F47411084368609E
:1013C000C6F86090FFF74AF9044606E025E000BF42
:1013D000FFF744F9001B022809D828688001F7D5D7
:1013E0001BE000BFFFF73AF9001B022802D90320D7
:1013F000BDE8F88F28688001F4D40EE00128F7D00A
:101400006868226A00F48031914204D1616A00F474
:101410007010884201D00120EAE70020E8E70000D0
:101420000010024000004242800442423C00002082
:10143000007000402DE9F04791460C465FEA000835
:101440004AD084B3D8F800004068400744D44046EE
:1014500001F026FA4FF461620546B0FBF2F1B0FBF1
:10146000F2F302FB13503C23B0FBF3F0B5FBF2F6B2
:10147000607002FB1650B0FBF3F203FB1200A07089
:10148000182931D31820B1FBF0F7B1FBF0F200FBC3
:1014900012102070404601F0FCF9411C04D0A84213
:1014A00002D9461B02E017E04FF0FF36A7EB07100A
:1014B00000EB4000C0EB001005EBC015294640468C
:1014C00001F03DFA40B9701C01D0711900E03146BD
:1014D000404601F020FA10B10120BDE8F0873946FE
:1014E000404601F049F900E02170B9F1000F0BD03E
:1014F000207801F036F92070607801F032F96070E0
:10150000A07801F02EF9A0700020E6E770B5040085
:1015100003D0607C002610B105E0012070BD267468
:10152000204600F043F802206074204600F010F9D5
:10153000042578BB204601F076F958BB2068416845
:1015400021F007014160A06820B11748016821F02F
:10155000010101601448001F0168A26821F4607154
:10156000114301606068411C04D10120FFF7ECFBCE
:1015700080B1401E21688A6822F00F0242EA1042C0
:101580008A602168CA6860F30F02CA60204601F0D1
:1015900065F908B16574C0E7E67301206073A07354
:1015A0006074002070BD0000306C004008B5006819
:1015B000084988420DD1FFF7C1FB0748C16941F0D6
:1015C0000061C161C069054900F000600090012020
:1015D000086008BD00280040001002403C04424260
:1015E0002DE9F0410D4604003BD0C5B3207C012815
:1015F0003AD04FF0010884F8108002206074E87837
:1016000072B301F0A5F8E073687801F0A1F8607397
:10161000A87801F09DF8A073C2B2617BE07B01F075
:101620004FF920732870204601F03AF94FF46161B8
:10163000B0FBF1F1002518292DD91822B1FBF2F1E8
:10164000A1EB011101EB4101C1EB011100EBC1164E
:101650003146204601F073F90427C8B90BE000E0D9
:1016600004E00120BDE8F0810220FBE7E073687828
:101670006073A878CFE7204601F00BF9411C0AD02F
:10168000B04208D206490144204601F044F910B1A5
:1016900067742574E5E784F8118025740020E1E77C
:1016A000805101002DE9F0410D46040024D01DB306
:1016B000207C012823D04FF0010884F810800220FC
:1016C00060742878EAB101F043F84FF4616100FBDF
:1016D00001F6687801F03CF8C0EB001006EB8006DC
:1016E000A87801F035F835182946204601F027F989
:1016F0000026042710BB0FE00120BDE8F081022086
:10170000FBE74FF4616148436978C1EB011100EBDD
:101710008100A9784518E7E72068416821F00501B4
:101720004160204601F0B5F8411C0AD0A84208D219
:1017300006490144204601F0EEF810B167742674A2
:10174000DAE784F8118026740020D6E78051010082
:1017500070B504000AD02068416821F0080141609A
:10176000FEF77CFF05464FF47A7608E0012070BD55
:10177000FEF774FF401BB04201D9032070BD206802
:1017800040680007F4D5002070BD70B5040009D092
:10179000606A002540B125616561A56294F8510039
:1017A00040B10CE0012070BD6068B0F5827FF4D0DC
:1017B000E561F2E784F85050204600F03FF802203F
:1017C00084F851002068016821F040010160A08880
:1017D000218900F4827001F404410843A18901F4D5
:1017E00000610843217C01F002010843217D01F0E2
:1017F00001010843218B01F400710843217F01F0AE
:101800003801084394F8201001F080010843218D2D
:1018100001F40051084321680860A069042101EA2D
:101820001040216848602068C16921F40061C161ED
:101830006565012084F85100002070BD30B585B089
:10184000002400940194029403940068144988428F
:1018500024D11448816941F480518161816901F486
:1018600080510491816941F00401816180690E4DCC
:1018700000F004000490A0200090022001900320BA
:10188000039069462846FEF7F3FD4020CDE90004A9
:101890000120029069462846FEF7EAFD05B030BDFA
:1018A00000300140001002400008014070477047BE
:1018B00070B590F83C20012A26D0012480F83C40E5
:1018C000022280F83D2003685A689D6822F0700665
:1018D0000A6832435A600D4B02689A4208D0B2F14E
:1018E000804F05D00A4B9A4202D00A4B9A4204D14B
:1018F000496825F080031943916080F83D4000213C
:1019000080F83C10084670BD022070BD002C0140DC
:10191000000400400008004010B5040003D094F813
:101920003D0010B107E0012010BD002084F83C000C
:10193000204600F01FF8022084F83D00211D206899
:1019400001F082F8012084F8460084F83E0084F813
:101950003F0084F8400084F8410084F8420084F895
:10196000430084F8440084F8450084F83D000020DA
:1019700010BD000008B50068B0F1804F12D10A48D0
:10198000C16941F00101C161C069002200F001009C
:10199000009005211C20FFF79FF9BDE808401C209E
:1019A000FFF78CB908BD00000010024090F83D1010
:1019B000012901D001207047022180F83D10016803
:1019C000CA6842F00102CA6000680B49884208D028
:1019D000B0F1804F05D00949884202D008498842B9
:1019E00004D1816801F00701062903D0016841F0A4
:1019F0000101016000207047002C014000040040FC
:101A00000008004070B5044690F83C00012817D04B
:101A1000012584F83C50022084F83D00206882684B
:101A200022F0770222F47F4282600868502830D08A
:101A30000DDC20284DD005DC98B310283BD148E0C0
:101A4000022070BD302844D0402834D139E06028CD
:101A500028D0702806D0B0F5805F2CD0B0F5005F9C
:101A600029D10AE0CB68D1E90121206801F022F8F0
:101A70002068816841F0770109E0CB68D1E9012154
:101A8000206801F017F82068816841F48041816086
:101A900011E0CA684968206801F01EF850212068EA
:101AA00007E016E0CA684968206801F026F860215E
:101AB000206801F009F884F83D50002084F83C00CB
:101AC00070BDCA684968206801F006F840212068A6
:101AD000EFE7226801461046EBE7704770B5044611
:101AE000006801694FF00005C943890715D4C16832
:101AF000C943890711D4E91E0161012020772068BC
:101B000080698007204602D0FFF7E7FF04E000F07D
:101B100098F8204600F096F8257720680169C943B7
:101B2000490717D4C168C943490713D46FF00401AA
:101B30000161022020772068806910F4407F2046F0
:101B400002D0FFF7CAFF04E000F07BF8204600F067
:101B500079F8257720680169C943090716D4C16857
:101B6000C943090712D46FF00801016104202077EE
:101B70002068C0698007204602D0FFF7AEFF04E06E
:101B800000F05FF8204600F05DF8257720680169D5
:101B9000C943C90617D4C168C943C90613D46FF035
:101BA00010010161082020772068C06910F4407F8F
:101BB000204602D0FFF791FF04E000F042F82046F3
:101BC00000F040F8257720680169C943C90708D1AA
:101BD000C168C943C90704D1891E0161204600F0CC
:101BE00033F820680169C943090609D4C168C943AB
:101BF000090605D46FF0800101612046FFF756FE0B
:101C000020680169C943490609D4C168C943490626
:101C100005D46FF040010161204600F01FF82068F4
:101C20000169C94389060BD4C168C943890607D431
:101C30006FF0200101612046BDE87040FFF737BE1C
:101C400070BD70477047000000680349884201D1A9
:101C5000FEF7BCBF70470000002C01407047704782
:101C600070470000F8B5026804461068D1685369EF
:101C700010F00F0F4FF0000553D003F0010601F4F0
:101C8000907737435FD0C20705D0CA0503D5226CD1
:101C900042F001022264420705D5DA0703D0226C24
:101CA00042F002022264820705D5DA0703D0226CD3
:101CB00042F004022264020707D501F020023243F9
:101CC00003D0226C42F008022264226C002A34D035
:101CD000800604D5880602D5204600F040FF206823
:101CE0004069216CC0F38010090700D430B320464E
:101CF00000F01DFF2068416949061BD5416921F0AC
:101D000040014161A06BA8B158494163A06BFEF747
:101D100051FB002811D0A06B416B01B0BDE8F04031
:101D2000084783060FD58B060DD52046BDE8F84041
:101D300000F015BF2046FFF793FFF8BD2046FFF7E0
:101D40008FFF2564F8BD266B2023012E52D1C606D5
:101D500050D5CE064ED510685068009050694006A8
:101D60002AD5A16B086840680004000CEAD0A68D53
:101D70008642E7D9E0858869202818D0D06820F409
:101D80008070D0602068416921F0010141612068C4
:101D9000416921F04001416184F83E3025632068AB
:101DA000C16821F01001C160A06BFEF7E0FAA08DC0
:101DB000E18D401A81B219E0A08DE18D401A81B207
:101DC000E08D0028BED00029BCD0D06820F49070EF
:101DD000D0602068426922F00102426184F83E30FE
:101DE00025632068C26822F01002C2602046FFF717
:101DF00036FFF8BD05062BD50D0629D594F83D0014
:101E00002128F6D1A068B0F5805F01D12069B0B17A
:101E1000206A411C2162216800784860E08C401EE5
:101E20000004000CE084E4D12068C16821F0800146
:101E3000C1602068C16841F04001C160F8BD206AFE
:101E40000088C0F308005060206A801C2062E5E72B
:101E50004006F3D54806F1D5D168204621F040016F
:101E6000D16084F83D3000F0D0F8F8BD1F2B000899
:101E700070B5040004D094F83D00002510B106E0D0
:101E8000012070BD84F83C50204600F023F8242047
:101E900084F83D002068C16821F40051C1602046EB
:101EA00000F0B8FE2068016921F4904101612068CA
:101EB000416921F02A0141612068C16841F4005163
:101EC000C1602564202084F83D0084F83E00002095
:101ED00070BD000030B585B00024009401940294D8
:101EE00003940068184988422CD11848816941F44C
:101EF00080418161816901F480410491816941F0EF
:101F0000040181618069124D00F0040004904FF4D7
:101F1000007000900220019003200390694628463B
:101F2000FEF7A6FA2815CDE9000469462846029472
:101F3000FEF79EFA002205212520FEF7CDFE252082
:101F4000FEF7BCFE05B030BD003801400010024075
:101F500000080140704700002DE9F843044690F85E
:101F60003D001F4616460D4620284CD1C5B1BEB1D6
:101F700094F83C00012846D0012084F83C004FF042
:101F80000008C4F84080212084F83D00FEF766FB7D
:101F9000A6848146E684A068B0F5805F03D004E0A3
:101FA0000120BDE8F883206928B12E465FF00005C6
:101FB00084F83C800EE00026FAE78021204600F0FD
:101FC00085FEA0B9AEB116F8010B21684860E08C1F
:101FD000401EE084E08C4B464FF000020097002842
:101FE000EBD14FF04001204600F070FE30B10320ED
:101FF000D7E735F8020BC0F30800E6E7202084F8A5
:102000003D000020CDE70220CBE77047FEE70168E6
:102010004A69D24352050FD46FF480624A610021AD
:1020200040F8301F202242738173026942F004029B
:102030000261017301207047002070472DE9F84FBD
:102040000446006889460B9D01689846174641F48E
:10205000806101602068016841F480710160009531
:102060004FF0011B0022594620460A9B00F0DEF883
:102070004FF4007A40B120680068C00501D5C4F86B
:1020800040A00320BDE8F88F216809F0FE00086138
:102090002B46284920460A9A00F0FCF8F0BB20683D
:1020A0004169806900902A4620460A9900F070F93B
:1020B00040B1206C04283AD12068016841F40071D5
:1020C000016034E0FEB2B8F1010F09D02168380A8E
:1020D00008612A4620460A9900F05AF90028E8D1FA
:1020E000206806612A4620460A9900F051F9002826
:1020F000DFD12068016841F4807101600095002201
:10210000594620460A9B00F091F80028B3D1216877
:1021100009F0FF0040F00100086100E007E02B46F5
:10212000044920460A9A00F0B5F80028AAD00120F8
:10213000A8E70000020001002DE9F843044600680A
:102140000D46DDE9089701689846164641F480710E
:1021500001604B4600224FF001112046009700F02D
:1021600065F848B120680068C00502D54FF40070DA
:1021700020640320BDE8F883216805F0FE000861B3
:102180003B464A461549204600F084F888B9206845
:102190004169806900903A464946204600F0F8F8C7
:1021A00048B1206C042804D12068016841F4007112
:1021B00001600120DEE7F5B2B8F1010F09D0216816
:1021C000300A08613A464946204600F0E1F8002806
:1021D000E7D1206805610020CCE700000200010083
:1021E00070B516460D4604460DE02046FFF70FFF7A
:1021F00008B1012070BD681C05D0FEF72FFA801BC6
:10220000A84207D835B120684069C0434007ECD4E4
:10221000002070BD002044F8300F20216173A073AE
:10222000216941F0200121612073E2E72DE9F047A7
:102230001E4690460D460446C1F30747DDF8209040
:1022400008E0701C06D0FEF709FAA0EB0900B042C6
:102250000FD876B12068012F18D0806925EA0000D8
:102260000004000C14D000214145EAD00020BDE854
:10227000F087002044F8300F20216173A07321699A
:1022800041F02001216120730120F0E74069E5E77A
:102290000121E9E72DE9F0479A4691460E460446AA
:1022A00000254FF02008C1F3074725E0206840696A
:1022B000C043400514D42068016841F400710160F6
:1022C00021686FF480604861256384F83D8084F85C
:1022D0003E50206C40F00400206484F83C501FE025
:1022E000B9F1FF3F08D0FEF7B9F9A0EB0A01494563
:1022F0000CD8B9F1000F09D02068012F13D08069E4
:1023000026EA00000004000C0BD0CFE744F8305F51
:1023100084F80D80A573206940F0200020612573AA
:102320000120BDE8F0874069EAE72DE9F04100258A
:1023300090460E460446202717E04069C043C00679
:102340000CD454F8301B6FF01000486144F8105959
:102350006777A577206A2062257717E0FEF77EF978
:10236000A0EB0800B04208D83EB120684169C943DB
:102370004906E2D40020BDE8F08144F8305F67737D
:10238000A573206940F02000206125730120F2E749
:1023900070B516460D4604460DE02046FFF737FEA1
:1023A00008B1012070BD681C05D0FEF757F9801BED
:1023B000A84207D835B120684069C0430006ECD474
:1023C000002070BD002044F8300F20216173A073FD
:1023D000216941F0200121612073E2E72DE9F041FC
:1023E00086B08046012504A8CDE9000564242B466B
:1023F0007522D02102944046FEF7FAF99DF81000AC
:10240000682803D0012006B0BDE8F081002703AEA4
:102410008DF80C700096CDE9015401236B22D02178
:102420004046FEF70DFB07208DF80C000096CDE925
:10243000015401231922D0214046FEF701FB8DF8FB
:102440000C700096CDE9015401231C22D021404696
:10245000FEF7F6FA8DF80C700096CDE901540123D1
:102460001B22D0214046FEF7EBFA0020CBE710B547
:1024700086B00C466423062203A98DE80E000123D2
:102480003B22D021FEF7B4F9BDF80C0040BA208001
:10249000BDF80E0040BA6080BDF8100040BAA080C0
:1024A00006B010BD10B5A4B01C221C496846FDF74B
:1024B000DDFE0021684600F0C5FF194C17491C22BB
:1024C00060601C3107A8FDF7D1FE002107A800F0CD
:1024D000B9FF1249A0601C2238310EA8FDF7C6FED4
:1024E00000210EA800F0AEFF0C49E0601C22543120
:1024F00015A8FDF7BBFE002115A800F0A3FF0749B2
:1025000020611C2270311CA8FDF7B0FE00211CA820
:1025100000F098FF606124B010BD00007C46000808
:10252000180000202DE9F04186B0002420480094D6
:10253000019402940394816941F0200181618169D1
:1025400001F020010491816941F0040181618169F8
:1025500001F004010491816941F008018161806901
:10256000144F00F008000490002210213846FEF7B6
:102570006FF8DFF844807E15002231464046FEF7B2
:1025800067F801251020CDE9000569463846CDE9F8
:102590000245FDF76DFF0220CDE90240CDE900655F
:1025A00069464046FDF764FF06B0BDE8F0810000D3
:1025B0000010024000080140000C01400D4810B519
:1025C0000B4901600C49416000214FF48042816059
:1025D000C0E9031241618161C1610162FEF744F803
:1025E000002803D0BDE81040FDF7BFBE10BD0000BD
:1025F000005400406C370020801A06001CB50024EF
:1026000018480194164900940160611E41604FF41E
:1026100040718160FEF77AFF08B1FDF7A6FE8DF8E4
:1026200004408DF805408DF80640012201A90D48AF
:10263000FFF738F808B1FDF798FE01208DF800008B
:102640008DF801008DF8020002468DF803406946BE
:102650000448FEF7C5FF002801D0FDF786FE1CBD2B
:1026600000280040C0370020104810B50E49016016
:102670004FF48271416000218160C1604FF40072AB
:102680000161C0E905120822C0E9072141628162A7
:102690000A21C162FFF779F8002803D0BDE8104095
:1026A000FDF763BE10BD000000300140D4370020AC
:1026B00010B586B000241648009401940294039447
:1026C00004944FF080410594016041F61F41C0E938
:1026D0000114C721C0E903148461FFF71DF908B193
:1026E000FDF743FE4FF48050009069460848FFF71D
:1026F00089F908B1FDF739FE049404A9044805944A
:10270000FFF7D6F8002801D0FDF72FFE06B010BD68
:102710002C3800200C4810B50A4901604FF4E13113
:102720004160002181600C22C160C0E90412816116
:10273000C161FFF79DFB002803D0BDE81040FDF705
:1027400014BE10BD0038014074380020FEE7FEE7DB
:10275000010901EB810100F00F0000EB4100C0B264
:102760007047002102E00A38C0B2491C0A28FAD298
:10277000090740EA116070472DE9F0410446002541
:10278000C07B627BA37B42E0012A16D0032A14D0CF
:10279000052A12D0072A10D0082A0ED00A2A0CD0F7
:1027A0000C2A0AD0042A10D0062A0ED0092A0CD0EE
:1027B0000B2A0AD0022A0DD028E01F2B0CD30C2A9A
:1027C00005D101221346401C20E01E2B04D3012317
:1027D000521C1BE01C2B02D203F1010316E011D1A5
:1027E00083B29E0710D16426B3FBF6F706FB1736BB
:1027F00036B94FF4C876B3FBF6F706FB17331BB9AF
:102800001D2303E01D2B01D1032201236D1C8D42EA
:10281000BAD3D1B2E0736173DAB2A27300F050F8A8
:102820002073BDE8F08170B50446FDF717FF05463B
:102830004FF47A7606E0FDF711FF401BB04201D954
:10284000032070BD206840688006F4D52068416888
:1028500041F010014160002070BD000070B50446D9
:102860000068416821F010014160FDF7F7FE054660
:102870004FF47A7607E000BFFDF7F0FE401BB04250
:1028800001D9032070BD206840688006F4D500207F
:1028900070BD0168086A496A89B241EA0040704720
:1028A000006881698AB2C1698BB2816989B28A4242
:1028B00003D0C06961F31F40704743EA024070478C
:1028C000F0B56424C1EBC1030927A500072603EB7B
:1028D00001130329B3FBF7F100F5FA601144014439
:1028E0000AD2401EB0FBF4F201EB9001B0FBF5F010
:1028F000891A0844001D08E0B0FBF4F201EB9001D6
:10290000B0FBF5F0891A0844801CB0FBF6F106FB19
:102910001100C0B2F0BD70B50D4606460024FFF7A9
:1029200082FF48B93168280C08623168A8B2486251
:102930003046FFF793FF00B10124204670BD70B50B
:102940000D4606460024FFF76EFF48B93168280C93
:1029500088613168A8B2C8613046FFF77FFF00B1D7
:102960000124204670BD642000F060FDFBE7642078
:1029700000F05CFDFBE7642000F058FDFBE7000081
:1029800010B5502080F31188BFF34F8FBFF36F8FC6
:1029900001F05CFB18B104494FF080500860002042
:1029A00080F3118810BD000004ED00E070B594B014
:1029B00028216846FDF773FC14210AA8FDF76FFC77
:1029C00000250F950920012410950090119512956E
:1029D0004FF4803004940694CDE901050226CDE938
:1029E00007604FF4E01009906846FEF793FB08B1CA
:1029F00072B6FEE70F20CDE90A064FF48060CDE9FC
:102A00000C5002210AA80E95FEF778FA08B172B6AA
:102A1000FEE74FF40070CDE90F400FA8FEF7F8F97C
:102A2000002801D072B6FEE714B070BD70470000F8
:102A30000148FFF753B80000B83800200148FFF7FD
:102A40004DB800002C380020F0B50268164B174C2A
:102A5000174D4FF08047984205D0B84203D0A042AE
:102A600001D0A84203D122F070064A68324398424E
:102A700005D0B84203D0A04201D0A84203D122F42D
:102A80004074CA6822434C6922F0800222430260EB
:102A90008A68C2620A688262984201D10969016348
:102AA00001214161F0BD0000002C01400004004004
:102AB0000008004010B5846842EA032224F47F44F1
:102AC0000A432243826010BD826822F070020A43EA
:102AD00042F007018160704710B5036A046A24F070
:102AE00001040462846924F0F00444EA021423F02F
:102AF0000A020A438461026210BD10B5036A23F022
:102B0000100303628369046A23F4704343EA0232C8
:102B100024F0A00343EA01118261016210BD10B5E7
:102B2000406A0021C185C184FFF79AF810BD016891
:102B3000CA6822F49072CA6001684A6922F00102F0
:102B40004A61016B012904D10168CA6822F01002B0
:102B5000CA60202180F83E1000210163704708B54B
:102B600090F83E10222901D0022008BD82684FF45F
:102B700080539A4201D1016921B1816A9A421BD0E6
:102B80004AB10AE00268816A5268C2F308020A8008
:102B9000816A891C08E0026972B10268526802F019
:102BA0007F020A70816A491C8162C18D491E090435
:102BB000090CC18503D019E002685268F1E7016889
:102BC000CA6822F02002CA600168CA6822F48072D2
:102BD000CA6001684A6922F001024A61202180F836
:102BE0003E10016B012903D0FFF7B4F9002008BDA6
:102BF000002101630168CA6822F01002CA600168FE
:102C00000A68D20602D50A6849680091818DFFF7EB
:102C100026F8EBE770B5044600680169E26821F424
:102C20004051114301612169A0680843616908436B
:102C30002168CA6841F20C639A430243CA60206863
:102C40004169A26921F44071114341611E49206824
:102C5000884202D1FEF718FA01E0FEF705FA00EB10
:102C6000C00101EB0012606864218000B2FBF0F348
:102C7000B3FBF1F36FF018067343B2FBF0F5B2FB50
:102C8000F0F605EB8305322303EB0515B5FBF1F5F3
:102C9000B6FBF1F605F0F00505EB0615B2FBF0F614
:102CA000B2FBF0F0B0FBF1F06FF01802504306EB0E
:102CB000800003EB0010B0FBF1F0216800F00F0082
:102CC0002844886070BD0000003801402DE9F041C3
:102CD000984617460E460446069D1DE0681C1BD00C
:102CE0002DB1FDF7BBFCA0EB0800A84214D9206869
:102CF000C16821F4D071C1602068416921F00101EF
:102D00004161202084F83D0084F83E00002084F8D2
:102D10003C000320BDE8F0812068006836EA00002E
:102D200004D00020B842D9D00020F3E70120F9E711
:102D30000148FEF797BF000074380020FEE700004E
:102D40000FB4084B10B504A902AA039800F02CF8A0
:102D5000044602A9002000F052FA204610BC5DF89B
:102D600014FB0000FF3100080907090E002804DBEE
:102D700000F1E02080F80014704700F00F0000F12F
:102D8000E02080F8141D704702E008C8121F08C137
:102D9000002AFAD170477047002001E001C1121FDC
:102DA000002AFBD1704700002DE9FF4F8DB00F4680
:102DB0000546002606E025280BD0DDE90F129047D6
:102DC0006D1C761C28780028F5D111B03046BDE87E
:102DD000F08F0024A246A1460122E94900E0044305
:102DE00015F8013F203B02FA03F00842F7D128789A
:102DF0002A2810D06FF02F022878A0F1300109297D
:102E000014D80AEB8A0102EB410144F0020400EB02
:102E1000010A6D1CF0E701CF5FEA000A03D544F414
:102E20000054CAF1000A44F002046D1C28782E28D0
:102E300017D115F8010F44F004042A280ED06FF0C2
:102E40002F022878A0F1300109290AD809EB89015D
:102E500002EB410100EB01096D1CF2E757F8049BFE
:102E60006D1C28786C280FD006DC4C2817D06828F9
:102E70000DD06A2814D104E0742810D07A280FD11C
:102E80000DE044F400140AE044F4801401E044F43A
:102E900040146978814202D104F580146D1C6D1CC8
:102EA00028786E281ED00CDC632830D004DC002883
:102EB0008BD0582811D19FE0642867D069280CD1A5
:102EC00064E073282DD004DC6F2872D0702804D100
:102ED00094E075286ED078286DD0DDE90F12904708
:102EE000761C4BE1C4F30250022806D0032809D017
:102EF000042801CF09D0066040E101CFF117C0E9F5
:102F000000613BE101CF068038E1067036E117F839
:102F1000040B8DF8000000208DF80100EB46012025
:102F200003E057F804BB4FF0FF3061074FF000019A
:102F300002D40DE008F10101884649450FDA8045C9
:102F4000F8DB1BF808100029F4D108E008F10101B2
:102F500088468142FADB1BF808100029F6D1DDE92A
:102F60000F23AAEB08008146214600F031F93044D6
:102F700000EB080604E0DDE90F121BF8010B904797
:102F8000B8F10108F7D221464846F2E00A21C4F31D
:102F900002524FF0000B0891022A04D001CFC11752
:102FA000032A09D00AE0FF1D27F00707F7E802010E
:102FB00008E02CE01EE01FE000B2C117042A01D196
:102FC00040B2C117021E71F1000206DA0023D0EBF5
:102FD000030063EB01012D2202E0220504D52B2220
:102FE0008DF82420012203E0E20701D02022F7E738
:102FF000904653E00A210BE0102109E010214FF028
:10300000000B44F004044FF00809089103E0082184
:103010004FF0000B0891C4F30252022A04D001CFF2
:103020000021032A06D006E0FF1D27F00707F7E876
:10303000020103E080B2042A00D1C0B24FF00008C0
:1030400022072BD52A78702A07D0DDF820C08CF013
:10305000100C5CEA0B0C05D00EE040228DF8242009
:10306000012208E050EA010306D030238DF8243015
:103070008DF8252002229046089B83F0080353EA2E
:103080000B030BD150EA010201D1620706D53022B1
:103090008DF824204FF00108A9F101092A78582A57
:1030A00004D038A20B9208AA0A920BE03AA2F9E7E0
:1030B0005B46089AFDF705F90B9B9B5C0A9A521E2A
:1030C0000A92137050EA0102F2D10A98ADEB0000A7
:1030D00000F1200B600702D524F4803401E04FF0AA
:1030E0000109D94502DDA9EB0B0000E0002000EB4F
:1030F0000B0141440890AAEB010AE00306D4DDE984
:103100000F232146504600F063F806444FF00009B3
:1031100008E009A911F80900DDE90F12904709F14B
:103120000109761CC145F4DBE0030CD5DDE90F2372
:103130002146504600F04CF8064404E0DDE90F1249
:1031400030209047761C0899481E08900029F5DC2D
:1031500008E00A980A990078491C0A91DDE90F12E3
:103160009047761CBBF10001ABF1010BF1DC21466D
:103170005046DDE90F2300F019F806446D1C21E6E6
:10318000092801003031323334353637383961623D
:103190006364656600000000303132333435363701
:1031A0003839414243444546000000002DE9F041D2
:1031B000044600251E461746880404D405E0394617
:1031C0002020B0476D1C641EF9D52846BDE8F0816B
:1031D0002DE9F041044600251E469046C80301D55E
:1031E000302700E02027880404D505E04146384612
:1031F000B0476D1C641EF9D52846BDE8F0810A6809
:10320000531C0B60107070470026DFF898A0DFF8A1
:1032100098B0264F264CDFF89C9035460022234973
:103220002548FEF707F91435B878ADB2B04201D0A1
:10323000064600251B492148FFF719F994F800803C
:10324000618808EB48020BEBC22201EB4103BAF89C
:1032500000C022F813C002EB4302BAF802C0A2F881
:1032600002C0BAF804009080491C88B26080B0F5B2
:10327000806F0CD3002060800A4988F00100207024
:103280001039BA7841F8302001EBC0008580D9F8B8
:10329000001081F40071C9F80010142000F0C6F885
:1032A000BCE70000C0340020B00400200000002073
:1032B000180000200C0C0140C03700206C370020A3
:1032C0000C4C0D4D4FF4C8762078618800EB40001F
:1032D00005EBC02001EB410100EB410333F8022C68
:1032E00033F8041C33F8060C00F040FC304600F0C4
:1032F0009DF8E9E718000020B00400209EB0FDF71B
:103300006DFCFFF753FBFFF70DF9FFF7ADF9FFF782
:1033100001FAFFF753F9FFF771F9FFF7C9F96421D3
:1033200004A8FCF7BCFF2F48FFF758F80128FAD093
:1033300000F0F8FA642314222BA12D48FEF70CFEAE
:103340002C4A2D492D4800F051FC2A4C2A4DA378D7
:10335000E878627821788DE80F006B78AA7828A148
:1033600004A8FFF7EDFC04A8FCF7A4FF82B26423D5
:1033700004A91F48FEF7F0FD26A1D1E90001A0F144
:10338000300202EB82066FF02F0202EB460606EBDC
:103390001023000E303800EB800002EB4000237059
:1033A00008446070080C0A0E303800EB8000D5210C
:1033B00001EB40001044A070002221461748FEF7A0
:1033C00071F90220A8700B2068701520E8700022A7
:1033D00029461248FEF704F9FFF764F800F02DF8CB
:1033E000FEE700006C37002073746172740D0A00F0
:1033F0007438002000000020030000202AFB39233D
:1034000025642E25642E25640D0A25642E25642E40
:103410002564000031363A34393A3037C03700205D
:1034200001460020842900D0C81C704710B500B99F
:10343000012000F0CDFC002010BD10B500F0EEFC26
:10344000002010BD7FB50D4604464169B0F9080063
:1034500081B1A16971B1FFF7E3FFD4E905128DE8ED
:103460000700D4E900102B46226900F0C4FD039048
:1034700004B070BDFFF7D4FF03A9CDE90001208A95
:103480002B4682B2D4E9001000F088FD012801D05B
:103490000020EDE70398EBE72DE9F041184C0F46CB
:1034A000054666692068001D00F0CEFB38B920682B
:1034B00090F82C1001208840A1698143A161681C0B
:1034C00007D137B12168BDE8F0410E48091D00F071
:1034D000FFBB20683544B5424560216805D2A0682D
:1034E000BDE8F041091D00F0DBBB6068091D00F07C
:1034F000D7FB206B854200D22563BDE8F081000038
:1035000040000020DC3900202DE9F041054600F0A4
:10351000EBFB2E4C2069401C206120682C4F10B121
:10352000E06940B32DE025602069012829D10026FB
:1035300006EB860007EB800000F0A4FB761C072E4C
:10354000F6D323488C3000F09DFB2148A03000F0DA
:1035500099FB1F48B43000F095FB1D48C83000F0BF
:1035600091FB1B48DC3000F08DFB19488C3060600B
:103570001430A06005E02068E96AC06A884200D87B
:103580002560E06A401CE062E96A0120A269884087
:103590001043A06101EB810007EB8000291D00F0C2
:1035A00097FB00F0C1FBE06900280CD02068E96AB5
:1035B000C06A884207D207494FF080500860BFF3C5
:1035C0004F8FBFF36F8FBDE8F081000040000020F7
:1035D0000039002004ED00E010B5044690F85100D9
:1035E00058B101280CD002280FD0502080F3118848
:1035F000BFF34F8FBFF36F8FFEE7206B00F0A8FB88
:103600002046BDE8104000F0A3BB10BD0F4840F6B7
:10361000AC51420705D0C01D0C4A20F00700821AA9
:10362000891A0B4A00230144C2E900030839103A01
:1036300021F0070111604B600B600B1AC0E9001309
:1036400093604FF000405360D0607047F039002025
:103650008C000020144E154CA6F1C8074FF080587E
:10366000DFF84C9012E000BF00F03EFBF068C56848
:10367000281D00F0E9FA2069401E2061E068401E24
:10368000E06000F051FB2846FFF7A6FFE068002845
:10369000EAD138680128F9D9C9F80080BFF34F8F03
:1036A000BFF36F8FF2E70000C83900204000002010
:1036B00004ED00E02DE9F0479A46DDE909848146F2
:1036C0006FF00303206B03EB82021044089D20F08F
:1036D0000706700707D0502080F31188BFF34F8F83
:1036E000BFF36F8FFEE723180A5C83F834200A5C6F
:1036F00012B1401C1028F6D3002784F84370072D20
:1037000000D30625E562C4E91157201D00F0C5FA73
:1037100004F1180000F0C1FA2461C5F107006462E9
:10372000A061E76484F8507052464946304600F084
:10373000BFF82060B8F1000F01D0C8F80040BDE824
:10374000F087000030B5114900E011460A68824256
:10375000FBD34B685C18844203D14068184448602E
:10376000084643681C18944209D1084C103C246850
:10377000A24209D052681A4442600A681268026084
:10378000814200D0086030BD0460F9E78C00002061
:1037900006484168096829B14168C968C96849682B
:1037A000016370474FF0FF31FAE70000400000204E
:1037B00008484068401C4FF0500080F3118804D046
:1037C000BFF34F8FBFF36F8FFEE7BFF34F8FBFF392
:1037D0006F8FFEE7940000202DE9F0410546002799
:1037E00000F052FB314E306808B9FFF70FFFF06868
:1037F00005424BD1C5B3083568070ED005F0070068
:10380000C0F108000544680707D0502080F31188F4
:10381000BFF34F8FBFF36F8FFEE72DB37068854204
:1038200034D82248103001460C6801E020460C468E
:103830006168A94202D221680029F7D131688C421F
:1038400024D007682168016060680837411B10298F
:103850000FD96019420708D0502080F31188BFF3B8
:103860004F8FBFF36F8FFEE710E041606560FFF799
:1038700069FF61687068401A7060B268904200D257
:10388000B060F06801430020C4E9000100F042FC90
:10389000780707D0502080F31188BFF34F8FBFF314
:1038A0006F8FFEE73846BDE8F08100007C00002005
:1038B00010B5031F4FF080741C601B1F21F0010125
:1038C0001960191F024B0B60143940380A6010BD93
:1038D000B137000830B580280ED240290CD201241F
:1038E00001F00705AC40064BC90800EBC110012AE6
:1038F000195C02D0A143195430BD2143FBE70000FD
:10390000AA00002010B5064A00214FF4806328B1B8
:10391000FF245454491C9942F9D310BD0024F8E700
:10392000AA00002010B56420FCF790FD002000F0F4
:103930006DF8202000F0E2F8002000F0DFF8B02061
:1039400000F0DCF8C82000F0D9F8002000F0D6F82C
:10395000102000F0D3F8402000F0D0F8FF2000F055
:1039600045F8A12000F0CAF8A62000F0C7F8A8206A
:1039700000F0C4F83F2000F0C1F8A42000F0BEF829
:10398000D32000F0BBF8002000F0B8F8D52000F0FC
:10399000B5F8F02000F0B2F8D92000F0AFF82220FE
:1039A00000F0ACF8DA2000F0A9F8122000F0A6F838
:1039B000DB2000F0A3F8202000F0A0F88D2000F01C
:1039C0009DF8142000F09AF8012000F01FF8002064
:1039D000FFF798FF00F026F803480021018041809E
:1039E0000121017110BD00000800002010B504463F
:1039F000812000F083F82046BDE8104000F07EB83A
:103A0000014A10805180704708000020044910B11D
:103A1000AF20012201E0AE2000224A7100F06EB812
:103A20000800002070B50C4D002400BF04F1B00068
:103A3000C0B200F063F8002000F060F8102000F041
:103A40005DF805EBC410802100F06AF8641CE4B254
:103A5000082CEBD370BD0000AA0000202DE9FF4F19
:103A600093460098A0F1200ABAF15F0F0CD22248C9
:103A7000CEB202883244802A06D881464088C1F3FB
:103A800007273844402803D9002004B0BDE8F08F50
:103A9000002525E00AFB075100243BF811801CE0BB
:103AA00008FA04F0000409D599F8021099F800000A
:103AB00029442044C9B2C0B2039A0BE00398C0B1B4
:103AC0005FF0000299F8021099F8000029442044A0
:103AD000C9B2C0B2FFF7FEFE641CA642E0D86D1C5E
:103AE000AF42D7D8B9F800103144A9F800100098B7
:103AF000CBE70122E6E700000800002001B584B012
:103B000001214FF0FF3204A88DE807000B46002288
:103B100078210248FCF794FF05B000BD6C37002007
:103B20000EB54FF0FF3289B28DE807000123402225
:103B300078210248FCF784FF0EBD00006C3700209E
:103B4000F0B51D460E46174604460AE02B463A4697
:103B50003146FFF783FF2178884201D0C8B2F0BD1B
:103B6000641C20780028F1D1C0B2F0BD70B50446C5
:103B700016460D460020FFF7C5FE224618A119483B
:103B8000FFF7DEF802210020FFF73AFF164C012371
:103B90001448D4E90012FFF7D3FF2A4610A11148B8
:103BA000FFF7CEF818210020FFF72AFFD4E9001212
:103BB00001230C48FFF7C4FF324609A10948FFF76B
:103BC000BFF82E210020FFF71BFFD4E900120123CC
:103BD0000448FFF7B5FFBDE87040FFF723BF0000C2
:103BE00025640000A00000201000002030B5A5B022
:103BF0000D4624901446694624A8FCF7F1FA642186
:103C00000BA8FCF74CFB0BA8FCF754FB82B2642317
:103C10000BA90C48FEF7A0F90398A8700498401C63
:103C2000687005986421C0B2B0FBF1F201FB12008C
:103C3000E87002982070019860700098A07025B01C
:103C400030BD000074380020D0E9013201699A606B
:103C5000D0E901235A604A68824201D182684A60F1
:103C6000002202610868401E086008687047000072
:103C7000034B036003F1540008608020106070471C
:103C80001835002000F108014FF0FF32C0E90112A1
:103C9000C16001610021016070470021016170472E
:103CA00030B50B685A1C02D000F1080202E002692C
:103CB00004E02246546825689D42FAD953684B6057
:103CC00099608A60516008610168491C016030BDDB
:103CD00042684A6093688B6093685960916008619C
:103CE0000168491C01607047502080F31188BFF3C0
:103CF0004F8FBFF36F8F0A494868401C4860012806
:103D00000CD10848006810F0FF0F07D0502080F356
:103D10001188BFF34F8FBFF36F8FFEE7704700002E
:103D20009400002004ED00E00849486828B1401ED6
:103D3000486001D180F311887047502080F31188CA
:103D4000BFF34F8FBFF36F8FFEE70000940000209A
:103D500070B5002827D0144DA0F108046168E86808
:103D6000014207D1502080F31188BFF34F8FBFF37A
:103D70006F8FFEE722683AB1502080F31188BFF3BD
:103D80004F8FBFF36F8FFEE78143616000F07CF8D7
:103D900060686968084468602046FFF7D3FCBDE8A6
:103DA000704000F0B7B970BD7C0000204FF0E020FB
:103DB00000210161816105494FF47A720968B1FB04
:103DC000F2F1491E41610721016170473C0000206A
:103DD00010B5020014D00F48806B38B1502080F32A
:103DE0001188BFF34F8FBFF36F8FFEE700F04CF8E1
:103DF00000211046FFF750FB00F08CF9002807D196
:103E000005494FF080500860BFF34F8FBFF36F8FAD
:103E100010BD00004000002004ED00E010B586B0A9
:103E20000024039405AA04A903A80494FFF720FF23
:103E3000DDE903010094CDE9011000230EA1104833
:103E4000059A00F0D8F80F490028486311D0502097
:103E500080F31188BFF34F8FBFF36F8F4FF0FF30A8
:103E600008630120C8614C6106B0BDE8104000F055
:103E700041B806B010BD000049444C4500000000A8
:103E800055360008400000200248816B491C8163C0
:103E900070470000400000201448816B11B10121DF
:103EA00041627047002141628169B1FA81F1C1F13B
:103EB0001F0101EB81020E4951F822306BB101EB79
:103EC000820101F108034A6852684A609A4201D1AE
:103ED00052684A60D16801607047502080F31188B1
:103EE000BFF34F8FBFF36F8FFEE70000400000204D
:103EF000003900201CB5264908780190FF20087081
:103F000008788DF800009DF800009DF8002000F072
:103F1000F000904207D0502080F31188BFF34F8FFC
:103F2000BFF36F8FFEE79DF800001A4B00F05000C2
:103F300018700720986005E09DF8002052008DF869
:103F40000020401E9DF800201206F5D4986003283A
:103F500007D0502080F31188BFF34F8FBFF36F8FCE
:103F6000FEE74FF440709860019808700A480168B5
:103F700041F470010160016841F070410160FFF798
:103F800015FF00205860FCF7CFF800201CBD000092
:103F900000E400E09400002020ED00E02DE9FF5F48
:103FA0008346DDE90E87994616468A469000FFF75C
:103FB00013FC05001CD05420FFF70EFC040014D0A5
:103FC0000020256384F85100CDE90240CDE9008747
:103FD0004B46324651465846FFF76CFB2046FFF7EA
:103FE00093FA012004B0BDE8F09F2846FFF7B0FE29
:103FF0004FF0FF30F6E7F0B585B0DDE90B640A9DC0
:10400000A6B1DCB1542700972663022684F85160DC
:10401000002604AFCDE90246CDE90057FFF74AFB81
:104020002046FFF771FA049805B0F0BD502080F3E8
:104030001188BFF34F8FBFF36F8FFEE7502080F3DF
:104040001188BFF34F8FBFF36F8FFEE72DE9F0416B
:104050002E4C0027A06B40B1206A401C2062606A91
:1040600000B101273846BDE8F0816669761C6661BB
:1040700013D16068006838B1502080F31188BFF315
:104080004F8FBFF36F8FFEE76068A1686160A0602B
:10409000A06A401CA062FFF77BFB206BDFF87080FA
:1040A000864209D36068006880B16068C068C568EE
:1040B000686886420DD220632068C06A00EB8001E8
:1040C00058F821000128CAD90127C8E74FF0FF306E
:1040D000F1E7281DFFF7B8FDA86A18B105F118002F
:1040E000FFF7B2FDE86A0121A26981401143A16195
:1040F00000EB800108EB8100291DFFF7E9FDE86A6C
:104100002168C96A8842CDD30127CBE7400000204F
:10411000003900202DE9F0472C4D00242746A86BDC
:1041200038B1FFF7E1FDA86B401EA863A86B40B152
:1041300046E0502080F31188BFF34F8FBFF36F8F9D
:10414000FEE72969224E0120D1B3A6F1B4098046C9
:104150003068E8B1F068C46804F11800FFF774FD36
:10416000201DFFF771FDE06AAA6908FA00F111430A
:10417000A96100EB800109EB8100211DFFF7A8FD7B
:10418000E06A2968C96A8842E2D3C5F82480DFE77B
:104190000CB1FFF7FDFA2C6A44B14646FFF756FF13
:1041A00000B16E62641EF9D100202862686A38B1DD
:1041B0000849012738070860BFF34F8FBFF36F8F9F
:1041C000FFF7B2FD3846BDE8F08700004000002050
:1041D000B439002004ED00E0000000000000000001
:1041E00000000000000000000000000000000000CF
:1041F0000000000000000000000000000000000CB3
:10420000000C000C000C000C000C000C000C000C4E
:10421000000C000C0000000C000C0000000000006E
:104220000000001B001B001B001B001B0000000007
:10423000000000000000000000000000000000007E
:104240000000000000008019801980198019C07FCB
:10425000C07F80190033C07FC07F0033003300333C
:1042600000330000000000000000001E003F8075C9
:1042700080650074003C001E000780058065806535
:104280008075003F001E0004000400000000007064
:1042900000D840D8C0D880D900730006000C801B1D
:1042A000C036C066C046C0068003000000000000A3
:1042B0000000001E003F003300330033001E000CDE
:1042C000C03CC066806380618063C03E801C00008B
:1042D000000000000000000C000C000C000C000CA2
:1042E00000000000000000000000000000000000CE
:1042F0000000000000000000800000010003000634
:1043000000060004000C000C000C000C000C000C5B
:1043100000040006000600030001800000200010D9
:104320000018000C000C0004000600060006000641
:10433000000600060004000C000C0018001000200D
:104340000000000C002D003F001E003300000000A4
:10435000000000000000000000000000000000005D
:1043600000000000000000000000000C000C000C29
:10437000000CC0FFC0FF000C000C000C000C000083
:10438000000000000000000000000000000000002D
:10439000000000000000000000000000000000001D
:1043A0000000000C000C00040004000800000000E5
:1043B0000000000000000000000000000000001EDF
:1043C000001E0000000000000000000000000000CF
:1043D00000000000000000000000000000000000DD
:1043E00000000000000000000000000C000C0000B5
:1043F00000000000000000030003000300060006A8
:1044000000060006000C000C000C000C0018001840
:1044100000180000000000000000001E003F0033F4
:10442000806180618061806D806D8061806180616C
:104430000033003F001E00000000000000000006E6
:10444000000E001E003600260006000600060006CC
:10445000000600060006000600060000000000003E
:104460000000001E003F80738061806180010003B6
:104470000006000C001800300060807F807F000084
:10448000000000000000001C003E00630063000309
:10449000000E000E00038001800180618073003FE8
:1044A000001E00000000000000000006000E000ECC
:1044B000001E001E0016003600360066807F807FDA
:1044C0000006000600060000000000000000007F5B
:1044D000007F006000600060006E007F80638001EC
:1044E000800180618073003F001E0000000000001A
:1044F0000000001E003F803380610060006E007F7E
:1045000080738061806180618033003F001E000005
:10451000000000000000807F807F80010003000316
:1045200000060006000C000C000C00080018001823
:1045300000180000000000000000001E003F806323
:10454000806180610021001E003F80618061806188
:104550008061003F001E0000000000000000001EFF
:10456000003F00738061806180618073803F801DA7
:10457000800180610073003F001E00000000000009
:1045800000000000000000000000000C000C000013
:1045900000000000000000000000000C000C000003
:1045A000000000000000000000000000000000000B
:1045B000000C000C00000000000000000000000CD7
:1045C000000C0004000400080000000000000000CF
:1045D00080008003000E003800600038000E800369
:1045E000800000000000000000000000000000004B
:1045F000000000000000807F807F00000000807FBE
:10460000807F0000000000000000000000000000AB
:10461000000000000000000000400070001C0007C7
:1046200080010007001C0070004000000000000036
:10463000000000000000001F803FC071C060C0008B
:10464000C00180030007000E000C000C0000000CED
:10465000000C0000000000000000001E003F803140
:1046600080718063806F806D806D806F8067006077
:104670000032003E001C0000000000003847000827
:104680007729000800000000000000008000000002
:1046900000000000000000002C470008C1320008A4
:1046A000000000000000000080000000000000008A
:1046B0000000000044470008093200080000000024
:1046C000000000008000000000000000000000006A
:1046D0004C4700086F29000800000000000000009F
:1046E00080000000000000000000000030470008CB
:1046F00067290008000000000000000080000000A2
:1047000000000000000000000000000000000000A9
:104710000102030406070809000000000102030467
:104720001F1D1F1E1F1E1F1F1E1F1E1F6C636400E8
:1047300053445F726400000064656661756C745474
:1047400061736B00616363656C00000053445F77C5
:10475000720000007447000800000020A000000064
:10476000882D000814480008A0000020004B00001D
:10477000982D00080000000000000000000000006C
:10478000000000000B120000D841000800000000EB
:104790000000000000000000000000000000000019
:1047A00000000000010000001000000000000000F8
:1047B0000024F400000000000000000000000000E1
:1047C00000000000000000000000000000000000E9
:1047D00000000000000000000000000000000000D9
:1047E00000000000000000000000000000000000C9
:1047F00000000000000000000000000000000000B9
:10480000000000000000000000000000AAAAAAAA00
:0448100000000000A4
:04000005080000ED02
:00000001FF
